:020000040000FA
:10000000C015002051380000E1290000F70600006B
:10001000F7060000F7060000F7060000F7060000EC
:100020000000000000000000000000005D3800003B
:10003000F706000000000000252A00005F3A0000DB
:10004000E343000091410000DD420000E343000073
:10005000E5440000B1540000C95500007D55000082
:100060003F540000B1540000C95500007D55000008
:100070003F540000B1540000C95500007D550000F8
:100080003F5400001D5A0000515A0000D959000089
:10009000FB590000B1540000C95500007D55000017
:1000A0003F540000000000000000000000000000BD
:1000B0000000100800000000000000000000000028
:1000C0000000080000000000000000000000000028
:1000D00040003500030B0000000000000374000026
:1000E000027300000273000002730000027300003C
:1000F0000273000002730000027300000207000098
:10010000050500000370E0000571C000006060009C
:10011000006060000060600000606000000000009F
:10012000E41E00200C1F0020FC1E00208C1E00205E
:10013000101F0020F01E0020F41E0020E81E0020EA
:10014000EC1E0020141F0020F81E00204D65737364
:100150006167655F4D616E61676572000000000058
:10016000000000000000000000000000000000008F
:10017000000000000000000000000000010000007E
:100180001D0000000A000000040000000100000043
:100190000E0000000500000001000000000000004B
:1001A000F47A0000000000000100000000000000E0
:1001B000003E00004C0100200100000094000020DF
:1001C0000000080000000000000000000000000027
:1001D0000000100800000000000000000000000007
:1001E0004000350040003D00000008000000000015
:0801F000000000000000000007
:020000040000FA
:1001F8002DE9F05F0546002092469B468846064654
:10020800814640241BE0284641464746224600F0E6
:1002180091F853465A46C01A914110D311461846D0
:10022800224600F078F82D1A67EB01084F4622465F
:100238000120002100F06FF817EB00094E41201E45
:10024800A4F10104DFDC484631462A464346BDE8AE
:10025800F09F40EA01039B0703D009E008C9121F79
:1002680008C0042AFAD203E011F8013B00F8013B68
:10027800521EF9D27047D2B201E000F8012B491E94
:10028800FBD270470022F6E710B513460A4604462B
:100298001946FFF7F0FF204610BD10B5002200E018
:1002A800521C835C8C5CA34201D1002BF8D1D8B2DC
:1002B800E1B2401A10BD034611F8012B00F8012BDA
:1002C800002AF9D1184670470246014400E0521C42
:1002D8008A4202D21378002BF9D1101A704710B550
:1002E8004843044607F02AFA002805D00021002CCC
:1002F80002D0641E0155FAE710BD30B404469623B7
:100308000800214604D0B62330BC002200F02BB8E8
:1003180020460021F8E7202A04DB203A00FA02F1FF
:10032800002070479140C2F1200320FA03F31943DB
:1003380090407047202A04DB203A21FA02F000217D
:10034800704721FA02F3D040C2F1200291400843DD
:10035800194670470029A8BF7047401C490008BFCC
:1003680020F00100704710B4B0FA80FC00FA0CF0DD
:1003780050EA010404BF10BC704749B1CCF1200415
:1003880021FA04F411FA0CF118BF012121430843A2
:10039800A3EB0C01CB1D4FEA00614FEA102042BFCE
:1003A800002010BC704700EBC35010440029A4BFC4
:1003B80010BC7047401C490008BF20F0010010BC69
:1003C8007047F0B400F0004221F0004120F00040F6
:1003D800CE0DC30DC1F3160141F40001C0F31600A0
:1003E8004C42154640F40000761E09E010EB44002C
:1003F80002D582F0004240428842F7D840005B1E96
:10040800B342F9DA18B1F0BC0021FFF7ACBF2846B7
:10041800F0BC704770B541F26466C2F200063468F9
:100428000CB1204670BD054601207821FFF757FF23
:1004380080B1044695E807006267C4E900013460AA
:1004480002F038FC0028ECD0204606F0A5FD002478
:100458003460E6E70024E4E770B5044644F8201F5A
:1004680006460020082B1D46C4E90100206128BF6C
:100478000825257332B12BB106F1340011462A46FE
:10048800FFF7E7FE30682921224602F0C3FDB0FAE3
:1004980080F0400970BD41F2F050C2F200000178CE
:1004A80001B1704781B00121017041F20401CEF21F
:1004B80000010968009141F2E851C2F20001009A76
:1004C8000B689A4206D241F2EC52C2F2000213685B
:1004D80001331360009A0A600021017001B070476F
:1004E80080B52DED028B00F070F841F20860C2F281
:1004F8000000D0E90001FFF700FF08EE100A41F202
:100508001060C2F20000D0E90001FFF7F6FE01EE2C
:10051800100A41F21860C2F200009FED0A0AD0E901
:10052800000128EE000A30EE018AFFF7E6FE00EE31
:10053800100A9FED051A20EE010A30EE080ABDECFC
:10054800028B80BD00007A446F12833A4EF6FC514C
:10055800CEF200010A684FF0000C42F080720A6087
:1005680041F20001CEF20001C1F804C00B6844F268
:100578004022C0F20F0200FB02F043F001020A60C1
:1005880041F2DC51C2F20001086044F6D351C1F2D5
:100598006201A0FB0112910941F2E052C2F200028D
:1005A80011604DF68361C4F21B31A0FB0101880C78
:1005B80041F2E451C2F20001086041F2EC50C2F28B
:1005C8000000C0F800C0FFF766BF70B582B041F206
:1005D8000400CEF2000000680190FFF75CFF41F2D2
:1005E800EC50C2F200000068019C00254FF0FF317A
:1005F800E0FB014541F2DC50C2F2000006682046EB
:10060800294632460023FFF7F3FDA0FB062301FB32
:100618000633A41A41F2E052C2F200029D4141F2AF
:1006280008631668C2F20003C3E9000120462946A0
:1006380032460023FFF7DCFD41F21062C2F20002ED
:10064800C2E90001A0FB060201FB062141F2E452C7
:10065800C2F20002201A126865EB01010023FFF7BD
:10066800C7FD41F21862C2F20002C2E9000102B0FD
:1006780070BD10B5044601201021FFF730FED4E903
:1006880001122388002BC26042F20532038108BFA1
:100698006423C2F20002038013784160591C117070
:1006A80041F2C461C2F2000141F8230010BD018883
:1006B8000181704770B542F20534C2F20004207817
:1006C800A0B141F2C4660025C2F2000656F8251012
:1006D8000A891AB1013A0A8105E000BF4A6812B1D5
:1006E800C8689047207801358542EFD370BD00BEB9
:1006F8007047000080B586B0C820FFF727FF41F299
:100708003460C2F20000029047F68420C0F2000074
:1007180003900020059001A803F0D1F842F2C071BF
:10072800C2F20001086042F2285047F6C051C2F2F6
:100738000000C0F2000103F0E1FA43F2B401C2F292
:100748000001086000F046F941F26861C2F2000158
:10075800086042F2847047F63461C2F20000C0F2C9
:10076800000100F043FA41F64061C2F2000108605E
:100778000AA0342102F092F941F65C01C2F20001AC
:10078800086009A04FF4EA7103F04AF941F66821BC
:10079800C2F20001086006B080BD00BF64756D6DCF
:1007A800795F636D6400000064756D6D795F6665DF
:1007B8006564000070B52DED088BD8B041F668204F
:1007C800C2F20000006841F66C21C2F2000103F099
:1007D80013F900F093FB03F0D7FA41F2F251C2F299
:1007E80000010888013082B20880042A68D341F2E7
:1007F8006866C2F200063068002200280A805FD0CE
:1008080037490DF5A67C529135A10D1D3CCD49699E
:100818008CE83C00579152A942AA01F007F9002838
:100828004ED0306842A952AA0CAB01F07BFB9FED79
:10083800328AB3EE0EBAB2EE04AAB3EE049AE0B16D
:1008480030680CAC52AA214601F05CF8B0EE491AA7
:10085800B0EE4B0A002814D400EB400004EBC000B3
:1008680090ED00BA90ED011A90ED028A90ED03AA7E
:1008780090ED049A90ED050A03E0B0EE491AB0EE47
:100888004B0A42AB8DED00BA0FCB8DED011A0892E1
:100898008DED028ACDE906018DED03AA46988DED0E
:1008A800049A47998DED050A0A9042F2C070C2F287
:1008B800000000680B9169460C22099303F070F858
:1008C80041F65C00C2F20000006841F66001C2F225
:1008D800000102F0C5F858B0BDEC088B70BD00BF30
:1008E8000000F0410000A04100002042000020412B
:1008F8000000A0410000F04100002042F0B581B0A6
:1009080000F08AFD42F20835C2F20005284600F0E0
:10091800B3FD95E84F1041F26C67C2F2000787E813
:100928004F1041F69406C2F2000606F19800002125
:100938006FF0170205F118039D585C5C40F8145CD1
:1009480004700131043200F13400F5D141F28465BC
:1009580042F2A830C2F20005C2F2000039462A4627
:1009680001F064F8D7E900013061B8687161F9688D
:10097800C6E90601D7E9040130622868716269682E
:10098800B062A868F162E9683063286971636969CF
:10099800B063A869F163E9693064286A7164696AB7
:1009A800B064A86AF164E96A3065286B7165696B9F
:1009B800B065D5E90E02C6E9171041F62800C2F263
:1009C8000000016872663160D0E90101C6E90110D2
:1009D80001B0F0BD42F2A830C2F20000704700003A
:1009E80010B5AEB01CAC47F60C21C0F20001204691
:1009F8004822FFF72EFC42F2A830C2F2000021463E
:100A080000F000FF6C4647F69C11C0F2000120463A
:100A18007022FFF71EFC204600F048FE42F2C0108C
:100A2800C2F200000721002301704FF07C51C4F28C
:100A3800FA33C0E90131002100224FF4FA74C4F2FC
:100A48004821C0E9032144610DA04FF4EA7102F086
:100A580025F841F6E051C2F2000108600BA03421EC
:100A680002F0DEFF41F6E451C2F20001086042F2F2
:100A78000730C2F20000012101702EB010BD00BF86
:100A880064756D6D795F66656564000064756D6D8C
:100A9800795F636D6400000042F20730C2F2000023
:100AA8000078012818BF704710B52DED028B41F66C
:100AB800E450C2F2000041F628040068C2F20004C3
:100AC800214602F099FF206801280ED068BB9FEDEF
:100AD800468A441CB0EE480AE0B200F042FE0134F7
:100AE800082CF7D1FFF70AFF6CE06068012833D0C3
:100AF80000284FD19FED3B8A94ED060AF0EE480A94
:100B0800012000F031FE94ED070AF0EE480A0220B9
:100B180000F02AFE94ED080AF0EE480A032000F0DF
:100B280023FE94ED090A042030E020F00100022899
:100B380030D1B3EE0E8A012094ED060AF0EE480A91
:100B480000F012FE94ED070AF0EE480A022000F0C9
:100B58000BFE94ED080A03E094ED080A9FED218A44
:100B6800F0EE480A032000F0FFFD94ED090AF0EECC
:100B7800480A042000F0F8FD94ED0A0AF0EE480A4D
:100B8800052000F0F1FD94ED0B0A0620F0EE480A6E
:100B980000F0EAFDFFF7B2FEA06802280BD142F28E
:100BA800C010C2F2000094ED0C0AD0ED040A072030
:100BB80000F0DAFD06E0C1B242F2C010C2F2000055
:100BC80000F0A4FC41F6E050C2F20000006841F6D3
:100BD8009401C2F20001BDEC028BBDE8104001F0A7
:100BE8003FBF00BF000048420000000080B588B049
:100BF80040F6854205ABC0F2000207C319208DF804
:100C0800100004A803F031F810A2D2E9012141F63E
:100C18004863DFF838C0C2F20003186001A8CDE9C4
:100C280001C20391FFF725FD41F63C61C2F20001C4
:100C380041F644620860012141F6E850C2F2000220
:100C4800C2F20000117008B080BD00BFC8000000EB
:100C5800610C00000000000080B541F6E850C2F2C7
:100C680000005421FFF70EFB41F64860C2F2000075
:100C78000068BDE8804003F02FB800002DE9F04F70
:100C88008BB041F6486042F20078C2F20000C2F22E
:100C980000080168B8F8000042F202760022C2F2A9
:100CA800000600BF8B5C87B201300132192A00F0C0
:100CB8007F00F355F6D142F28277C2F200073988F5
:100CC80000F18002521A02EB5263A8F8000023F0E8
:100CD8007F03D21A192AC0F00E8141F6E8540DF1AB
:100CE8001305C2F2000400BF725C0F2A05D101F19E
:100CF800180202F07F02B25C72B1013101F07F018B
:100D0800398082B2521A803202EB526323F07F0399
:100D1800D21A182AE8D8EEE0002000BF8AB20131C2
:100D2800B25C01F07F012A5401301928F6D19DF8F0
:100D3800130039800F2840F0DA809DF82B00002836
:100D480040F0D5809DF814809DF815009DF8172077
:100D58009DF8161060F30A28C308900040EA911E17
:100D68009DF8180061F34A139DF8191060F38A2E54
:100D7800400861F3CA109DF81B7001906083080950
:100D88009DF81A107F0061F30A1047EAD1199DF8FF
:100D98001C109DF81D2061F34A294FEA910A9DF81D
:100DA8001E109DF820C0C90062F38A1A41EA521B3E
:100DB8009DF821204FEADC0162F34A11A8F5806210
:100DC8002280A3F58062A4F81480A4F818E0CDF876
:100DD8000880F0466280AEF58062DDF804E09DF898
:100DE8001F70A280AEF580626CF30A27E280B0F52E
:100DF800AF6F4FF0030240F28A2CE382A083A4F87D
:100E08001E90A4F820A0A4F822B0A784E18403933C
:100E180088BF0222604538BF012203202281B9F52C
:100E2800AF6F88BF0220E14538BF012060810320F1
:100E3800BAF5AF6F88BF0220E24538BF0120A08114
:100E48000320BBF5AF6F88BF0220E34538BF012000
:100E5800E081A7F1F0002082AEF2064080B24FF6A2
:100E6800F5729042A8F2064080B2A1F1F0014FF06D
:100E78000003618228BFE380904228BFA3800298C4
:100E880042F20078A0F2064080B242F282779042A5
:100E980028BF23800398C2F20008A0F2064080B25F
:100EA800C2F20007904228BF6380002034F8101077
:100EB8000AB281EAE231A1EBE23189B2B1F5617F90
:100EC80088BF24F8103001300428EFD1012084F8BD
:100ED800280004F12A0021462A22FFF7BAF941F630
:100EE8003C60C2F20000006808B1FFF7E0FBB8F808
:100EF8000000398805E70BB0BDE8F08F10B52DED7F
:100F0800048B41F64064C2F2000420689FEDBC9A4D
:100F1800B0F910009FEDBB8A00EE100A9FEDB71ADA
:100F2800B8EEC00AF0EE490AF0EE491AB0EE482AC7
:100F380003F0EDFB2168C889022806D141F660005C
:100F4800C2F200000021016054E1B1F91200B0F5CD
:100F5800447F41F66000C2F20000BABF80ED0C0A7F
:100F6800022201228B898260032B08D0022B16D122
:100F7800022140F8181B1821FFF784F93AE10221F1
:100F88000022002301600021C4F29622C4F2B42397
:100F98008161C0E90723C0E90911C1622AE14A89D0
:100FA800012A2ED0032A29D0022A40F0A78043F232
:100FB800B401C2F200010968022251F8013F02603F
:100FC80083F0004282614A688B6800EE102A9FED28
:100FD8008F1A9FED8F2A31EE400A01EE103ACA6847
:100FE80080ED070A0B6932EE411A4969426280EDC9
:100FF800081A83F000428262C1627FE00121016029
:101008007CE00B890122022B02603BD14260B1F9DE
:101018000020B1F90430B1F90240B1F9061000EE30
:10102800103A04EE101AB8EEC00A9FED771AB8EE1F
:10103800C44A20EE010A90ED082A90ED093A24EE00
:10104800014A30EE020A34EE032A03EE104A04EE97
:10105800102AB8EEC33AB8EEC44A90ED0A5A23EE05
:10106800013A24EE011A90ED0B4A33EE053A31EEBF
:10107800041A80ED080A80ED092A80ED0A3A80ED0D
:101088000B1A3BE000224260B1F90020B1F90230AE
:1010980000EE102A04EE103AB8EEC00A9FED5A1A74
:1010A800B8EEC44AB1F90440B1F9061020EE010ABD
:1010B80090ED062A90ED073A24EE014A30EE020A36
:1010C80034EE032A03EE104A04EE101AB8EEC33ABF
:1010D800B8EEC44A90ED085A23EE013A24EE011AFC
:1010E80090ED094A33EE053A31EE041A80ED060A0E
:1010F80080ED072A80ED083A80ED091A90ED061A6E
:101108009FED440AB4EE401AF1EE10FA02DA80EDCF
:10111800060A08E09FED400AB4EE401AF1EE10FA14
:10112800C8BF80ED060A90ED071ABBEE090AB4EEB7
:10113800401AF1EE10FA02DA80ED070A08E09FED96
:10114800370AB4EE401AF1EE10FAC8BF80ED070A6C
:1011580090ED080AB5EE400AF1EE10FA02DA80EDD9
:10116800089A08E09FED2E9AB4EE490AF1EE10FABB
:10117800C8BF80ED089A90ED091A9FED2A0AB4EECF
:10118800401AF1EE10FA02DA80ED090A08E09FED44
:10119800240AB4EE401AF1EE10FAC8BF80ED090A2D
:1011A80090ED0A1A9FED200AB4EE401AF1EE10FAFB
:1011B80002DA80ED0A0A08E09FED1C0AB4EE401A34
:1011C800F1EE10FAC8BF80ED0A0A90ED0B1A9FEDF8
:1011D800180AB4EE401AF1EE10FA02DA80ED0B0AA2
:1011E80008E0B4EE481AB0EE480AF1EE10FAC8BFAB
:1011F80080ED0B0ABDEC048B10BD00BF00E0C344BA
:10120800000000000000B44352499D390000964296
:101218000000B44200002FC300002F430000164313
:1012280000003443000034C30000F0C20000F04264
:101238000000B4C342F20030C2F20000006842F27B
:10124800E0120021C2F20002117002F045BD000058
:1012580042F20030C2F200000168002975D02DE981
:10126800F04F87B042F2DC1291F80031C2F200026E
:10127800108863B142F2E117C2F2000711F8016B5E
:1012880085B20130013BC0B27E55F7D1108042F2E1
:10129800DE19C2F20009B9F80010401A5FFA80FAA4
:1012A800BAF11B0F4ED342F2E11742F2E42B6E461D
:1012B800C2F200074FF6FB78C2F2000B88B2002298
:1012C8008318DBB2FB5CB35401321B2AF8D19DF8BA
:1012D8000000AA282CD1BDF81900404528D19DE866
:1012E8003D10AAF11B0A8BE81D00BDF8180042F258
:1012F800E012ABF818009DF81A00C2F200028BF851
:101308001A0001F11B00C1B242F2D810C2F200006B
:1013180000680123CBF81050CBF814C0A9F80010CE
:10132800137058B1FFF7C3F9B9F8001006E000BF11
:10133800481CC1B2AAF1010AA9F800101FFA8AF0E4
:101348001A28BBD807B0BDE8F04F7047F0B581B098
:1013580004464069C0F3C316A6F1080111F1070F4E
:1013680001D201B0F0BD00F07F0741F64040C2F263
:101378000000342116FB010501206874FFF7B0F85E
:10138800A7F1210085ED050A0428EAD8DFE800F076
:10139800033C12360C00207C0428E2D3A068686263
:1013A800207C0528DDD325E0207C042824BFA06804
:1013B800A862D6E7207C0428D3D3A06842F228315B
:1013C800C2F2000100EE100A9FED121A01EB06119D
:1013D80020EE010A91ED001A097980EE010AA86150
:1013E8000029207CB1EE401A00FE010A052885ED8F
:1013F800070AB6D3207B85F83000B2E7207C0428A2
:10140800AFD3A068E862ACE7207C0428A9D3A06821
:101418002862A6E70000B44370B52DED048B0024C4
:10142800FFF75EF8B0EE408A9FED129A41F640450C
:10143800C2F20005002600BFA91991F8450001284D
:1014480010D191ED120A38EE400AB4EE490AF1EED5
:1014580010FA07DD91F8440081F845400121012286
:1014680002F019FA3436B6F5B67FE5D1BDEC048B37
:1014780070BD00BF00007A44F8B12DE9F0412DEDB0
:10148800028B00F1180800276FF017067D1CECB2DC
:10149800204600F013F82046B0EE408A00F022F80B
:1014A80008EB060181ED008A08F8070004362F468C
:1014B800ECD1BDEC028BBDE8F0417047A0F108010A
:1014C80011F1070F3CBF9FED060A704741F64041F6
:1014D800C2F20001342210FB021090ED070A704797
:1014E80000000000A0F1080111F1070F3CBF002027
:1014F800704741F64041C2F20001342210FB02104D
:1015080090F83000002818BF0120704770B50028F7
:1015180000F0CB8004780546A4F10800C0B2F92891
:10152800C0F0C380012915D0002940F0BE8095ED98
:10153800030AD5ED040A204600F016F941F2F450EA
:10154800C2F200000021017041F2F850C2F200001E
:10155800016070BD41F2F456C2F2000630780128ED
:1015680014D0002847D141F64040C2F2000034218F
:1015780014FB0100002195ED010AD5ED040A416232
:10158800204600F0F1F80120307070BD41F2FC51A6
:10159800C2F2000108780130C2B2052A08700CD3E3
:1015A80041F20060C2F20000006800220A7020B117
:1015B800E10121310023FEF74FFF41F64040C2F21E
:1015C8000000342114FB010095ED021A90ED090A80
:1015D80041F2F851B0EEC00AC2F20001B4EE410A7D
:1015E8000A68F1EE10FA3DDA332A34BF0020A2F17E
:1015F8003200086059E041F2F551C2F20001087862
:101608000130C2B2052A08700CD341F20060C2F260
:101618000000006800220A7020B1E1012131002396
:10162800FEF71AFF95ED010A95ED031A41F64040C1
:10163800B4EE410AC2F20000B8EE080A3421B0EE56
:10164800081A14FB0100F1EE10FA31FE000A90EDC1
:10165800071AD5ED040A30EE010A2046BDE87040AD
:1016680000F082B86B6901329A420A601DD9B2EB68
:10167800430F84BF5A000A6095ED010A95ED031ADD
:10168800D5ED040AB4EE410AB8EE080AB0EE081A1D
:10169800F1EE10FA31FE000A90ED071A204630EEFE
:1016A800010A00F061F802206EE770BD2DE9F043F1
:1016B80085B042F20638C2F2000898F800100029F6
:1016C8004CD1054642F29440C2F20000019047F620
:1016D8005850C0F20000029041F25530C0F20000AC
:1016E800039001A8FEF796FE814641F20060C2F21F
:1016F8000000C0F8009095B142F228300021C2F2F3
:10170800000000BF6A18D2E901746B581031D26822
:101718000E1870290B50C6E90174F260F2D141F637
:101728004045C2F2000528464FF4D071FEF7AAFDE5
:1017380005F14400012100BF00F8341B01310829DC
:10174800FAD10125B9F1000F049505D004AA48463D
:1017580001210423FEF780FE88F8005005B0BDE89B
:10176800F083032102F082B8A0F1080111F1070FFC
:1017780038BF704780B582B042F22831C2F200010A
:1017880001EB00119FED1D3A91ED031A91ED022A2C
:1017980081FE400A9FED1A1A82FE000A80EE010AB5
:1017A80080EE811A91ED002A0979B4EE423AB7EE3B
:1017B800003AF1EE10FA33FE022A002941F20061E4
:1017C800C2F200010B6822EE003A22EE400A21EE36
:1017D800021A03FE000AB0EEC11A8DED000A8DED63
:1017E800011A33B1C001C11D6A4618460823FEF725
:1017F80033FE02B0BDE88040704700BF6F12833AE5
:101808000000B44310B548220446FEF722FDD4ED8B
:101818000F0A94ED100A20EEA06A20EE005A94ED0B
:101828000C3A36EE055A84ED133AB1EE433AB1EE6E
:10183800C56A84ED2B3AB1EE403A84ED303A40F671
:10184800DB729FED2E3A94ED0D4AB4EE435A94EDB7
:101858000E1A9FED2B3AF1EE10FA40F6DB7194ED7B
:10186800112A84ED144A84ED2A4A21EE014A4FF0E8
:10187800000084ED181ACBF6C97284ED1B0A36FEF7
:10188800033AC3F6C971C4ED1F0AA06484ED272A80
:10189800C4E9152284ED2D1AE065C4ED320AC4E9C5
:1018A800190184ED352AC4E91C0184ED364AA06784
:1018B80084ED371AC4E9200284ED385AC4F8880048
:1018C80084ED393AC4F88C00C4F89000C4F8941038
:1018D800C4F89800C4E92800C4F8B000C4F8B800F7
:1018E800C4F8BC00C4F8C400C4F8CC00C4F8D000E4
:1018F80005F006FC84ED3A0A10BD00BFBD378635F9
:10190800000000002DE9F0472DED0E8B9FED419A68
:101918009FED418A9FED41AA9FED42BA9FED42CAD1
:101928009FED3FDA92460D46064601F1C0090027B1
:101938004FF0FF3807EB470019F8001000295FD077
:101948004844417800295BD08078002858D000248A
:10195800281990ED000AF0EE480A05F0CFFDB4EE24
:101968004A0AF1EE10FA03DD30EE0B0A07E000BF79
:10197800B4EE4D0AF1EE10FAD8BF30EE080A30196D
:1019880090ED001AB4EE410AF1EE10FA38DB90ED52
:10199800061AB4EE410AF1EE10FA31DC0434182CC0
:1019A800D6D1B0EE4CEA0024281990ED000A0AEBD3
:1019B800040090ED001AF0EE480A30EE410A05F0F6
:1019C8009DFDB4EE4A0AF1EE10FA03DD30EE0B0A83
:1019D80007E000BFB4EE4D0AF1EE10FAD8BF30EEC2
:1019E800080A20EE000A043430EE0EEA182CDBD187
:1019F800B4EE49EA8EFE499AF1EE10FAB8BFB8463D
:101A08000137082F05F1180594D14046BDEC0E8B1F
:101A1800BDE8F087FFFF7F7F0000B4430000344338
:101A2800000034C30000B4C3000000002DE9F047F3
:101A38002DED0A8BF0B09FED06CA91460E46804602
:101A480000F1540500240DF1E80A002704E000BF66
:101A580034FA8E3C00000000B6EC010A15ED031ABA
:101A680020EE0C0A30EE018AB0EE480A05F09EFC22
:101A7800B0EE409AB0EE480A05F098FD95ED008A60
:101A8800B0EE40AAB0EE480A05F090FCB0EE40BABD
:101A9800B0EE480A05F08AFD0AEB07002BEE4A1A59
:101AA8002AEE002A29EE0B3A20EE494A243780ED27
:101AB800009A103580ED011AD82F80ED022A80EDAA
:101AC80003AA846180ED043A80ED054A80ED070A97
:101AD80080ED08BAC0D11FED210A0AF1240E0021B9
:101AE8000DF1C40C534600BF01EB410000260CEB7E
:101AF80080077546B0EE401A002428461A1992ED60
:101B0800002A90ED003A043422EE032A0C2C32EE1F
:101B1800011A00F10C00F1D107EB86000136032E03
:101B280080ED001A05F10405E4D10131032903F120
:101B38000C03D9D11FED390A0AF1480E002131AA48
:101B48000DF1A00C01EB410000260CEB8007754657
:101B5800B0EE401A00242846131993ED002A90EDA0
:101B6800003A043422EE032A0C2C32EE011A00F15A
:101B78000C00F1D107EB86000136032E80ED001A28
:101B880005F10405E4D10131032902F10C02D9D190
:101B98009FEDDE0A0AF16C0E002128AA0DF17C0CDB
:101BA80001EB410000260CEB80077546B0EE401AA9
:101BB80000242846131993ED002A90ED003A0434C6
:101BC80022EE032A0C2C32EE011A00F10C00F1D19E
:101BD80007EB86000136032E80ED001A05F1040597
:101BE800E4D10131032902F10C02D9D19FEDC70AD2
:101BF8000AF1900E00211FAA0DF1580C01EB4100CB
:101C080000260CEB80077546B0EE401A00242846E3
:101C1800131993ED002A90ED003A043422EE032ABA
:101C28000C2C32EE011A00F10C00F1D107EB860002
:101C38000136032E80ED001A05F10405E4D10131C7
:101C4800032902F10C02D9D19FEDB00A0AF1B40EB2
:101C5800002116AA0DF1340C01EB410000260CEB13
:101C680080077546B0EE401A00242846131993EDF4
:101C7800002A90ED003A043422EE032A0C2C32EEAE
:101C8800011A00F10C00F1D107EB86000136032E92
:101C980080ED001A05F10405E4D10131032902F1B0
:101CA8000C02D9D19FED990A08F1A80000213AAA9F
:101CB8000AAB00BF03EB8107B0EE401A002600BF55
:101CC800951995ED002A851995ED003A043622EE0E
:101CD800032A0C2E32EE011AF2D1013187ED001AD7
:101CE800032902F10C02E5D19FED880A08F1B4003E
:101CF800002131AA07AB00BF03EB8107B0EE401A01
:101D0800002600BF951995ED002A851995ED003A32
:101D1800043622EE032A0C2E32EE011AF2D10131DA
:101D280087ED001A032902F10C02E5D19FED770A2D
:101D380008F1C000002128AA04AB00BF03EB81070B
:101D4800B0EE401A002600BF951995ED002A8519B6
:101D580095ED003A043622EE032A0C2E32EE011AD3
:101D6800F2D1013187ED001A032902F10C02E5D105
:101D78009FED660A08F1CC0000210DAA01AB00BF57
:101D880003EB8107B0EE401A002600BF951995EDC8
:101D9800002A851995ED003A043622EE032A0C2E06
:101DA80032EE011AF2D1013187ED001A032902F14E
:101DB8000C02E5D19DED0A0A9DED073A9DED0B1A3F
:101DC80030EE030A9DED043A9DED0C2A30EE030A2D
:101DD8009DED013A9DED084A9DED095A30EE030A42
:101DE8009DED056A9DED067A31EE041A32EE052A5C
:101DF8000DAF89ED000A9DED138A8FCF9FED440A40
:101E0800DDED020ADDED031A31EE061A32EE072A7D
:101E1800DDE91265B0EEC83A09F1180C8CE88F00BC
:101E28001598B4EE403A31EE201A32EE212A149C6D
:101E3800F1EE10FAC9F8380089ED011A4FF00100E7
:101E480089ED022AC9E90B65C9F8344089F83C00D4
:101E580038DA9DED109A9DED0DAA29EE090A2AEEB1
:101E68000A1A31EE000AF1EEC00AB1EE480A05F08E
:101E780047F9B0EE408A05F099FA9FED281AB0EEBE
:101E8800C02AB4EE421AF1EE10FA31FE00BA89EE19
:101E98000B0ACAEE0B0A05F033F99DED141A9DEDF5
:101EA800152A81EE0B1AC2EE0B0AB0EE409AB0EE7C
:101EB800410A05F025F99FED1A1A28EE012A29EEA4
:101EC800011A13E09DED0E0ADDED110A05F018F96F
:101ED800B5EE408A9FED0D1AF1EE10FA02DA9FED89
:101EE8000D2A03E09FED0C2AB1EE400A9FED0C3A53
:101EF800012089ED042A20EE030A89ED051A89EDEF
:101F0800030A70B0BDEC0A8BBDE8F0870000000042
:101F180072F97F3F0000B4420000B4C217B7D1384D
:101F2800E12E65422DE9F04F81B02DED108BDEB02A
:101F3800884683461846D8211C469246FEF7A2F9E1
:101F480054A800F10C035AA808309FED7F0A0690A8
:101F580000200FA90AEB000292ED001A0A1821EEE0
:101F6800001A0430182882ED001AF3D198E8070007
:101F780007934E9098F83C0009944F91509288B17D
:101F880008F118078FCFD8E90B650DF58A7CD8F8CA
:101F980034408CE88F00D8F83800CDE94A65CDE99F
:101FA8004C406BE098ED031A98ED042A98ED053A39
:101FB80021EE008A22EE009A23EE00AAB0EE480A2B
:101FC8008DED518A8DED529A8DED53AA05F0EEF9FB
:101FD800B0EE40BAB0EE480A05F0E8FAB0EE408A32
:101FE800B0EE490A05F0E2F9B0EE40CAB0EE490A8F
:101FF80005F0DCFAB0EE409AB0EE4A0A05F0D6F9E0
:10200800B0EE40DAB0EE4A0A05F0D0FA29EE0D1A21
:1020180020EE0B2A21EE083A21EE0B1A33EE422A63
:1020280028EE003A8DED462A31EE031A2CEE003ADE
:1020380029EE000A8DED471A8DED483A2BEE0D1A60
:1020480020EE082A2DEE083A20EE0B0A32EE011A8D
:102058002CEE0D4A30EE430A28EE0C2A2BEE0C3AF1
:102068008DED491AB1EE491A8DED454A8DED4A0AB2
:102078008DED4B1A8DED4C2A8DED4D3A9FED330ABF
:102088000BF1CC01002245AB3CA800BF00EB820756
:10209800B0EE401A002600BF9D1995ED002A8D1953
:1020A80095ED003A043622EE032A0C2E32EE011A80
:1020B800F2D1013287ED001A032A03F10C03E5D1AE
:1020C80000214EAA42AD00BF531893ED000A4318F1
:1020D80093ED001A6B1830EE410A04310C2983ED98
:1020E800000AF1D19DED43AA9DED429A2AEE0A0A13
:1020F80029EE091ADFED168A31EE000A099EB1EEC3
:10210800C00AB4EE680AF1EE10FA2DDDB0EE4A0A04
:10211800F0EE490A04F0F4FFB0EE408AB1EE4A0A44
:10212800F1EE490A04F0ECFF00208DED020A0121CE
:1021380000EB400201303244042882F8C01082F8D3
:10214800CC10F5D120E000BF34FA8E3C000000002E
:10215800BD378635DB0FC940DB0F4940DB0FC9C0EF
:10216800E12E6542DB0F49C09DED0F8A0020FF215B
:1021780000EB400201303244042882F8C01082F893
:10218800CC10F5D18DED028A0BF1980005900BF17A
:102198007800049054A81430039001205FED15AA2C
:1021A8001FED14AA5FED14EA5FED14FA1FED149AFF
:1021B8005FED149A0BF1A80406F1C0090B900DF11C
:1021C800C0083FAE00200A900E90CDF820B00194D0
:1021D8009BED120A38EE00BAB0EE4B0A05F0E6F8AD
:1021E800B0EE40CAB0EE4B0A05F0E0F900218DEDE3
:1021F800310A0020B1EE400ACBF680718DED30CA6D
:10220800CDE932008DED360A34908DED37CA35911F
:102218004FF0000A38904046002100BF06EB8102CB
:10222800B0EE6A0A002300BFC71897ED001AEF182E
:1022380097ED002A043321EE021A0C2B31EE000A26
:10224800F2D1013182ED000A032900F10C00E5D139
:10225800002039AA311891ED000A211891ED001AD1
:10226800111830EE410A04300C2881ED000AF1D132
:102278009DED3A0ADDED390A20EE001A20EEA02A7B
:102288009BED37DA32EE01CA9BED39EAB1EECCFAB2
:102298003DEE0E1A31EE282AB4EE42FAF1EE10FAAB
:1022A80040F3D08204F02CFF00208DED5A0A5B9099
:1022B8008DED5C0AB0EE6A0A0A9B8DED5D0ADDEDD4
:1022C80012DA03EB430143F0020202EB42024944F3
:1022D800487009EB020143F0010202EB4202487028
:1022E80009EB020143F0030202EB4202487009EBDA
:1022F8000201DDED14CA487001205AAC002100BF6C
:1023080094ED00BA9BED160ACDE90C103BEE00CA1D
:10231800B0EE4C0A05F04AF8B0EE40DAB0EE4C0ADE
:1023280005F044F994ED01CA9BED1A1AB0EE40FA93
:102338003CEE01EAB0EE4E0A05F038F8F0EE408ABD
:10234800B0EE4E0A05F032F92FEE001A2DEE282ACB
:102358002FEE283A2DEE000A32EE414A30EE030AFB
:102368004FF07E508DED274A31EE421A00218DED57
:10237800280A2C908DED2D0A27A88DED2E1A0DF127
:10238800780C0DF1540E0DF58A7ACDE929112B91AF
:102398002F9100BF01EB410200230CEB820247465C
:1023A800B0EE6A0A00243E46051995ED001A96ED2E
:1023B800002A043421EE021A0C2C31EE000A06F130
:1023C8000C06F1D102EB83060133032B86ED000ADC
:1023D80007F10407E4D10131032900F10C00D9D138
:1023E8000020614600EB400200230EEB82025746B4
:1023F800B0EE6A0A00243E460D1995ED001A96EDD6
:10240800002A043421EE021A0C2C31EE000A06F1DF
:102418000C06F1D102EB83060133032B86ED000A8B
:1024280007F10407E4D10130032801F10C01D9D1E7
:102438009DED1D0A9FEDE21AB4EE410AF1EE10FA85
:1024480046DA9FEDE01A099DB4EE410A079FF1EEC6
:1024580010FA47DDBFEE001A80FE010AB7EE001A37
:1024680080FE41DAB0EE4D0A04F0BEFD0B98C007BD
:1024780073D08DED550AB0EE4D0A04F0B5FD9DED13
:1024880017DA9DED1AEAB1EE400A8DED580AB0EE62
:102498004E0AF0EE4D0A04F033FE8DED540AB1EE0B
:1024A8004E0AF1EE4D0A04F02BFE9DED1CEA9DED5F
:1024B8001BDA8DED570AB0EE4E0AF1EE4D0A04F024
:1024C8001FFE8DED560AB1EE4E0AF0EE4D0A72E08F
:1024D8000B98099D079F0021C007559158910ED16F
:1024E80079E000BF0B98C0076BD040F6DB70C4F2F0
:1024F8004900559040F6DB70CCF24900589004989A
:10250800CDED54DA90ED000A3DEE80DAB0EE4D0ADA
:1025180004F04CFFB0EE40EAB0EE4D0A05F046F884
:102528009DED15FADDED188A20EE0F1A2EEE282AF9
:1025380020EE283A2EEE0F4A32EE410A74EE030AD4
:10254800F1EE4FBA04F0DCFD05988DED560AB0EEB9
:102558006C0ACDED59CA3C466AE0B1EE400A8DEDF1
:10256800550AB0EE4D0A04F03FFD9DED17DA9DEDDA
:102578001AEA8DED580AF1EE4D0AB1EE4E0A04F052
:10258800BFFD8DED540AB0EE4E0AF0EE4D0A04F090
:10259800B7FD9DED1BEA9DED1CDAF0EE4E0A8DEDC0
:1025A800570AB1EE4D0A04F0ABFD8DED560AF1EE77
:1025B8004E0AB0EE4D0A04F0A3FD01208DED590A34
:1025C80055E040F6DB70CCF24900559040F6DB70E0
:1025D800C4F2490058900598CDED56CA90ED000A0E
:1025E8003CEE80DAB0EE4D0A04F0E0FEB0EE40EAD0
:1025F800B0EE4D0A04F0DAFF9DED15FADDED188A0C
:1026080020EE0F1A2EEE282A20EE283A2EEE0F4A38
:1026180032EE410A74EE030AF1EE4FBA04F070FD8F
:1026280004988DED540AB0EE6D0A039CCDED57DA8F
:1026380090ED001A30EE01DAB0EE4D0A04F0B6FE65
:10264800B0EE40EAB0EE4D0A04F0B0FF20EE2B1ACF
:102658002EEE282A28EE803A2EEE0F4A32EE010A94
:1026680074EE030A04F04CFD84ED000AFF200A9979
:102678000C9A002442EA010B0BEB4B014BF00102D0
:1026880002EB42024944887009EB02014FF0010A4B
:1026980054AE8870B0EE480AF0EE4A0A04F02EFFF5
:1026A800B4EE6E0AF1EE10FA02DD30EE2F0A06E003
:1026B800B4EE690AF1EE10FAD8BF30EE0A0A44EA1D
:1026C8000B0000EB400820EE090A05EBC804F0EE09
:1026D8004A0A84ED000AB0EE4B0A04F00FFFB4EE8C
:1026E8006E0AF1EE10FA03DD30EE2F0A07E000BFA4
:1026F800B4EE690AF1EE10FAD8BF30EE0A0A20EEFD
:10270800090AF0EE4A0A84ED010AB0EE4C0A04F018
:10271800F5FEB4EE6E0AF1EE10FA03DD30EE2F0A84
:1027280007E000BFB4EE690AF1EE10FAD8BF30EE48
:102738000A0A20EE091A96ED000AF0EE4A0A84ED1C
:10274800021A04F0DBFEB4EE6E0AF1EE10FA03DDB5
:1027580030EE2F0A07E000BFB4EE690AF1EE10FA76
:10276800D8BF30EE0A0A20EE091A96ED010AF0EEFB
:102778004A0A84ED031A04F0C1FEB4EE6E0AF1EEC3
:1027880010FA03DD30EE2F0A07E000BFB4EE690A45
:10279800F1EE10FAD8BF30EE0A0A20EE091A96EDCB
:1027A800020AF0EE4A0A84ED041A04F0A7FEB4EE19
:1027B8006E0AF1EE10FA07DD30EE2F0A0BE000BFCB
:1027C800EFFF7F3FEFFF7FBFB4EE690AF1EE10FA2B
:1027D800D8BF30EE0A0A19F8080020EE090A84ED7D
:1027E800050A40B109EB08004078002818BF01200D
:1027F8000E9901430E9101245FEACA704FF0000A56
:102808003E467FF447AF0D98069CC007DDF820B020
:102818004FF002014FF000000DF1C0083FAE7FF409
:102828006FAD04200A900B989DED028AC007DFED7A
:10283800678A019C4FF0000042AD0B907FF4C8AC52
:10284800BBE000BF3DEE4E2A9FED613AB0EEC22AD2
:1028580032EE033AB4EE43FAF1EE10FAFFF622AD87
:10286800B4EE68FAF1EE10FA7FF71CADB4EE68DA50
:10287800F1EE10FA7FF716ADB4EE68EAF1EE10FA51
:102888007FF710AD31EE4F1AB0EEC11AB4EE681AE8
:10289800F1EE10FA54DD3FEE421AB0EEC1BA04F080
:1028A8002FFCB4EE68BAB0EE40BAF1EE10FA4FDD84
:1028B800DBED368ADBED38BA3CEE280AF6EE00DAB4
:1028C800F7EE00CA30EE6B0A2DEE0F1A20EE2D0A35
:1028D800BFEE00FA80EE010A80FE0F0A80FE6C0A45
:1028E80004F082FB38EEAB1A2DEE0E2A31EE4C1AAC
:1028F800B0EE40CA21EE2D1A81EE021A81FE0F1A9F
:1029080081FE6C0A04F070FB0B98C00730D09BED79
:102918003A1A3BEE4C2A9FED2F4A31EE403A32EEFE
:10292800042A33EE2E3A8DED5A2A3BEE0C2A30EE6D
:10293800010A8DED5B3A32EE041A30EE290A2FE0D7
:1029480004F0DEFBCDF86CA18DED5A0A0120AFE44E
:102958000B988DED5ABA8DED5CBAC00724D040F6BD
:10296800DB70C4F249005B900120B0EE690AA3E471
:102978003BEE0C2A9FED174A9BED3A1A32EE042AD9
:1029880030EE013A8DED5A2A3BEE4C2A31EE400AE0
:1029980033EE293A32EE041A30EE2E0A8DED5B3A08
:1029A80001208DED5C1A87E440F6DB70CCF249001B
:1029B8005B900120B0EE6E0A7EE40E9800F00100F4
:1029C8005EB0BDEC108B01B0BDE8F08FBD37863529
:1029D800BD3786B5DB0FC93F2DE9F04146F2201817
:1029E800C4F20008B8F80000B8F8201041F64C65A9
:1029F80001EA0006B7B20024C2F2000527FA04F083
:102A0800C00704D055F8241009B12046884701347E
:102A1800102CF3D1A8F81060BDE8F0810F4B1968AD
:102A2800EFF309821EF0100F08BF22ED108A22E989
:102A3800F04FEFF30B8342F8043D0A604FF01000AB
:102A480080F31188BFF34F8FBFF36F8F03F04CFBF8
:102A58004FF0000080F3118802F026BC1C260020ED
:102A6800F0B581B0466AB6B104460D46002700BFEE
:102A7800307A2946012804BFB7713772F079628C21
:102A880056F82000FDF7E5FB307AF7710130307217
:102A9800F668002EECD1012001B0F0BDF0B581B090
:102AA8000C4621210546FDF70FFC1F2801D900BF60
:102AB800FEE740F20C17C2F2000700BFBE6A66B11B
:102AC80030462946FDF7E9FB00283746F6D1708CD9
:102AD800844230460BD000BFFEE701203021FDF7CD
:102AE800FEFB2946B8624484FDF7E5FB3E4601211A
:102AF80086F82C1001B0F0BDB0B543F22404C4F23E
:102B080008040025C8200121257100F082F82570ED
:102B180020780028FCD1207840F00200207000BF07
:102B280020788007FCD4002004F8020C14F8020C6A
:102B38000028FBD1002004F11C0100BF11F810206F
:102B480002F07F0201F8102011F91020002AFBD4AE
:102B580001300328F2D1012000F00BF84EF2BB42FD
:102B68000021C4F2010201201170BDE8B04000F05C
:102B780027B880B50122EFF3108182F3108841F65F
:102B88001872C2F2000232F810308BB94EF2FE3CD5
:102B980047F68843C4F2010CC0F20003BCF800E019
:102BA80033F8103043EA0E0343F42543ACF8003001
:102BB80032F81030013322F8103081F3108880BDCC
:102BC8000122EFF3108182F3108841F61872C2F2E5
:102BD800000232F8103023B132F81030013B22F8ED
:102BE800103032F810208AB94EF2FE3CC4F2010CC3
:102BF80047F68842BCF80030C0F2000232F81000F4
:102C080043F4254222EA0000ACF8000081F3108862
:102C1800704741F22062C2F20002126801FB00F024
:102C280041F20021C0F27A018A420FD340F6FF0137
:102C3800C0F23D0111444DF68362C4F21B32A1FB80
:102C48000212110DA0FB0101E9B11FE04CF60021B1
:102C5800C3F69A3148F63813C0F24103B1FBF2F1DA
:102C6800984207D24FF47A7200FB02F0B0FBF1F001
:102C7800800808E08900B0FBF1F0984206D24FF4D2
:102C88007A7100FB01F028B101F0EBB94FF0FF3089
:102C980001F0E7B970477047022818BF704741F63E
:102CA800007047F68831C2F20000C0F2000100F05F
:102CB8004FBB00002DE9F04F81B0834608688A4673
:102CC8000090D1E902010027DAF81090C4F20B074E
:102CD8000022CBF81C100121CBE9007ACBE90502D0
:102CE800D9F81C80EFF3108081F3108844F20801B2
:102CF800C4F208010A684EF2034C22F000620A602E
:102D0800096880F310884EF20016D7F88C0046F256
:102D1800003542F25C14CEF2000CCEF20006C00779
:102D2800C4F20005C2F2000455D06446D7F88C00FE
:102D38000007FBD45846812102F05CF9D8F804005A
:102D480041F21431C7F884004FF48030C7F89C0072
:102D58000120C4F20B010860D8F82800C7F8AC00BD
:102D6800002000BF08EB800107EB80028968013072
:102D78000828C2F8C010F5D198F82D00A446000123
:102D8800607042F25C140020C2F2000446F2003582
:102D98002061C4F2000529694EF2001621F4803141
:102DA800296129691021CEF20006BFF35F8FC6F8AA
:102DB80080113160D8F80010C7F8881008F1300188
:102DC80051F8202007EB8003013022F00102062889
:102DD800C3F82021F4D198F82C00A04600018CF803
:102DE8000000C4F80CB0E86820F48030E860E868B7
:102DF8000820BFF35F8FC6F88001306042F254109C
:102E0800009CC2F2000040F824B04FF48070012CFE
:102E1800C7F8980021D0D9F80010C7F89800D1F861
:102E280000C04A688B68C96841F60C00C4F20B0000
:102E3800016041F6080041F60401C4F20B00C4F237
:102E48000B0103600A6041F60001C4F20B01C1F8EE
:102E580000C0016864F3C71101600020C7F898003A
:102E68005846012102F0C6F8DAF804004EF20016BE
:102E780090E80E00C06801396FF39F2141EA424192
:102E88005A1EA1F5003141EA42614FF60042CFF6E1
:102E9800FF7202EB802046F200350843210178508A
:102EA800D9F81400CEF2000690E80E00C068013987
:102EB800C9B241EA02210022CFF6FF7202EB0342B7
:102EC800A1F580711143013841EA006041F21431E3
:102ED800C4F20B0101EB4411C4F20005C1F8EC0087
:102EE800D9F814004068FF2828BFFF2099F8182057
:102EF800000440EA422040F201421043C1F8F000C9
:102F0800D9E9021207EBC400C0F8501FC0F8542FCB
:102F1800D9F8100007EB041140F003004860DAF814
:102F2800180000281DD49AF814103218090182F8E4
:102F3800001348F820B055F82010012321F48031FF
:102F480045F8201055F8201000F01F01400906EB45
:102F5800800203FA01F1BFF35F8FC2F8801146F8CF
:102F68002010DAF8200000281DD49AF8141032181E
:102F7800090182F8001348F820B055F8201000F035
:102F88001F0221F4803145F8201055F82010012344
:102F9800400903FA02F206EB8003BFF35F8FC3F820
:102FA800802146F82020DAF81C0000281DD49AF861
:102FB80014103218090182F8001348F820B055F8A7
:102FC8002010012221F4803145F8201055F82010F6
:102FD80000F01F01400906EB800302FA01F1BFF37C
:102FE8005F8FC3F8801146F820105846802102F000
:102FF80001F858460021002501F0FCFF44F2446026
:10300800C5F24320CBE902050020CBF8105001B0EF
:10301800BDE8F08F10B59368D2E900E4D0F804C099
:103028004EEA8373DCF800C043EAC47E272916D928
:103038000CEB4C0304680B44A3F1280C04EBCC13F1
:103048004FF4C84443F804E0137B092B27D3182B0B
:1030580022D803F57E73082404EB93031FE041EAAA
:103068008C1C036803EB0C0494F8D047240744BF76
:103078004EF6632010BD03EBCC134FF4803443F8B5
:1030880004E0137B092B28D3182B23D803F57E7370
:10309800082404EB930320E00B2404EB13130468C7
:1030A8004FEA037E04EBCC1446F2044344F803E0F1
:1030B8000468136904EBCC1403F0070E46F20843C6
:1030C80044F803E0036846F20C4403EBCC1303EB2B
:1030D800040E1DE00B2404EB131304681B0704EB18
:1030E800CC1E0424C0F201044EF8043003681469AD
:1030F80003EBCC1E082304F00704C0F201034EF8CA
:103108000340036803EBCC1303F5803303F10C0E83
:10311800137B3BB1143200BF12F8014B013B0EF890
:10312800014BF9D10068272905D900EB8C00FF2154
:10313800C0F8401203E06044012180F8D01200205A
:1031480010BD062070470146406846F20032C4F2BE
:10315800000252F8203023F0807342F8203040F209
:103168000002C2F20002002342F8203000200B6067
:103178007047416846F20032C4F2000252F821005A
:1031880020F08073002042F821307047416846F2F1
:103198000032C4F2000252F8210040F0807300208F
:1031A80042F821307047406840F20002C2F2000243
:1031B80052F820000022C1E90022C278402A05D234
:1031C8004FF480328A60C089C8600FE04FF4807283
:1031D8008A60C289D2B2CA60C27802F0C002802A6C
:1031E80004D14FF480320A6080894860002070471B
:1031F800F0B581B042F29862C2F20002137840F250
:1032080000060D460446C2F20006D3B9012744F26F
:1032180000011770EFF3108087F31088C4F20801DB
:103228000A6822F480020A60096880F31088304630
:103238006421FDF727F845F20C40C4F200008660CF
:10324800077068680068002804D456F8201019B17F
:1032580008200DE00B200BE02968606011B12046C2
:1032680001F05EFF44F20030C4F2544020600020B8
:1032780001B0F0BDB0B50446406846F20035C4F26E
:10328800000555F8202022F0807245F8202060685B
:1032980045F20E4240F40040C4F2000213889842FE
:1032A800FCD0204601F03CFF616855F8210040F051
:1032B8008072002045F82120B0BD0620704700002C
:1032C80010B582B001910092416840F2000246F2C6
:1032D800003CC2F20002C4F2000C52F821E05CF893
:1032E800212022F080724CF82120426845F20E41DC
:1032F800C4F2000142F400420C88A242FCD0082229
:103308008A70019A12B1019ACEF80420009A12B17B
:10331800009ACEF808209EF8032002F0C004802C02
:1033280002D1AEF80C3003E03F2A98BFAEF80E3059
:1033380018228A7041685CF8210040F080720020F1
:103348004CF8212002B010BD0620704706207047B7
:1033580080B545F25422C5F24F020260084601F0DA
:1033680001FF002080BD0000B0B50D468907044666
:1033780001D406201DE0206A817801F07B0181706C
:10338800E069406B20B1816800680969884700E0FE
:103398000020217849B1216A8A8A42F004028A828F
:1033A800216A00BF8A8A5207FCD400212161B0B982
:1033B8000020E90713D0E069016B0020A06119B172
:1033C8008A68086811698847217841B1216A8A8A20
:1033D80042F002028A82216A8A8A9207FCD4B0BD2E
:1033E8002DE9F04381B00A780D460121914011F092
:1033F800060F044605D0286CC0680078000700F165
:10340800C28048F20000C4F2110040EA0220002203
:10341800206240F2F930084018BF0120E561000140
:103428002070D5E90E01A2626062A078E16220F006
:103438000300411CA170696811B940F00200A07036
:10344800EE6A4EF2001806F01F014FF0010CCEF2A2
:1034580000080CFA01F308F18001770995F8282093
:1034680041F82730BFF34F8F46F20039C4F2000904
:10347800BFF36F8F59F82630170123F4803349F8CA
:10348800263008F5407259F8263097556F6942F290
:103498005C1E07F01F00C2F2000E0CFA00F07B0958
:1034A8004EF826402E7C41F82300BFF34F8FBFF320
:1034B8006F8F59F82700330120F4803049F827002E
:1034C80059F82700D355E8694EF8274000F01F0641
:1034D8000CFA06F647092B7E41F82760BFF34F8F99
:1034E800BFF36F8F59F820601B0126F4803649F826
:1034F800206059F8206013544EF82040686A95F807
:10350800203000F01F060CFA06F7460941F826702D
:10351800BFF34F8FBFF36F8F59F820101B0121F4B1
:10352800803149F8201059F8201013544EF82040E3
:10353800286B78B1406802684FF4002042F8040B09
:10354800206A296B431D204601F08CFE06460028A0
:1035580040F01C81686BC0B1406802684FF00060A1
:1035680042F8080B206A696BC31C204601F07AFEFA
:1035780058B10646286B002800F008818168006869
:10358800096A884702E1032600E10120EFF3108170
:1035980080F3108844F204072A78C4F208074FF031
:1035A80000433E6823FA02F226EA02023A603A68C9
:1035B80081F310880022216A8A70216A0A71216ABF
:1035C8004A72216A8A72216ACA72216A4A832978F0
:1035D800884040F2F931084202D0206A4021C17483
:1035E800206A062101772078C8B1E269116B0029A9
:1035F8004FF0010105D1126C431E12691A4062F3A3
:103608000B21013800F00F0041EA0030216A40F038
:1036180006028A82216A00BF8A8A9042FCD1D5E9D3
:103628000112E8684FEAC00040EA021029B10329F4
:1036380008BF40F04000F22100E0E221226A0027A2
:103648001070206A02228171286C816902EA4102A5
:103658000829216A08BF0A224A73236AD0E901129D
:103668001F720368C90123F00103C9B2022B62F378
:1036780045110AD1226AFF23537000680228206A84
:1036880008BF41F01001C17117E0226AD171C0680A
:10369800216A82784A7042780B7802F0030203F0BC
:1036A800FC031A440A70C2788A74CA79007802F056
:1036B800A30200F05C001044C8710026E169C4E967
:1036C8000366C4E90566286C4F69017859F8272014
:1036D80007F01F0322F4803249F8272059F82720E1
:1036E800012202FA03F508F5C0737F09BFF35F8F63
:1036F80043F8275048F82750E769FF6A59F82750D8
:1037080025F4803549F8275059F8275007F01F0548
:1037180002FA05F57F09BFF35F8F43F8275048F891
:103728002750E769FF6959F8275025F4803549F88B
:10373800275059F8275007F01F0502FA05F57F09A9
:10374800BFF35F8F43F8275048F82750E7697F6A2F
:1037580059F8275025F4803549F8275059F827504B
:1037680007F01F05AA407F09BFF35F8F43F82720A2
:1037780048F827201C22236A62F39F019970406948
:1037880044F65511C5F24331C4E90110304601B081
:10379800BDE8F08370B50446C0691546006B0E4657
:1037A80078B1A178826801F00301013925FA01F1A5
:1037B8000068D2F808C08BB200213246E04700B159
:1037C80070BD0020C4E9056570BD70B50446006A87
:1037D8000E46837803F07B038370207808B1314666
:1037E80004E0A07800F00300121A3118E069C4E977
:1037F8000312406B88B182B1A3784FF0000C03F03C
:103808000303013BDA40836800689D6893B2002295
:10381800C4F810C0A84700B170BD206A817841F093
:1038280080018170207868B9A07800F00300022830
:1038380005D13088216A40F47E40C88102E03078A2
:10384800216AC870002070BD00F02EF900F036FF24
:10385800FEE700001EF0040F0CBFEFF30880EFF343
:103868000980014908470000255D000080B582B045
:1038780007288DED010A0CD841F20062C2F200025D
:10388800136833B141EAC01101AA18460423FCF7B2
:10389800E3FD02B080BD80B582B0072801920CD844
:1038A80041F20062C2F20002136833B141EAC0116A
:1038B80001AA18460423FCF7CFFD02B080BD70B5FD
:1038C8004FF0000430B342F2BC76C2F2000605465F
:1038D800307801281ED801208821FCF700FDC0B1EE
:1038E800044643F62110C0F20000E860112029695F
:1038F80028702846C4F8841000F0B7F931782060A1
:10390800481C307042F2C470C2F2000040F82140F6
:1039180000E00024204670BD70B52DED028B42F208
:10392800BC74C2F200042078A8B39FED1C8A42F24E
:10393800C4760025C2F2000656F8251039B3086887
:1039480028B3D1F8842012B30178AA2916D1417876
:10395800552913D1C17B0D2910D1017C0A290DD11C
:10396800C11C0B68D1F804C08968807800EE103A51
:1039780000EE90CA01EE101A002107E00020B0EE18
:10398800480AF0EE480AB0EE481A0121904720781C
:1039980001358542D0D3BDEC028B70BD000000001C
:1039A80048B341B32DE9F041076804460FB3154603
:1039B8000C2A28BF0C254FEA8508261D30464246AA
:1039C800FCF747FC4FF0FF4046F8250097F8100138
:1039D80078B9012087F8100108F10401D7F804012B
:1039E800CAB23146FFF7F1FE18B12068002180F80D
:1039F8001011BDE8F0417047B0B50546007A0024C3
:103A080060B1A879AA8855F8203008461946FCF70D
:103A180020FC287AAC710138012428722046B0BDF8
:103A280070B50E46FFF73AF8054601201021FCF75D
:103A380056FC04468680304603F080FE206055F828
:103A4800240F28B10146C0680028FBD101F10C05FC
:103A580020462C6070BD10B51020EFF3118480F360
:103A6800118803F039F830B14EF60450CEF2000058
:103A78004FF08051016084F3118810BD4EF2200090
:103A8800C4F201008179006841F2C052C2F200021A
:103A9800C0F3026052F8211021FA00F041F22061CF
:103AA800C2F200010860704710B54EF60850CEF219
:103AB80000004FF47001C0F8801040F20001C0F21D
:103AC8000001016000200024FFF7E6F800F0A4F9E7
:103AD8000120FFF7E1F841F2C010C2F2000080F3C4
:103AE8000A88002000F032F8FFF7C8FFFFF704F853
:103AF8000320FFF73EF840F61050C4F208004FF6D6
:103B0800FF7100BF20F8141001340C2CFAD10320E7
:103B1800FFF756F80320FFF72CF80420C4F20E0034
:103B28000021016041608160C1600320FFF748F80F
:103B38000220FFF7B1F8012000F008F800F04CFA75
:103B48000020BDE8104000F045BA0000F0B581B093
:103B580047F60C45C0F200052E68044676B1686841
:103B6800071D00BF7879844204D157E90101091A79
:103B7800FCF788FB013E07F10C07F3D1AE6886B16C
:103B8800E86800F1080500BF6879844205D155E965
:103B980002022968121AFCF75CFB013E05F11005C8
:103BA800F2D101B0F0BD0000B0B542F20431C2F26A
:103BB8000001097881B10546006842F6CC32C2F2AC
:103BC800000200BF1468D4F808311B78984204D06A
:103BD800013902F10402F5D1B0BD68680F2806DD8D
:103BE800102818BF402806D0202804D01DE001283E
:103BF8000FD0082819D1D4F804010121FFF7B4FB2C
:103C0800D4F8040194F800212146BDE8B040FFF73C
:103C1800C1BDD4F80C0100B18047D4F8040194F870
:103C280000212146FFF7B6FD6868022819D004284C
:103C3800D2D1A868B4F81213B4F8142301316FF381
:103C48005F21914204D0B4F81223224482F8110172
:103C5800A4F81213D4F80C010028BDD0BDE8B04078
:103C68000047002084F81001B0BDF0B581B042F2E1
:103C78000436C2F200063778032F21D80546012002
:103C88004FF44671FCF72BFBD0B12A1D044607CA36
:103C9800C4F80C217A1C2B78327042F6CC32C2F26E
:103CA8000002C4E9410184F8003142F82740FFF7D7
:103CB80097FB48B1204603F06FF93078013830702F
:103CC8000024204601B0F0BDD4F8040194F8002186
:103CD8002146FFF75FFDF4E778B110B50446D0F848
:103CE80004010121FFF740FBD4F8040194F80021F6
:103CF8002146BDE81040FFF74DBD704780B588B03C
:103D0800CDE9050141F25920C0F200001B220790BD
:103D180004A88DF81020FFF7A8FF0EA2D2E9012110
:103D280042F20033DFF82CC0C2F20003186001A889
:103D3800CDE901C20391FCF79CFC42F2D81201467E
:103D480042F2E420C2F20002C2F20000116008B0A0
:103D580080BD00BF320000003D12000000000000DE
:103D680042F20032C2F20002136823B10A46014649
:103D780093F8100100B17047012083F81001D3F8BF
:103D88000401FFF722BD000041F66C21C2F20001D8
:103D980091ED2E0A9FED1C1A43F2B80091ED3B2AD3
:103DA80030EE010A9FED191A5A22C2F20000027081
:103DB80010EE102A32EE010AD1F88430C0F805203E
:103DC80010EE102AC0F80130D1F82031C0F80920CF
:103DD800D1F85421C0F80D30D1F88831C0F811203D
:103DE8009822C0F8153000BF8B5C2BB13432B2F585
:103DF800E87FF9D1012100E0002141764FF6FB72FE
:103E08001C214283FFF7ACBF000096C20000B4C279
:103E180000BE00BFFEE700002DE9F0414EF2FE347F
:103E2800C4F201044AF203504CF200162080C4F296
:103E380001060120B08000BFB0880028FCD147F2FD
:103E480000010120C4F2000130808860086041F25E
:103E5800C05742F6005041F20022C2F20007C0F2F9
:103E68003110C0F27A02C7E9000243F200604FF451
:103E78000041C0F26E10C7E902104CF2002039610F
:103E880041F60041C0F6EB30C0F64E614EF2200517
:103E98007861C4F20105B961A879296857F820004A
:103EA800C1F3026141F22068C840C2F20008C8F8B4
:103EB800000000206075092085F8820094F88200CF
:103EC80020B994F88300800700F07F8094F882007E
:103ED80050B9012084F88200C8200121FEF799FE1C
:103EE80094F882000128FBD1002084F8830084F82C
:103EF80082000020A87400BF287F0007FCD542F28A
:103F080001702885002043F2021185F82A002981D2
:103F1800A87200BF287F8006FCD50320307741F2C5
:103F28002120C2F2010028600520A871A87929681B
:103F380057F82000C1F30261F022C840C8F8000019
:103F480042F20800C4F20000F12101710121017060
:103F58000271297485F8321095F8540040F0400039
:103F680085F8540095F95400B0F1FF3FFADC0620BB
:103F7800462185F84C0085F8541085F8540000BF98
:103F880095F954000028FBD495F8560040F04000FD
:103F980085F8560095F95600B0F1FF3FFADC03208A
:103FA80085F84E00C62085F8560095F8560000F0B2
:103FB800BF0085F8560000BF95F956000028FBD4CD
:103FC8004FF425402080BDE8F0814FF47A70FEF769
:103FD80062FE8EE77047000070B584B048F248066C
:103FE8000320C4F20006FEF7C4FD6FF0FF0047F699
:103FF800244430604FF0FF300021C0F20004012259
:10400800CDE9020054F8213002FA01F5002B18BF5F
:10401800A84301311929F5D14EF2803201900020D0
:1040280001A9CEF2000200BF51F8203006EB80054E
:10403800AB6242F8203001300328F5D10320FEF7A7
:10404800BFFD46F200310020C4F2000154F82020E0
:104058000AB141F820200130192804BF04B070BD0E
:10406800F4E701380028FCD1704700002DE9F04F33
:1040780081B00446008800285AD043F240084EF226
:10408800BB4B0025C4F208080FF2AC0AC4F2010BBE
:104098004FF00109002700BF60685AF8272000EB9D
:1040A800C500416891423CD100689BF8001000F0BF
:1040B800B85009FA07F6B0F1807F06EA010015D179
:1040C80050B90120FEF755FD9BF8000030438BF8EE
:1040D80000000120FEF774FD18F91700002820D40D
:1040E80018F8170040F0800015E000BF50B101201B
:1040F800FEF73FFD9BF80000B0438BF8000001205D
:10410800FEF75EFD18F91700B0F1FF3F09DC18F85B
:10411800170000F07F0008F81700C8200121FEF7FB
:1041280078FD0137032FB7D1208801358542B1D3F7
:1041380001B0BDE8F08F00BF0204000003040000D6
:104148000404000010B54168B1F5806F18BF10BDB8
:1041580041F26461C2F200010C68416990F82020C4
:1041680004F10803616100F1280118462274082A45
:1041780028BF0822FCF76DF8616F19B12046BDE829
:104188001040084710BD00002DE9F04FB7B0EFF31D
:1041980003806FF35F20A0F1100142F25C10C2F2BD
:1041A800000050F821700091786839680468006947
:1041B80001F59855CDE90204F8690790285D0028B3
:1041C80078D024F0004808EB4800072101FA00F0F5
:1041D80001904FEA841A0DF10C090DF1740B204679
:1041E8002A5DD1074FEA400108D13868120727D461
:1041F80000F56B624FF4007305E000BF38684FF4B8
:10420800006300F56162049352F8213093FAA3F336
:10421800B3FA83F3082B08D302EB8101496891FABA
:10422800A1F1B1FA81F101F1200303EB0A0108447D
:1042380090F8D01701F0F90180F8D0171EE000BF00
:10424800029AD26902EB8101096BC9044FF400613B
:1042580058BF4FF400510491D0F8B412019A11409C
:1042680091FAA1F1B1FA81F100EB810001F1280383
:10427800D0F8E02122F01002C0F8E021BE690693D0
:1042880056B1584631466822FBF7E3FF30464946A7
:104298006822FBF7DEFF00E04E4679693046884722
:1042A800B86918B159466822FBF7D3FF285D002882
:1042B800404695D146F20030009AC4F2000050F80A
:1042C800221021F4803140F8221050F8220037B033
:1042D800BDE8F08F2DE9F04FB7B0EFF303804FF44E
:1042E80080636FF35F20A0F1100142F25C10C2F20C
:1042F800000050F821700191D7E900010968D0F851
:10430800B022CDE9031302F03F0292FAA2F2B2FA08
:1043180082F202F01F06032E88BF02F0030242F069
:10432800280106914FF48071D0F8A02201FA06F90D
:1043380012EA090F029633D10DF10C0806F1280490
:1043480008F114060DF1740A2146324600F002FE07
:10435800039842F25411C2F2000151F820B0DBE98F
:104368000650079055B1504629466822FBF771FF61
:10437800284641466822FBF76CFF00E04546DBF81B
:10438800141028468847DBF8180018B151466822EF
:10439800FBF75FFF3868D0F8A01211EA090FD3D0F5
:1043A800029900EB8100D0F8E01121F00801C0F873
:1043B800E0113868D0F8B00260B946F20030019ACE
:1043C800C4F2000050F8221021F4803140F8221085
:1043D80050F8220037B0BDE8F08FF0B5B5B0EFF374
:1043E80003806FF35F20A0F11005032D33D142F253
:1043F8005410C2F20000066801A80C305C21FBF7DB
:1044080041FF4FF48050029031684FF07040D1F86E
:10441800902000EA023000EB0240920703904FF030
:104428000000C1F890000FD53168D1F8A82292FA9F
:10443800A2F2B2FA82F201EB82010492D1F8E020F2
:1044480022F00402C1F8E020D6E906410190059166
:1044580004BB01AC2AE042F25C10C2F2000001AFDA
:1044680050F8256007F114005421FBF70BFF4FF4B7
:1044780080700290D6E90001096800EB0110C2685B
:1044880092B203920022C260D6E9064001910492DA
:10449800059054B11BA821466822FBF7DAFE01A952
:1044A80020466822FBF7D5FE00E03C4671692046AD
:1044B8008847B06918B11BA96822FBF7CAFE46F203
:1044C8000030C4F2000050F8251021F4803140F883
:1044D800251050F8250035B0F0BD00002DE9F04F4B
:1044E800B5B040F2000BC4F20B0BDBF8AC0290FA4B
:1044F800A0F0B0FA80F2072A53D84FF4806042F057
:104508002005029004950120DBF8A01200FA02F4BD
:10451800214200923CD1009846F208010BEBC010F2
:104528000DF16C0900EB010A01A800F1140700BFA6
:10453800DAF800002946C0F301203A4601905846AF
:1045480000F008FD019842F25411C2F2000151F83E
:104558002080D8E90660059056B148463146682261
:10456800FBF777FE304601A96822FBF772FE00E0F0
:1045780001AED8F8141030468847D8F8180018B19A
:1045880049466822FBF765FEDBF8A0022042CFD03F
:1045980000980BEB8000D0F8E01021F00801C0F87B
:1045A800E010DBF8AC0240B946F21030C4F200006B
:1045B800016821F480310160006835B0BDE8F08FF2
:1045C80080B584B041F6E060C2F20000016847F6A9
:1045D80084330131016043F2E8110420C2F2000182
:1045E800CDE9000144F2456041F2C87CC0F2000008
:1045F8000CA1C0F200034FF48072C2F2000CCDF897
:1046080008C002F0E1F941F2C471C2F20001086089
:1046180008B104B080BD0020002104B0BDE880408E
:1046280000F007BF4461656D6F6E5461736B0000E5
:10463800FCF740F80A2001F05FFCF9E710B50446E2
:1046480000F0C6FE2046BDE81040FFF7F1BF7047F6
:10465800FFF7FDBF4021C4F2090101F5012100283F
:1046680004BF4021C4F209014BF6FF70088070476F
:104678004021C4F2090101F50121002804BF4021AD
:10468800C4F209014FF6F770088070474021C4F260
:10469800090101F50121002804BF4021C4F20901E4
:1046A80008887047012818BF704741F20210C4F209
:1046B8001100018841F480410180704780B541F6BE
:1046C800E060C2F200000021016041F69060C2F291
:1046D800000041F6986201704FF48070C2F2000247
:1046E800012101F06DFD41F69461C2F200010860FC
:1046F80018B90020002100F09CFE00F01DF8FFF71B
:104708005FFF00F01BFE01F089FC002080BD80FEE9
:10471800200A80FE410A30EE600A32EE613A31EE3C
:10472800601A23EE000A80EE010A31EE800A80FE4C
:10473800210A80FE420A704780B584B041F6E060E5
:10474800C2F20000016847F67C530131016043F270
:10475800E8510120C2F20001CDE9000144F2C57020
:1047680042F2B84CC0F200000CA1C0F200034FF4B2
:104778008062C2F2000CCDF808C002F025F942F2BE
:10478800B441C2F20001086008B104B080BD002045
:10479800002104B0BDE8804000F04BBE4D6F746F3F
:1047A800724374726C5461736B000000FCF718F963
:1047B800FCF772F9052001F09FFBF9E710B50446F4
:1047C80000F006FE2046BDE81040FFF7EFBF2DE9D8
:1047D800F04381B00E4643F2D411C2F200010D68D5
:1047E80042F22461C2F20001D1F8008042F22C6149
:1047F80042F21C64C2F20001C2F20004D1F8009037
:1048080021680746081D01F038F9781C16D1AEB1A9
:1048180043F2AC10C2F20000D0E900122368013163
:104828009A6093682768FB60276804375F6023688D
:104838000433936022680160506117E02068ED1925
:104848004560206800F1040105D3484601B0BDE881
:10485800F04301F05DB9404601F05AF943F22C10DB
:10486800C2F2000001688D4238BF056001B0BDE8A2
:10487800F08300002DE9F047044601F066F942F69E
:10488800E030C2F20000016842F21C6701310160A9
:10489800C2F20007396843F2A01A42F23466C2F243
:1048A800000AC2F2000651B1DAF8000000283DD132
:1048B8003868E16AC06A884298BF3C6036E03C606C
:1048C8000068012832D10025701901F012F9143559
:1048D800642DF9D143F2FC08C2F20008404601F009
:1048E80008F943F21019C2F20009484601F001F92B
:1048F80043F23C10C2F2000001F0FBF843F2C01092
:10490800C2F2000001F0F5F843F2AC10C2F2000068
:1049180001F0EFF842F22460C2F20000C0F8008013
:1049280042F22C60C2F20000C0F8009042F6EC306F
:10493800C2F200000168231D0131016042F6F03126
:10494800C2F20001E06A0A68904288BF086000EB82
:10495800800006EB80014A6861619568C4E9022518
:10496800936056F820206B60511C46F8201001F027
:1049780013F9DAF8000078B13868E16AC06A884249
:104988000AD24EF60450CEF200004FF0805101607A
:10499800BFF34F8FBFF36F8FBDE8F08770B582B05C
:1049A80001F0D3F843F2D816C2F20006306850BBC3
:1049B80043F2D404C2F20004204601F09AF843F20C
:1049C800E805C2F20005284601F093F842F220609B
:1049D800C2F20000046042F23060C2F2000042F20B
:1049E800585242F2D053056000250A20C2F2000254
:1049F8000C21C2F20003009501F002FC306010B1F6
:104A080003A101F027FA02B0BDE8704001F0C4B874
:104A1800546D725100000000F0B581B042F6E435E3
:104A2800C2F200052868E0B143F2C01642F6E0374A
:104A3800C2F20006C2F2000701F087F8F068C46805
:104A4800201D01F01AF838680138386028680138E4
:104A5800286001F0A1F8204600F036F82868002800
:104A6800EAD101B0F0BD70B5866B036C044643B360
:104A78001546CAB1E0681A46FBF7EBFBE168206C03
:104A88002268091A9142E16003D2A16840420844B1
:104A9800E060A81EB0FA80F040093146002E18BF29
:104AA80001210840361A0CE060681A46FBF7D1FB72
:104AB800D4E90101226C10448842606001D3206867
:104AC8006060701CA06370BD10B5044690F85D006E
:104AD800022808BF10BD012803D038B9206B01F0A7
:104AE80081F82046BDE8104001F07CB848F29551A5
:104AF80003A0C0F2000141F62E12FFF789F900BFAA
:104B080070785443422D3E756353746174696361D0
:104B18006C6C79416C6C6F6361746564203D3D20F9
:104B28002820282075696E74385F74202920322067
:104B38002900000042F234644EF60455C2F2000423
:104B4800CEF200054FF08056FFF766FF2068022876
:104B580004D32E60BFF34F8FBFF36F8F00F0BDFFFC
:104B6800F2E700002DE9F0470A9F8246089C386B5F
:104B7800984669B107F13403002600BF8D5D9D5545
:104B88001DB10F2E06F10106F8D1002187F8431058
:104B9800052C21D200EB8200DDF82490043820F0A7
:104BA8000706381DFC6200F0AFFF07F1180000F09F
:104BB800ABFFC4F10500396BB86130465246434635
:104BC8003F617F6200F0B1F9B9F1000F386018BF9A
:104BD800C9F80070BDE8F08748F2955103A0C0F20B
:104BE800000140F26472FFF713F900BF7578507244
:104BF800696F72697479203C20283529000000000B
:104C08008C46014641F804CF9445006108D942F228
:104C180020609A42C2F200000AD29C450ED207E0F8
:104C28008069D21A824209D242F23060C2F2000090
:104C380080B5006800F06CFF002080BD012070473F
:104C480070B542F22062C2F2000212680646D268CB
:104C58000D46D468201D00F010FF94F82400410789
:104C680004D400F0FA0084F8240004E02046314619
:104C78002A4600F005F8216A2046BDE8704008473A
:104C880070B50546806914460E460144284600BFA3
:104C98003346FFF7B5FF48B1A869296A0644284694
:104CA8008847A869224681192846F1E770BD0000A7
:104CB800F0B581B0044601F009FF42F21866C2F26D
:104CC80000063168054688420ED242F22067C2F2D9
:104CD800000700BF3868016841B1C0684FF0FF3174
:104CE8000068FFF7ADFFF5E7002007E042F230610A
:104CF800C2F200010A68086001203A602060284674
:104D0800356001B0F0BD000000BE00BFFEE7000046
:104D180084B042F2206843F2D815C2F2000801AC10
:104D2800C2F200054FF00009EB4600BFD8F80000BA
:104D3800D0F800A0BAF1000F1ABFC06806680026B4
:104D480001F0CAF92046FFF7B3FF019911B102F04B
:104D580005F82DE00746BAF1000F08D0BE4206D884
:104D680001F0FCFF30463946FFF76AFF20E0BAF150
:104D7800000F01D0002208E042F23060C2F20000C9
:104D880000680068B0FA80F042092868F11B01F059
:104D980090F801F0E3FF58B94EF604514FF08050F7
:104DA800CEF200010860BFF34F8FBFF36F8F00BFD3
:104DB8002868CDE90299CDF8049000BF2146002269
:104DC80001F02CFC0028B1D0019800284CD4039E97
:104DD800706910B1301D00F050FE5846FFF768FFAB
:104DE8000199013908293FD80746DFE801F0050590
:104DF8002C1C3F05052C1C0096F82400029BB16969
:104E080040F0010086F82400194430463A46FFF77E
:104E1800F7FE48B396F8240041071BD400F0FA00C7
:104E280086F824001DE096F8240040F0010102985D
:104E380086F82410B06108B3C11930463A463B469B
:104E4800FFF7DEFE10E096F8240000F0FE0086F87A
:104E5800240009E00298B1693A4601443046FFF758
:104E68000FFF316A304688472868A7E796F824007C
:104E78008107EAD4304600F0B5FEF5E748F218613C
:104E880003A0C0F200014FF48262FEF7C1FF00BF29
:104E98002820707854696D65722D3E7854696D6567
:104EA80072506572696F64496E5469636B73203E12
:104EB8002030202900000000F0B581B0044600F041
:104EC80044FE94F94560012E0EDB04F1240500BF71
:104ED800286848B1284601F0C8FE08B101F044F836
:104EE80070B2013E0128F3DCFF2684F8456000F02B
:104EF80053FE00F02AFE94F94470012F0EDB04F1F2
:104F0800100500BF286848B1284601F0AEFE08B178
:104F180001F02AF878B2013F0128F3DC84F84460F4
:104F280001B0BDE8F04000F037BE283140F8481D18
:104F380044F61151C0F200014FF0807C22F00102CA
:104F4800C1636FF002010264C0F844C0C0E90913EC
:104F5800704700001F2904D800EBC11303F5005C5B
:104F680004E000EBC113282903F5A04C80B5DCF858
:104F780000E0CEF380739360DCF8083003F0070399
:104F880013612EF0604313604FEADE735360DCF860
:104F980004305FEA137E13A313F80EE082F80CE0E6
:104FA80009D00CF10C03143213F801CBBEF1010E39
:104FB80002F801CBF8D11F29BDE8804006D80122AC
:104FC80002FA01F1C943C0F8B010704700EB810044
:104FD80028294FF0FF012CBFC0F8A011C0F880109D
:104FE800704700BF0001020304050607080C1014EF
:104FF8001820304070B5D0E90042802901F00F0335
:10500800D2F800C043D204EB0C14C90754F804EFDB
:1050180002D11EF0040504D1052B08BF1EF00105BE
:1050280009D12568012666F302052560656805F043
:105038000705012DFAD1256825F007051D432560D0
:10504800656805F007059D42FAD1002960D11EF078
:1050580003015DD011690CEB4C02C9694FF49073E0
:1050680001EB820603EB820106F13002002300BF48
:10507800066852F823500E4456F8234005F00105FF
:10508800254346F823500133032BF1D140E0D4F8EF
:1050980088205FEAC17E02F0010118D0B9B9302436
:1050A800026852F8245025F0010542F824500134D2
:1050B800382CF5D1482400BF026852F8245025F056
:1050C800010542F8245001344E2CF5D10468D4F877
:1050D800882022F007021A43C4F88820D4F88C20CC
:1050E80002F007029A42F9D1BEF1000F10D179B14E
:1050F800416800220969C969083100BF036851F88D
:10510800225003EB82030132082AC3F8C050F5D1BC
:10511800016801EB0C11496801F00701C16070BD1D
:1051280001F10E0212F80B3C402B06D3B2F800C076
:105138005FFA8CF343EA0C23138012F80C3C10320C
:105148003F2BEFD845F21042C4F200020823137037
:10515800406840F20003C2F2000343F82010182010
:105168001070704770B50446FEF780FF41F6247C46
:10517800EFF31080012181F31088C2F2000CDCF8F3
:10518800001039B940F60351C4F2080100220A7030
:1051980040220A70DCF800100131CCF8001080F3CE
:1051A8001088208818B340F6000E0021C4F2080EBB
:1051B800606800EBC10250F831305268DD034FEAF5
:1051C8001220D2B20BD50EEB801555F8226026F4CA
:1051D800803645F8226023F4803645F822600EEBCD
:1051E8008010013140F8223020888142E0D301202C
:1051F800EFF3108180F31088DCF8000020B1DCF8B0
:1052080000000138CCF80000DCF8000038B940F69E
:105218000350C4F20800002202708022027081F359
:10522800108870BDB0B584B00446806A40B1D0E93A
:1052380000CED0E90253CDE900CECDE9025300E01B
:105248006846E369D4F824C01B78E56AC0E90032EF
:10525800C0E90215E047A06A10B19DE82E002EC0F3
:1052680004B0B0BD10B5D1F804C00478DCF800E093
:10527800136014B103F10C041460C069406858B994
:105288009EF8030000F0CF0010308EF80300D1F82C
:1052980004C003F10B0010608A6808681268614650
:1052A800BDE8104010470000074801680A6802CAB4
:1052B80081F30B88B2E8F04F1EF0100F08BFB2EC74
:1052C800108A82F3098870471C26002088B14EF2A4
:1052D8000C00C4F20100B0F90010B1F1FF3F09DD84
:1052E800BFF34F8F30BFBFF36F8F62B6BFF36F8FBF
:1052F80072B6704780B54EF2FE32C4F20102B2F8BF
:1053080000E04AF2025CCFF6FF7C0023A2F800C05E
:1053180003804EF425431380BFF34F8F30BFBFF394
:105328006F8F62B6BFF36F8F72B61388A2F800C092
:10533800018043F42540108080BD000080B584B012
:1053480041F6E060C2F20000016847F630630131BF
:10535800016044F2E8510120C2F20001CDE90001E8
:1053680045F2C53042F2A06CC0F200000CA1C0F2B8
:1053780000034FF48062C2F2000CCDF808C001F0BF
:1053880023FB42F29C61C2F20001086008B104B03C
:1053980080BD0020002104B0BDE8804000F049B87D
:1053A800526F626F745461736B000000FBF7A2F9CF
:1053B800FBF700FA052000F09FFDF9E710B5044659
:1053C80000F006F82046BDE81040FFF7EFBF0000E8
:1053D800B0B541F69464C2F2000420684FF0FF3182
:1053E80001F0EAF9012803D02068002100F021F833
:1053F80041F69060C2F20000017801B1B0BD012110
:105408000170FFF725F941F6E065C2F2000500BF1B
:10541800286801382860F1D0206800210022002384
:1054280000F0A8FF0128F3D02068002100F001F85F
:10543800EEE700BE7047B0B5EFF303806FF35F206F
:10544800A0F1100542F25C10C2F2000050F82500ED
:10545800017821B9817801F00301022921D1036A79
:10546800198A6FF35F211A79D40602F0380203D53E
:105478001C7FE40708BF40321C7904F0C7041C7184
:10548800436A0BB1FFF7CEFE46F20030C4F20000CB
:1054980050F8251021F4803140F8251050F82500E7
:1054A800B0BD036A5979DEE710B582B0EFF3038027
:1054B80040F2FC7101EA800046F2C021C4F200010A
:1054C800425822F48032425042F25C12C2F2000288
:1054D8004158104450F8404CE069006B78B1A0691D
:1054E80068B1616A002000296061A06140D020464F
:1054F8000021012202B0BDE81040FFF793BE2078DA
:1055080038B9A07800F00301206A022905D0417952
:1055180006E0206AC18AC90628D0018A6FF35F2194
:10552800A0690191B0B1A178606901F0030201A9F5
:10553800FAF78FFEA0786169A26900F003000144C0
:10554800101A6161A0610BD1606A48B12046002140
:10555800012203E0606A18B120460422FFF762FEC8
:10556800207828B1206AC18AC906D2D1BE2101712A
:1055780002B010BD10B5EFF303806FF35F20A0F108
:10558800100442F25C10C2F2000050F82400016AD4
:105598008A7802F07B028A70416A19B100210222DE
:1055A800FFF740FE46F20030C4F2000050F8241025
:1055B80021F4803140F8241050F8240010BD000078
:1055C80080B5EFF3038040F2FC7101EA800046F2F7
:1055D800C021C4F20001425822F48032425042F203
:1055E8005C12C2F200024158104450F8400CC169E4
:1055F800496B11B10169A1B380BD01690029F9D0D6
:105608000378002B3ED0026AD18AC1F30421994263
:1056180021D20122F2B1827802F00303C268022B80
:1056280006D11288036A42F47E42DA8103E000BFA1
:105638001278036ADA73837890F800C00269D0F8A8
:105648000CE003F003030131D21A7344614502618F
:10565800C360DFD3026A117901F07D010231117153
:10566800C8E7016A8A7802F07B0204328A70416ACC
:1056780000294FF00001C160BED08022BDE8804003
:10568800FFF7D0BD817801F00302C168022A05D175
:105698000988026A41F47E41D18102E00978026AF0
:1056A800D17081780269C36801F00301521A194464
:1056B8000261C1609EE70121FDF7ABBA80B582B0F7
:1056C800002201910092E1B140F2DC01C2F2000136
:1056D80051F8200001A900686A46002300F01EFF67
:1056E80001280ED1009850B14EF60450CEF20000B9
:1056F8004FF080510160BFF34F8FBFF36F8F0020D1
:1057080000E0FF2002B080BD10B541F62874C2F257
:105718000004218831B1FEF7C5FF6420FFF7CBFFF5
:105728000020208010BD2DE9F04F85B041F23603EE
:10573800C4F2110340F23008824603F10A0503F16E
:10574800100003F11206012AC4F2090803F1140E2D
:10575800049103920290CDE9006E05D108F5012766
:105768009C1C1A1D29460EE008F1060308F10804DE
:1057780008F10A0208F1100108F1160008F11806EC
:1057880008F11A0E47460988B0F800C0B6F800902C
:10579800BEF8006038881F8823881488DDF810B0A8
:1057A8000022B1F5807FAAF80020ABF8002044D38E
:1057B80000EA0102D64650041ED410B2B0F1FF3FF1
:1057C80024DDB2F5005F2BD2B2F5805F38D207EA4C
:1057D8000C0081B2D70543D511F0010040D00398E1
:1057E8000299012818BF08F1160140F2FE3008801E
:1057F8000120AEF800005CE00398012818BF08F10A
:1058080010056FF480402880122014E003980128C6
:1058180018BF08F1100547F6FF70288011200AE02C
:105828000398012818BF08F110056FF4804000F5AF
:10583800005028801320AEF8000005B0BDE8F08FB6
:105848000398012818BF08F110056FF4804000F58F
:10585800405028801420AEF8000004980180ECE73E
:1058680004EA060084B256050DD514F001000AD0EA
:1058780003980199012818BF08F11A0140F2FE3077
:105888000880022012E003EA090080B25FEA825C25
:1058980012D510F001030FD003980099012818BF02
:1058A80008F1180140F2FE3008800320AEF800002D
:1058B800012004990880C0E7B2F5006F16D2002FC6
:1058C80034D4049A002E3DD4BCF1000FB5D5039B07
:1058D80040F2FF318143012B009B18BF08F11803E8
:1058E80019800321AEF800101080A6E7039C20461B
:1058F800FEF7CCFE0499012C088018BF08F11005AA
:105908006FF4804000F5605028801520AAF8000048
:10591800088800F0070006288FD103980C46FEF788
:10592800A7FE0020AAF80000208086E7039A40F22C
:10593800FF308843012A029A18BF08F11602108026
:10594800012088E7039940F2FF30A043012901991B
:1059580018BF08F11A0108800220AEF80000148070
:105968006BE7B0B542F25010C2F2000001884A1C41
:1059780002F007020280EFF3038042F25C126FF339
:105988005F20C2F2000202EB800001EB011150F827
:10599800405C41F62C72287AC2F2000202EB8104C4
:1059A800FFF7B2FE40F251102084D5E911102A7A8F
:1059B80084F82420C4E90E1004F1220004F128011F
:1059C800FFF7B1FE05202146BDE8B040FFF776BEDF
:1059D800EFF3038046F2C0216FF35F20C4F20001A9
:1059E80051F8202022F4803241F8202051F820007C
:1059F8007047EFF3038046F2C0216FF35F20C4F2D3
:105A0800000151F8202022F4803241F8202051F87A
:105A180020007047EFF3038046F2C0216FF35F2048
:105A2800C4F2000151F8202022F4803241F82020ED
:105A380051F8200042F24C11C2F2000108880128F6
:105A480008BF7047FFF78DBFEFF3038040F2FC718A
:105A580001EA800046F2C021C4F20001425822F453
:105A68008032425042F25C12C2F2000241581044A5
:105A780050F8400C007AFEF7EDBDD0E9013201691B
:105A8800D1F804C09A608445536008BF4A600B6827
:105A980000220261581E0860704742F6E030C2F2E8
:105AA80000000068704742F6F453C2F20003036036
:105AB80042F6F430C2F2000008608020106070479F
:105AC80043F25403C2F20003036042F65460C2F288
