:020000040000FA
:10000000A01500204124000021160000E70900008F
:10001000E7090000E7090000E7090000E709000020
:100020000000000000000000000000004D2400005F
:10003000E709000000000000651600001725000019
:10004000972E0000452C0000912D0000972E0000F7
:10005000992F0000653F00007D4000003140000006
:10006000F33E0000653F00007D400000314000008D
:10007000F33E0000653F00007D400000314000007D
:10008000F33E0000D1440000054500008D4400000F
:10009000AF4400000000000000000000030B00005F
:1000A00000000000037400000273000002730000EF
:1000B000027300000273000002730000027300006C
:1000C0000273000002070000050500000370E00055
:1000D0000571C000006060000060600000606000AA
:1000E0000060600000000000141D00203C1D002086
:1000F0002C1D0020BC1C0020401D0020201D0020C5
:10010000241D0020181D00201C1D0020441D00205F
:10011000281D00204D6573736167655F4D616E61D9
:100120006765720000000000000000000000000091
:1001300000000000000000000000000000000000BF
:1001400000000000010000001D0000000A00000087
:1001500004000000010000000E0000000500000087
:100160000100000000000000485B000000000000EB
:100170000100000000000000003E0000140100200B
:10018000010000005C0000200000080000000000EA
:100190000000000000000000000010080000000047
:1001A00000000000000000004000350040003D005D
:1001B0000000080000000000000000000000000037
:1001C0000000100800000000000000000000000017
:0401D00040003500B6
:020000040000FA
:1001D4002DE9F05F0546002092469B468846064678
:1001E400814640241BE0284641464746224600F00B
:1001F400B4F853465A46C01A914110D311461846D2
:10020400224600F09BF82D1A67EB01084F46224660
:100214000120002100F092F817EB00094E41201E46
:10022400A4F10104DFDC484631462A464346BDE8D2
:10023400F09F40EA01039B0703D009E008C9121F9D
:1002440008C0042AFAD203E011F8013B00F8013B8C
:10025400521EF9D27047D2B201E000F8012B491EB8
:10026400FBD270470022F6E710B513460A4604464F
:100274001946FFF7F0FF204610BD30B505462A4663
:100284000B4612F8010B13F8014B08B1A042F8D049
:100294001CB1002802D06D1CF1E7284630BDCAB25B
:1002A400401E10F8011F8A4202D00029F9D1002013
:1002B4007047421C10F8011B0029FBD1801A7047BB
:1002C40010B5002200E0521C835C8C5CA34201D177
:1002D400002BF8D1D8B2E1B2401A10BD034611F890
:1002E400012B00F8012B002AF9D118467047024669
:1002F400014400E0521C8A4202D21378002BF9D147
:10030400101A704710B54843044605F0B5FB0028A1
:1003140005D00021002C02D0641E0155FAE710BD5F
:1003240030B4044696230800214604D0B62330BCDA
:10033400002200F02BB820460021F8E7202A04DB35
:10034400203A00FA02F1002070479140C2F12003E4
:1003540020FA03F3194390407047202A04DB203A23
:1003640021FA02F00021704721FA02F3D040C2F1D1
:10037400200291400843194670470029A8BF7047DE
:10038400401C490008BF20F00100704710B4B0FAC7
:1003940080FC00FA0CF050EA010404BF10BC704762
:1003A40049B1CCF1200421FA04F411FA0CF118BF7C
:1003B400012121430843A3EB0C01CB1D4FEA00614B
:1003C4004FEA102042BF002010BC704700EBC3501E
:1003D40010440029A4BF10BC7047401C490008BF4A
:1003E40020F0010010BC704770B541F21866C2F2EB
:1003F400000634680CB1204670BD05460120782102
:10040400FFF780FF80B1044695E807006267C4E9FE
:100414000001346001F070FA0028ECD0204605F0A9
:1004240003FB00243460E6E70024E4E770B584B0FD
:10043400054601200C46012602F028FA40F2DD4070
:10044400C0F20000039068468DF80060CDE90154C5
:1004540002F05CF941F21461C2F20001086041F259
:100464001C60C2F200000321016042F27C50C2F21F
:1004740000000021017000F007F841F2F450C2F2CC
:10048400000004B070BD000042F27C50C2F20000D3
:10049400007890B941F21C60C2F200000068033891
:1004A40006280AD8C1B25F2222FA01F1C90704D092
:1004B40002A151F8200000F02DB970474A5F0000F6
:1004C400265F00003B5F0000085F00004F5F0000F4
:1004D4004A5F00002D5F00002DE9F04F81B041F22A
:1004E4001460C2F20000D0F80080B8F1000F00F0F0
:1004F400F18041F21C6B41F29F7441F2847542F227
:10050400A01A0027C2F2000BC2F20004C2F20005D6
:100514007BA6C2F2000A00BFB8F81403B8F812139D
:10052400884200F0D780B8F81403404490F81101D1
:10053400B8F8141301316FF35F21A8F81413DBF832
:100544000090B9F10A0F2BD12178AA2802D00029F2
:1005540000F0BC804A1CD3B21B2B22706854C0F03C
:10056400B580B5F819004FF6FB71884215D195E8AE
:100574000F4041F2F457C2F2000787E80F00288BBE
:10058400B1463E46D5F814C03083A87EC7F810E0C3
:100594000027C6F814C0B0764E46277096E000BF18
:1005A4000A2825D142F22020C2F200000078B9F1D5
:1005B400080F0AF8007030D0B9F1090F40D0504646
:1005C4004CA1FFF75AFE002848D042F27C50C2F2F8
:1005D4000000007801284ED142F27C50B9F1070F97
:1005E400C2F20000077046D809F1010041E000BFE3
:1005F40042F22021C2F2000109783E2808BFB9F175
:10060400090F1BD07E2961D842F220234A1CC2F272
:1006140000031A700AF8010058E0504630A1FFF7B1
:100624002CFE20B9504631A1FFF727FEE8B342F271
:100634007C50C2F20000077009200CE00AF8017037
:1006440050463E21FFF72BFE78B342F27C50C2F2B3
:10065400000007700A20CBF8000026E0504626A1CF
:10066400FFF70BFE38B142F27C50C2F20000077073
:100674000B20CBF8000050463146FFF7FEFD20B9B1
:10068400504622A1FFF7F9FD78B142F27C50C2F244
:10069400000007700720CBF80000FFF7F5FE41F2D9
:1006A4001460C2F20000D0F8008042F22020C2F2AE
:1006B4000000077050468021FFF7D4FD41F29F747B
:1006C40041F28475C2F20004C2F20005B8F1000FD1
:1006D4007FF422AF01B0BDE8F04FFFF7D5BE00BFF5
:1006E4002B424C45434F4E4E000000002B425443D6
:1006F4004F4E4E004F4B00004552524F52000000E7
:100704002B424C4544495343000000002B425444BF
:100714004953430041F21461C2F20001096899B1DE
:10072400B0B5D1F804516DB10446FFF7C2FD0246DD
:100734002846214601F043FE42F27C50C2F20000FA
:1007440001210170BDE8B040704770B5044644F81B
:10075400201F06460020082B1D46C4E90100206125
:1007640028BF0825257332B12BB106F13400114698
:100774002A46FFF75EFD30682921224601F06CFA13
:10078400B0FA80F0400970BD41F2D050C2F20000CE
:10079400017801B1704781B00121017041F2040177
:1007A400CEF200010968009141F2C851C2F2000181
:1007B400009A0B689A4206D241F2CC52C2F200026D
:1007C400136801331360009A0A600021017001B0BC
:1007D4007047000080B52DED028B00F070F841F2F7
:1007E400D850C2F20000D0E90001FFF799FD08EEED
:1007F400100A41F2E050C2F20000D0E90001FFF714
:100804008FFD01EE100A41F2E850C2F200009FEDA4
:100814000A0AD0E9000128EE000A30EE018AFFF747
:100824007FFD00EE100A9FED051A20EE010A30EE5E
:10083400080ABDEC028B80BD00007A446F12833A33
:100844004EF6FC51CEF200010A684FF0000C42F063
:1008540080720A6041F20001CEF20001C1F804C0C6
:100864000B6844F24022C0F20F0200FB02F043F096
:1008740001020A6041F2BC51C2F20001086044F670
:10088400D351C1F26201A0FB0112910941F2C0529D
:10089400C2F2000211604DF68361C4F21B31A0FB69
:1008A4000101880C41F2C451C2F20001086041F216
:1008B400CC50C2F20000C0F800C0FFF765BF70B5AD
:1008C40082B041F20400CEF2000000680190FFF70C
:1008D4005BFF41F2CC50C2F200000068019C00258D
:1008E4004FF0FF31E0FB014541F2BC50C2F2000081
:1008F40006682046294632460023FFF769FCA0FB20
:10090400062301FB0633A41A41F2C052C2F20002CC
:100914009D4141F2D8531668C2F20003C3E90001B5
:100924002046294632460023FFF752FC41F2E052AA
:10093400C2F20002C2E90001A0FB060201FB06218B
:1009440041F2C452C2F20002201A126865EB01019E
:100954000023FFF73DFC41F2E852C2F20002C2E973
:10096400000102B070BD10B5044601201021FFF74C
:10097400C9FCD4E901122388002BC26042F20D1293
:10098400038108BF6423C2F200020380137841602C
:10099400591C117041F22061C2F2000141F8230098
:1009A40010BD01880181704770B542F20D14C2F286
:1009B40000042078A0B141F220660025C2F20006AE
:1009C40056F825100A891AB1013A0A8105E000BFD8
:1009D4004A6812B1C8689047207801358542EFD340
:1009E40070BD00BE7047000080B5C820FFF728FF27
:1009F40042F6906046F2B071C2F20000C0F200010B
:100A0400FFF714FD41F21061C2F20001086042F2E6
:100A1400E82045F60C61C2F20000C0F2000101F0CA
:100A2400ADFE42F66861C2F20001086042F2445031
:100A340045F68061C2F20000C0F2000100F028FB1C
:100A440042F24821C2F2000108600AA0342100F0F9
:100A540047FE41F2D471C2F20001086008A04FF4CD
:100A6400BE7101F03BFD41F68811C2F2000108603D
:100A740080BD00BF64756D6D795F636D64000000B7
:100A840064756D6D795F66656564000080B541F6D7
:100A94008810C2F20000006841F68C11C2F2000115
:100AA40001F007FD00F05AFC01F0AEFE41F2D470F3
:100AB400C2F20000006841F2D871C2F20001BDE840
:100AC400804000F0EFBD000010B500F0D7F942F20D
:100AD4001014C2F20004204600F000FA41F60C0C97
:100AE400C2F2000C0CF1400100226FF0170304F174
:100AF400180E00BF5EF803001EF8024041F8140C03
:100B04000C700132043301F13401F3D141F2A071CC
:100B1400C2F20001D1E900238968CCE90021CCF8B4
:100B2400083010BD10B598B06C4645F6E821C0F207
:100B3400000120466022FFF77CFB204600F018FAF3
:100B44000DA04FF4BE7100F0CBFD41F67441C2F22A
:100B5400000108600BA0342101F0C0FC41F678418B
:100B6400C2F20001086042F20F10C2F2000001213B
:100B7400017018B010BD00BF64756D6D795F666556
:100B84006564000064756D6D795F636D64000000D9
:100B940042F20F10C2F200000078012818BF70471B
:100BA40010B52DED028B41F67840C2F2000041F2FF
:100BB400A0740068C2F20004214601F07AFC2068A7
:100BC400022830D001280ED000285ED19FED378A4C
:100BD400441C00BFB0EE480AE0B200F012FA01343F
:100BE400082CF7D151E06068012830D000284CD19E
:100BF400B3EE0E8A012094ED060AF0EE480A00F0E6
:100C040003FA94ED070AF0EE480A022000F0FCF91A
:100C140094ED080AF0EE480A032000F0F5F994ED8B
:100C2400090A04202DE0B3EE048A012094ED060A9B
:100C3400F0EE480A00F0E8F994ED070AF0EE480AED
:100C4400022000F0E1F994ED080A032004E094ED99
:100C5400080A0320B3EE0E8AF0EE480A00F0D4F935
:100C640094ED090AF0EE480A042000F0CDF994ED61
:100C74000A0AF0EE480A052000F0C6F994ED0B0AC2
:100C84000620F0EE480A00F0BFF9FFF71DFF41F619
:100C94007440C2F20000006841F60C01C2F2000187
:100CA400BDEC028BBDE8104000F0FCBC000000006D
:100CB40042F20810C2F20000006841F6E872002116
:100CC400C2F20002117001F057BD000042F2081098
:100CD400C2F200000168002975D02DE9F04F87B0F9
:100CE40041F6E47291F80031C2F20002108863B157
:100CF40041F6E977C2F2000711F8016B85B20130C1
:100D0400013BC0B27E55F7D1108041F6E679C2F2BC
:100D14000009B9F80010401A5FFA80FABAF11B0F03
:100D24004ED341F6E97742F2EC0B6E46C2F200076D
:100D34004FF6FB78C2F2000B88B200228318DBB2B4
:100D4400FB5CB35401321B2AF8D19DF80000AA2899
:100D54002CD1BDF81900404528D19DE83D10AAF1D9
:100D64001B0A8BE81D00BDF8180041F6E872ABF8C9
:100D740018009DF81A00C2F200028BF81A0001F163
:100D84001B00C1B241F6E070C2F20000006801230A
:100D9400CBF81050CBF814C0A9F80010137058B158
:100DA400FFF7FFFDB9F8001006E000BF481CC1B210
:100DB400AAF1010AA9F800101FFA8AF01A28BBD870
:100DC40007B0BDE8F04F70474169C1F3C312D31FA8
:100DD40013F1060F4ED301F07F01A1F12103042B7F
:100DE40088BF704710B541F6083E4FF0340CC2F28C
:100DF400000E12FB0CE1DFE803F0033612300C00A6
:100E0400027C042A34D382684A62027C052A20D2F6
:100E14002EE0027C042A24BF8068886228E0037CD8
:100E2400042B25D3836842F23014C2F2000400EE8E
:100E3400103A9FED111A04EB021220EE010A92ED12
:100E4400001A8B6180EE010A027C052A81ED070AF3
:100E54000ED3007B81F830000AE0027C042A07D319
:100E64008068C86204E0027C042A01D380680862B6
:100E7400BDE81040704700BF0000B44370B52DEDCD
:100E8400048B0024FFF7A6FCB0EE408A9FED129A73
:100E940041F60835C2F20005002600BFA91991F8F1
:100EA4004500012810D191ED120A38EE400AB4EE43
:100EB400490AF1EE10FA07DD91F8440081F8454043
:100EC4000121012201F0E1FA3436B6F59C7FE5D127
:100ED400BDEC048B70BD00BF00007A44F8B12DE96D
:100EE400F0412DED028B00F1180800276FF0170672
:100EF4007D1CECB2204600F013F82046B0EE408A88
:100F040000F022F808EB060181ED008A08F80700DA
:100F140004362F46ECD1BDEC028BBDE8F04170479E
:100F2400C11F11F1060F3CBF9FED060A704741F641
:100F34000831C2F20001342210FB021090ED070ABE
:100F4400704700BF00000000C11F11F1060F3CBF35
:100F54000020704741F60831C2F20001342210FB30
:100F6400021090F83000002818BF012070470000DC
:100F740070B584B042F20E16C2F200063178002930
:100F84003DD1054642F25420C2F20000009045F6DD
:100F9400A450C0F20000019040F6CD50C0F2000011
:100FA40002906846FFF720FA044641F2D450C2F298
:100FB4000000046045B142F23010C2F2000010306B
:100FC40029466022FFF735F941F60835C2F20005DB
:100FD40028464FF4B671FFF745F905F144000121A5
:100FE40000F8341B01310729FAD1012503952CB1EE
:100FF40003AA204601210423FFF7A7FB357004B0A0
:1010040070BD032101F02CBAC11F11F1060F38BFC6
:10101400704780B582B09FED1D1A42F2301180EE08
:10102400010A80EE811AC2F2000101EB00119FED6A
:10103400163A91ED002A0979B4EE423AB7EE003A35
:10104400F1EE10FA33FE022A002941F2D451C2F221
:10105400000120EE023A20EE420A21EE021A0B6849
:1010640003FE000AB0EEC11A8DED000A8DED011ADF
:1010740033B1C001C11D6A4618460823FFF765FB5A
:1010840002B0BDE8804070476F12833A0000B44359
:1010940080B588B041F2211205ABC0F2000207C34B
:1010A40019208DF8100004A801F030FB10A2D2E939
:1010B400012142F25023DFF838C0C2F20003186065
:1010C40001A8CDE901C20391FFF74DFC42F244218E
:1010D400C2F2000142F24C220860012142F22420B3
:1010E400C2F20002C2F20000117008B080BD00BF5D
:1010F400C8000000011100000000000042F250206E
:10110400C2F2000042F224210068C2F2000100226F
:10111400C1E90022C1E9022201F02EBB2DE9F04F02
:1011240087B042F2502042F2C046C2F20000C2F23E
:1011340000060068318842F2C2450022C2F200056E
:10114400835C8FB201310132192A01F07F01EB5522
:10115400F6D142F24258C2F20008B8F8002001F178
:101164008000801A00EB5063318023F07F03C01AA3
:101174001928C0F2F08042F224270DF10304C2F2D0
:10118400000700BFA85C0F2805D102F1180000F089
:101194007F00285C78B1501C00F07F02A8F8002082
:1011A40088B2801A803000EB506323F07F03C01AAA
:1011B4001828E7DCCFE0002093B20132EB5C02F0A8
:1011C4007F02235401301928F6D19DF80300A8F8B2
:1011D40000200F28E4D19DF81B000028E0D19DF8E1
:1011E40004C09DF805009DF807E060F30A2C9DF803
:1011F4000630ACF57A763E804FEAD0094FEA8E0687
:101204009DF8080063F34A1946EA931300F00106B7
:1012140043EA8623A9F57A78A3F57A7E9DF8093006
:10122400A7F802804FEA500863F3CA18A8F57A7049
:101234009DF80B60F8809DF80A004FEA131B7600B6
:1012440060F30A1B46EAD01A9DF80C009DF80D6065
:1012540060F34A2A800866F38A10B8819DF80E006C
:10126400A8F2EE33C0009BB240EA56104FF6F57672
:10127400A7F804E0A7F808B0A7F80AA0B342F881D9
:1012840024BF0020F880B7F914604FF6F573BEEB65
:10129400060048BF40421D289CBFB0B2B88042F24D
:1012A4004258ACF2EE3080B2C2F20008984224BF39
:1012B40000203880A9F2EE3080B24FF0000C984242
:1012C40028BFA7F802C0BBF1C80F09D0BBF5E16F76
:1012D40004D0BBF57A7F05D1032302E0022300E0AA
:1012E40001233B81BAF1C80F09D0BAF5E16F04D0EC
:1012F400BAF57A7F05D1032002E0022000E0012044
:101304007881002037F810301EB283EAE633A3EB6D
:10131400E6339BB2B3F5E16F88BF27F810C0013004
:101324000428EFD197E84910BE61C7E9040342F2EB
:101334004420C2F200000068C7F81CC000283FF433
:101344002FAFFFF72EFB42F2C040C2F2000001882B
:10135400B8F8002024E707B0BDE8F08FB0B52DED54
:10136400028B42F24825C2F20005286841F2D87483
:101374004189C2F20004012917D0032904D00229AB
:1013840004BF0020206036E0018901220129226087
:1013940000F0E180032900F09C8002292BD104F1A4
:1013A40018001821FEF75EFF90E042F66860C2F272
:1013B40000000068022150F8012F216082F00041F2
:1013C400A1614168826800EE101A9FED841A9FEDB6
:1013D400842A31EE400A01EE102AC16884ED070A1E
:1013E400026932EE411A4069616284ED081A82F0A2
:1013F4000041A162E06294ED071AB5EE401AF1EEE5
:1014040010FA04DA9FED7A0A84ED070A08E09FEDEA
:101414007A0AB4EE401AF1EE10FAC8BF84ED070A56
:1014240094ED081A9FED760AB4EE401AF1EE10FA24
:1014340004DA9FED720A84ED080A08E09FED710A50
:10144400B4EE401AF1EE10FAC8BF84ED080A94ED28
:10145400091A9FED6D0AB4EE401AF1EE10FA02DAA1
:1014640084ED090A08E09FED670AB4EE401AF1EE34
:1014740010FAC8BF84ED090A94ED0A1A9FED630AB5
:10148400B4EE401AF1EE10FA02DA84ED0A0A08E02A
:101494009FED5F0AB4EE401AF1EE10FAC8BF84ED76
:1014A4000A0A94ED0B1A9FED5B0AB4EE401AF1EEB2
:1014B40010FA02DA84ED0B0A08E09FED570AB4EE45
:1014C400401AF1EE10FAC8BF84ED0B0ABDEC028B92
:1014D400B0BDB0F90400DFED440A00EE100A9FED40
:1014E400431AB8EEC00ADFED421A9FED422A0121E9
:1014F400616001F068FE286884ED080A9FED392ACE
:10150400B0F90610B0F9002001EE101AB0F902008B
:10151400B8EEC11A94ED093A21EE021A05EE102A2A
:1015240031EE031A03EE100AB8EEC55AB8EEC33A08
:1015340094ED0A4A23EE023A25EE022A94ED0B5A60
:1015440033EE043A32EE052A84ED091A84ED0A3AA0
:1015540084ED0B2A4FE7B0F900109FED228A00EECC
:10156400101A94ED061AB8EEC00AB0F9021020EE73
:10157400080A94ED072A30EE011A00EE101AB0F9A9
:10158400040084ED061AB8EEC00ADFED170A20EE57
:10159400080A9FED161A30EE022A00EE100A84EDB6
:1015A400072A0022B8EEC00ADFED111A9FED112AB6
:1015B400626001F008FE286884ED080A94ED092AA7
:1015C400B0F9060001EE100AB8EEC11A21EE081AAD
:1015D40031EE021A84ED091A0DE700BF00009642AD
:1015E4000000B44252499D39000048C400004844F8
:1015F40000000000000052430000164300000C42AB
:1016040000000CC200003443000034C30000F0C2E8
:101614000000F0420000B4C30000B4432DE9F041DF
:1016240046F22018C4F20008B8F80000B8F82010F8
:1016340041F67C4501EA0006B7B20024C2F2000577
:1016440027FA04F0C00704D055F8241009B1204645
:1016540088470134102CF3D1A8F81060BDE8F0815C
:101664000F4B1968EFF309821EF0100F08BF22ED2B
:10167400108A22E9F04FEFF30B8342F8043D0A602D
:101684004FF0100080F31188BFF34F8FBFF36F8FBB
:1016940003F086FA4FF0000080F3118802F060BB7B
:1016A400DC230020F0B581B0466AB6B104460D468D
:1016B400002700BF307A2946012804BFB77137726A
:1016C400F079628C56F82000FEF7B3FD307AF7719A
:1016D40001303072F668002EECD1012001B0F0BD6B
:1016E400F0B581B00C4621210546FEF700FE1F2807
:1016F40001D900BFFEE740F2D407C2F2000700BFE1
:10170400BE6A66B130462946FEF7DAFD0028374640
:10171400F6D1708C844230460BD000BFFEE7012026
:101724003021FEF7EFFD2946B8624484FEF7D6FD6A
:101734003E46012186F82C1001B0F0BDB0B543F24D
:101744002404C4F208040025C8200121257100F0F6
:1017540082F8257020780028FCD1207840F002001F
:10176400207000BF20788007FCD4002004F8020C0D
:1017740014F8020C0028FBD1002004F11C0100BF66
:1017840011F8102002F07F0201F8102011F9102046
:10179400002AFBD401300328F2D1012000F00BF819
:1017A4004EF2BB420021C4F2010201201170BDE8D7
:1017B400B04000F027B880B50122EFF3108182F326
:1017C400108841F64852C2F2000232F810308BB948
:1017D4004EF2FE3C45F6D443C4F2010CC0F20003C1
:1017E400BCF800E033F8103043EA0E0343F4254319
:1017F400ACF8003032F81030013322F8103081F3A5
:10180400108880BD0122EFF3108182F3108841F625
:101814004852C2F2000232F8103023B132F81030CC
:10182400013B22F8103032F810208AB94EF2FE3C07
:10183400C4F2010C45F6D442BCF80030C0F20002F8
:1018440032F8100043F4254222EA0000ACF800000C
:1018540081F31088704741F2F052C2F2000212681C
:1018640001FB00F041F20021C0F27A018A420FD359
:1018740040F6FF01C0F23D0111444DF68362C4F20B
:101884001B32A1FB0212110DA0FB0101E9B11FE003
:101894004CF60021C3F69A3148F63813C0F24103DE
:1018A400B1FBF2F1984207D24FF47A7200FB02F0D6
:1018B400B0FBF1F0800808E08900B0FBF1F0984239
:1018C40006D24FF47A7100FB01F028B101F025B97A
:1018D4004FF0FF3001F021B970477047022818BF5C
:1018E400704741F6305045F6DC31C2F20000C0F2D8
:1018F400000100F04FBB00002DE9F04F81B083469A
:1019040008688A460090D1E902010027DAF81090AD
:10191400C4F20B070022CBF81C100121CBE9007A9A
:10192400CBE90502D9F81C80EFF3108081F310880D
:1019340044F20801C4F208010A684EF2034C22F092
:1019440000620A60096880F310884EF20016D7F826
:101954008C0046F2003541F68C74CEF2000CCEF2C7
:101964000006C007C4F20005C2F2000455D0644664
:10197400D7F88C000007FBD45846812102F096F872
:10198400D8F8040041F21431C7F884004FF48030D1
:10199400C7F89C000120C4F20B010860D8F82800A5
:1019A400C7F8AC00002000BF08EB800107EB800201
:1019B400896801300828C2F8C010F5D198F82D00C4
:1019C400A4460001607041F68C740020C2F2000449
:1019D40046F200352061C4F2000529694EF2001672
:1019E40021F48031296129691021CEF20006BFF368
:1019F4005F8FC6F880113160D8F80010C7F88810DE
:101A040008F1300151F8202007EB8003013022F067
:101A140001020628C3F82021F4D198F82C00A0462E
:101A240000018CF80000C4F80CB0E86820F48030A1
:101A3400E860E8680820BFF35F8FC6F88001306073
:101A440041F68470009CC2F2000040F824B04FF4C8
:101A54008070012CC7F8980021D0D9F80010C7F87D
:101A64009800D1F800C04A688B68C96841F60C0038
:101A7400C4F20B00016041F6080041F60401C4F20F
:101A84000B00C4F20B0103600A6041F60001C4F2CA
:101A94000B01C1F800C0016864F3C71101600020A4
:101AA400C7F898005846012102F000F8DAF804005B
:101AB4004EF2001690E80E00C06801396FF39F21C2
:101AC40041EA42415A1EA1F5003141EA42614FF612
:101AD4000042CFF6FF7202EB802046F20035084345
:101AE40021017850D9F81400CEF2000690E80E00D7
:101AF400C0680139C9B241EA02210022CFF6FF725F
:101B040002EB0342A1F580711143013841EA006000
:101B140041F21431C4F20B0101EB4411C4F200058B
:101B2400C1F8EC00D9F814004068FF2828BFFF2052
:101B340099F81820000440EA422040F20142104380
:101B4400C1F8F000D9E9021207EBC400C0F8501F35
:101B5400C0F8542FD9F8100007EB041140F003002B
:101B64004860DAF8180000281DD49AF814103218C6
:101B7400090182F8001348F820B055F82010012319
:101B840021F4803145F8201055F8201000F01F0191
:101B9400400906EB800203FA01F1BFF35F8FC2F83C
:101BA400801146F82010DAF8200000281DD49AF895
:101BB40014103218090182F8001348F820B055F8BF
:101BC400201000F01F0221F4803145F8201055F850
:101BD40020100123400903FA02F206EB8003BFF34D
:101BE4005F8FC3F8802146F82020DAF81C00002813
:101BF4001DD49AF814103218090182F8001348F819
:101C040020B055F82010012221F4803145F820102D
:101C140055F8201000F01F01400906EB800302FA7A
:101C240001F1BFF35F8FC3F8801146F820105846C6
:101C3400802101F03BFF58460021002501F036FFCA
:101C440044F24460C5F24320CBE902050020CBF8FE
:101C5400105001B0BDE8F08F10B59368D2E900E4EC
:101C6400D0F804C04EEA8373DCF800C043EAC47EB3
:101C7400272916D90CEB4C0304680B44A3F1280C58
:101C840004EBCC134FF4C84443F804E0137B092B52
:101C940027D3182B22D803F57E73082404EB93036F
:101CA4001FE041EA8C1C036803EB0C0494F8D04752
:101CB400240744BF4EF6632010BD03EBCC134FF44E
:101CC400803443F804E0137B092B28D3182B23D842
:101CD40003F57E73082404EB930320E00B2404EB48
:101CE400131304684FEA037E04EBCC1446F2044356
:101CF40044F803E00468136904EBCC1403F0070E02
:101D040046F2084344F803E0036846F20C4403EB4C
:101D1400CC1303EB040E1DE00B2404EB1313046833
:101D24001B0704EBCC1E0424C0F201044EF804305B
:101D34000368146903EBCC1E082304F00704C0F203
:101D440001034EF80340036803EBCC1303F580331F
:101D540003F10C0E137B3BB1143200BF12F8014B9C
:101D6400013B0EF8014BF9D10068272905D900EB96
:101D74008C00FF21C0F8401203E06044012180F888
:101D8400D012002010BD062070470146406846F27C
:101D94000032C4F2000252F8203023F0807342F87B
:101DA400203040F20002C2F20002002342F8203048
:101DB40000200B607047416846F20032C4F2000212
:101DC40052F8210020F08073002042F8213070473F
:101DD400416846F20032C4F2000252F8210040F099
:101DE4008073002042F821307047406840F20002BE
:101DF400C2F2000252F820000022C1E90022C27897
:101E0400402A05D24FF480328A60C089C8600FE04E
:101E14004FF480728A60C289D2B2CA60C27802F07A
:101E2400C002802A04D14FF480320A60808948605D
:101E340000207047F0B581B042F25842C2F200026D
:101E4400137840F200060D460446C2F20006D3B9E8
:101E5400012744F200011770EFF3108087F3108814
:101E6400C4F208010A6822F480020A60096880F357
:101E7400108830465421FEF7F5F945F20C40C4F2BF
:101E840000008660077068680068002804D456F86B
:101E9400201019B108200DE00B200BE029686060C8
:101EA40011B1204601F098FE44F20030C4F25440CF
:101EB4002060002001B0F0BDB0B50446406846F291
:101EC4000035C4F2000555F8202022F0807245F850
:101ED4002020606845F20E4240F40040C4F2000243
:101EE40013889842FCD0204601F076FE616855F8CC
:101EF400210040F08072002045F82120B0BD06206A
:101F04007047000010B582B001910092416840F220
:101F1400000246F2003CC2F20002C4F2000C52F885
:101F240021E05CF8212022F080724CF821204268E4
:101F340045F20E41C4F2000142F400420C88A24270
:101F4400FCD008228A70019A12B1019ACEF80420BA
:101F5400009A12B1009ACEF808209EF8032002F0ED
:101F6400C004802C02D1AEF80C3003E03F2A98BFA5
:101F7400AEF80E3018228A7041685CF8210040F0F7
:101F8400807200204CF8212002B010BD062070475A
:101F94000620704780B545F25422C5F24F02026014
:101FA400084601F03BFE002080BDC8B201238340F7
:101FB4009BB24FF4803C002A08BF0CFA00F34FF4A4
:101FC400FF5000EAD1010822C4F2080200208B501D
:101FD400704700002DE9F04381B00A780D460121D5
:101FE400914011F0060F044605D0286CC0680078B3
:101FF400000700F1C28048F20000C4F2110040EA78
:1020040002200022206240F2F930084018BF01206B
:10201400E56100012070D5E90E01A2626062A0783A
:10202400E16220F00300411CA170696811B940F01D
:102034000200A070EE6A4EF2001806F01F014FF085
:10204400010CCEF200080CFA01F308F180017709C3
:1020540095F8282041F82730BFF34F8F46F2003916
:10206400C4F20009BFF36F8F59F82630170123F427
:10207400803349F8263008F5407259F826309755D0
:102084006F6941F68C7E07F01F00C2F2000E0CFA55
:1020940000F07B094EF826402E7C41F82300BFF364
:1020A4004F8FBFF36F8F59F82700330120F480302E
:1020B40049F8270059F82700D355E8694EF8274016
:1020C40000F01F060CFA06F647092B7E41F827603C
:1020D400BFF34F8FBFF36F8F59F820601B0126F4B5
:1020E400803649F8206059F8206013544EF8204097
:1020F400686A95F8203000F01F060CFA06F74609C6
:1021040041F82670BFF34F8FBFF36F8F59F820103B
:102114001B0121F4803149F8201059F82010135480
:102124004EF82040286B78B1406802684FF40020D4
:1021340042F8040B206A296B431D204601F0EEFD92
:102144000646002840F01C81686BC0B140680268F4
:102154004FF0006042F8080B206A696BC31C2046EC
:1021640001F0DCFD58B10646286B002800F0088118
:1021740081680068096A884702E1032600E10120BA
:10218400EFF3108180F3108844F204072A78C4F234
:1021940008074FF000433E6823FA02F226EA0202DF
:1021A4003A603A6881F310880022216A8A70216AB1
:1021B4000A71216A4A72216A8A72216ACA72216A80
:1021C4004A832978884040F2F931084202D0206AD3
:1021D4004021C174206A062101772078C8B1E269E0
:1021E400116B00294FF0010105D1126C431E1269D5
:1021F4001A4062F30B21013800F00F0041EA00306D
:10220400216A40F006028A82216A00BF8A8A9042CB
:10221400FCD1D5E90112E8684FEAC00040EA021097
:1022240029B1032908BF40F04000F22100E0E22177
:10223400226A00271070206A02228171286C816949
:1022440002EA41020829216A08BF0A224A73236A62
:10225400D0E901121F720368C90123F00103C9B256
:10226400022B62F345110AD1226AFF2353700068DE
:102274000228206A08BF41F01001C17117E0226AE8
:10228400D171C068216A82784A7042780B7802F072
:10229400030203F0FC031A440A70C2788A74CA79F0
:1022A400007802F0A30200F05C001044C87100261C
:1022B400E169C4E90366C4E90566286C4F690178DD
:1022C40059F8272007F01F0322F4803249F8272009
:1022D40059F82720012202FA03F508F5C0737F0993
:1022E400BFF35F8F43F8275048F82750E769FF6A28
:1022F40059F8275025F4803549F8275059F82750C4
:1023040007F01F0502FA05F57F09BFF35F8F43F855
:10231400275048F82750E769FF6959F8275025F4F2
:10232400803549F8275059F8275007F01F0502FA5D
:1023340005F57F09BFF35F8F43F8275048F827500E
:10234400E7697F6A59F8275025F4803549F8275002
:1023540059F8275007F01F05AA407F09BFF35F8F84
:1023640043F8272048F827201C22236A62F39F01A0
:102374009970406944F65511C5F24331C4E901101E
:10238400304601B0BDE8F08370B50446C069154617
:10239400006B0E4678B1A178826801F0030101391F
:1023A40025FA01F10068D2F808C08BB20021324648
:1023B400E04700B170BD0020C4E9056570BD70B58B
:1023C4000446006A0E46837803F07B03837020780A
:1023D40008B1314604E0A07800F00300121A311865
:1023E400E069C4E90312406B88B182B1A3784FF06D
:1023F400000C03F00303013BDA40836800689D6826
:1024040093B20022C4F810C0A84700B170BD206A7E
:10241400817841F080018170207868B9A07800F05B
:102424000300022805D13088216A40F47E40C88127
:1024340002E03078216AC870002070BD00F092F884
:1024440000F098FEFEE700001EF0040F0CBFEFF34F
:102454000880EFF30980014908470000D9470000CC
:1024640080B582B006288DED010A0CD841F2D45211
:10247400C2F20002136833B141EAC01101AA18463E
:102484000423FEF762F902B080BD80B582B006284D
:1024940001920CD841F2D452C2F20002136833B153
:1024A40041EAC01101AA18460423FEF74EF902B00E
:1024B40080BDB0B50546007A002460B1A879AA8829
:1024C40055F8203008461946FDF7B3FE287AAC715A
:1024D4000138012428722046B0BD000070B50E46B4
:1024E400FFF7FEF8054601201021FDF70BFF044617
:1024F4008680304603F0C0FA206055F8240F28B1D6
:102504000146C0680028FBD101F10C0520462C606F
:1025140070BD10B51020EFF3118480F3118803F01F
:1025240037F830B14EF60450CEF200004FF080512F
:10253400016084F3118810BD4EF22000C4F2010042
:102544008179006841F2A052C2F20002C0F3026035
:1025540052F8211021FA00F041F2F051C2F20001C8
:102564000860704710B54EF60850CEF200004FF4E4
:102574007001C0F8801040F20001C0F20001016057
:1025840000200024FFF7AAF900F0A2F90120FFF7C8
:10259400A5F941F2A010C2F2000080F30A880020DD
:1025A40000F032F8FFF7C8FFFFF7C8F80320FFF781
:1025B40002F940F61050C4F208004FF6FF7100BF54
:1025C40020F8141001340C2CFAD10320FFF71AF967
:1025D4000320FFF7F0F80420C4F20E00002101608C
:1025E40041608160C1600320FFF70CF90220FFF70E
:1025F40075F9012000F008F800F04AFA0020BDE85F
:10260400104000F043BA0000F0B581B045F66845CB
:10261400C0F200052E68044676B16868071D00BF45
:102624007879844204D157E90101091AFDF71AFEA9
:10263400013E07F10C07F3D1AE6886B1E86800F1FA
:10264400080500BF6879844205D155E9020229686A
:10265400121AFDF7EEFD013E05F11005F2D101B0AD
:10266400F0BD0000B0B542F20C11C2F200010978CD
:1026740081B10446006842F68012C2F2000200BF33
:102684001568D5F808311B78984204D0013902F155
:102694000402F5D1B0BD60680F2806DD102818BF0C
:1026A4002028F7D04028F5D010E0012802D00828CF
:1026B400F0D00BE0D5F80C0100B18047D5F8040147
:1026C40095F800212946FFF75FFE6068022819D0BB
:1026D4000428DFD1A068B5F81213B5F8142301312A
:1026E4006FF35F21914204D0B5F812232A4482F893
:1026F4001101A5F81213D5F80C010028CAD0BDE8C1
:10270400B0400047002085F81001B0BDF0B581B09D
:1027140042F20C16C2F200063778032F20D8054681
:1027240001204FF44671FDF7EDFD2A1D044607CA4A
:10273400C4F80C217A1C2B78327042F68012C2F253
:102744000002C4E9410184F8003142F82740FFF750
:1027540041FC48B1204603F067F930780138307005
:102764000024204601B0F0BDD4F8040194F80021FF
:102774002146FFF709FEF4E77047000080B588B0F2
:10278400CDE9050140F6D140C0F200001B220790BC
:1027940004A88DF81020FFF7B9FF0EA2D2E9012199
:1027A40042F20813DFF82CC0C2F20003186001A83B
:1027B400CDE901C20391FEF7D6F841F6E072014675
:1027C40042F2EC00C2F20002C2F20000116008B052
:1027D40080BD00BF32000000B50C00000000000006
:1027E40042F20812C2F20002136823B10A460146FB
:1027F40093F8100100B17047012083F81001D3F859
:102804000401FFF7DCBD000041F68C11C2F20001A7
:1028140091ED180A9FED1B1A42F66C6091ED252A82
:1028240030EE010A9FED181A5A22C2F2000002701B
:1028340010EE102A32EE010ACB6AC0F8052010EE21
:10284400102AC0F80130D1F8C830C0F80920D1F8F6
:10285400FC20C0F80D30D1F83031C0F811207422BA
:10286400C0F815308B5C2BB13432B2F5D67FF9D178
:10287400012100E0002141764FF6FB721C214283C6
:10288400FFF7AEBF000096C20000B4C210B5012825
:1028940003D0C0B90424012201E00524002241F63A
:1028A4003050C2F2000040F20751FFF77EFB40F6C1
:1028B4006010C4F20800016843F6FA72CFF6FE72A3
:1028C40011402143016010BD00BE00BFFEE70000BF
:1028D4002DE9F0414EF2FE34C4F201044AF20350F1
:1028E4004CF200162080C4F201060120B08000BF23
:1028F400B0880028FCD147F200010120C4F2000195
:1029040030808860086041F2A05742F6005041F2DE
:102914000022C2F20007C0F23110C0F27A02C7E905
:10292400000243F200604FF40041C0F26E10C7E9A8
:1029340002104CF20020396141F60041C0F6EB3040
:10294400C0F64E614EF220057861C4F20105B9610A
:10295400A879296857F82000C1F3026141F2F058C0
:10296400C840C2F20008C8F80000002060750920C1
:1029740085F8820094F8820020B994F883008007D7
:1029840000F07F8094F8820050B9012084F882001E
:10299400C8200121FEF75FFF94F882000128FBD1D3
:1029A400002084F8830084F882000020A87400BF0B
:1029B400287F0007FCD542F201702885002043F2ED
:1029C400021185F82A002981A87200BF287F800699
:1029D400FCD50320307741F22120C2F201002860A7
:1029E4000520A871A879296857F82000C1F302616D
:1029F400F022C840C8F8000042F20800C4F2000007
:102A0400F1210171012101700271297485F83210DC
:102A140095F8540040F0400085F8540095F95400AE
:102A2400B0F1FF3FFADC0620462185F84C0085F81A
:102A3400541085F8540000BF95F954000028FBD4C5
:102A440095F8560040F0400085F8560095F9560078
:102A5400B0F1FF3FFADC032085F84E00C62085F86C
:102A6400560095F8560000F0BF0085F8560000BFE8
:102A740095F956000028FBD44FF425402080BDE88A
:102A8400F0814FF47A70FEF728FF8EE7704700005C
:102A940070B584B048F248060320C4F20006FEF77D
:102AA4008AFE6FF0FF0045F6804430604FF0FF303F
:102AB4000021C0F200040122CDE9020054F82130C3
:102AC40002FA01F5002B18BFA84301311529F5D1ED
:102AD4004EF280320190002001A9CEF2000200BF24
:102AE40051F8203006EB8005AB6242F8203001300B
:102AF4000328F5D10320FEF785FE46F200310020BD
:102B0400C4F2000154F820200AB141F82020013019
:102B1400152804BF04B070BDF4E701380028FCD1C7
:102B2400704700002DE9F04F81B00446008800286A
:102B34005AD043F240084EF2BB4B0025C4F20808B9
:102B44000FF2AC0AC4F2010B4FF00109002700BFD9
:102B540060685AF8272000EBC500416891423CD1D7
:102B640000689BF8001000F0B85009FA07F6B0F1BD
:102B7400807F06EA010015D150B90120FEF71BFE43
:102B84009BF8000030438BF800000120FEF73AFE6A
:102B940018F91700002820D418F8170040F0800016
:102BA40015E000BF50B10120FEF705FE9BF80000C0
:102BB400B0438BF800000120FEF724FE18F917003B
:102BC400B0F1FF3F09DC18F8170000F07F0008F8A7
:102BD4001700C8200121FEF73EFE0137032FB7D1AD
:102BE400208801358542B1D301B0BDE8F08F00BF24
:102BF40002040000030400000404000010B541684E
:102C0400B1F5806F18BF10BD41F21861C2F2000126
:102C14000C68416990F8202004F10803616100F117
:102C2400280118462274082A28BF0822FDF701FB50
:102C3400616F19B12046BDE81040084710BD00007F
:102C44002DE9F04FB7B0EFF303806FF35F20A0F1ED
:102C5400100141F68C70C2F2000050F8217000910E
:102C6400786839680468006901F59855CDE902046B
:102C7400F8690790285D002878D024F0004808EB14
:102C84004800072101FA00F001904FEA841A0DF17F
:102C94000C090DF1740B20462A5DD1074FEA40015F
:102CA40008D13868120727D400F56B624FF400731B
:102CB40005E000BF38684FF4006300F561620493D7
:102CC40052F8213093FAA3F3B3FA83F3082B08D311
:102CD40002EB8101496891FAA1F1B1FA81F101F1A4
:102CE400200303EB0A01084490F8D01701F0F9011E
:102CF40080F8D0171EE000BF029AD26902EB81016E
:102D0400096BC9044FF4006158BF4FF4005104919A
:102D1400D0F8B412019A114091FAA1F1B1FA81F1FB
:102D240000EB810001F12803D0F8E02122F0100229
:102D3400C0F8E021BE69069356B158463146682270
:102D4400FDF777FA304649466822FDF772FA00E04B
:102D54004E46796930468847B86918B159466822A1
:102D6400FDF767FA285D0028404695D146F2003009
:102D7400009AC4F2000050F8221021F4803140F887
:102D8400221050F8220037B0BDE8F08F2DE9F04F43
:102D9400B7B0EFF303804FF480636FF35F20A0F1CB
:102DA400100141F68C70C2F2000050F821700191BC
:102DB400D7E900010968D0F8B022CDE9031302F085
:102DC4003F0292FAA2F2B2FA82F202F01F06032E36
:102DD40088BF02F0030242F0280106914FF480718B
:102DE400D0F8A02201FA06F912EA090F029633D1AB
:102DF4000DF10C0806F1280408F114060DF1740A0B
:102E04002146324600F002FE039841F68471C2F274
:102E1400000151F820B0DBE90650079055B1504647
:102E240029466822FDF705FA284641466822FDF73F
:102E340000FA00E04546DBF8141028468847DBF822
:102E4400180018B151466822FDF7F3F93868D0F834
:102E5400A01211EA090FD3D0029900EB8100D0F837
:102E6400E01121F00801C0F8E0113868D0F8B00290
:102E740060B946F20030019AC4F2000050F8221002
:102E840021F4803140F8221050F8220037B0BDE818
:102E9400F08FF0B5B5B0EFF303806FF35F20A0F1CE
:102EA4001005032D33D141F68470C2F20000066888
:102EB40001A80C305C21FDF7D5F94FF48050029045
:102EC40031684FF07040D1F8902000EA023000EBF6
:102ED4000240920703904FF00000C1F890000FD514
:102EE4003168D1F8A82292FAA2F2B2FA82F201EB86
:102EF40082010492D1F8E02022F00402C1F8E0201B
:102F0400D6E906410190059104BB01AC2AE041F6E3
:102F14008C70C2F2000001AF50F8256007F1140074
:102F24005421FDF79FF94FF480700290D6E9000117
:102F3400096800EB0110C26892B203920022C260D9
:102F4400D6E9064001910492059054B11BA821468C
:102F54006822FDF76EF901A920466822FDF769F998
:102F640000E03C46716920468847B06918B11BA946
:102F74006822FDF75EF946F20030C4F2000050F812
:102F8400251021F4803140F8251050F8250035B083
:102F9400F0BD00002DE9F04FB5B040F2000BC4F2D3
:102FA4000B0BDBF8AC0290FAA0F0B0FA80F2072A1F
:102FB40053D84FF4806042F020050290049501201C
:102FC400DBF8A01200FA02F4214200923CD10098EE
:102FD40046F208010BEBC0100DF16C0900EB010A7D
:102FE40001A800F1140700BFDAF800002946C0F375
:102FF40001203A460190584600F008FD019841F638
:103004008471C2F2000151F82080D8E9066005906D
:1030140056B1484631466822FDF70BF9304601A9FE
:103024006822FDF706F900E001AED8F81410304626
:103034008847D8F8180018B149466822FDF7F9F80E
:10304400DBF8A0022042CFD000980BEB8000D0F830
:10305400E01021F00801C0F8E010DBF8AC0240B940
:1030640046F21030C4F20000016821F4803101609E
:10307400006835B0BDE8F08F80B584B041F61050DB
:10308400C2F20000016845F6D8330131016042F60E
:10309400D0710420C2F20001CDE9000143F2F9002D
:1030A40041F2247CC0F200000CA1C0F200034FF4F2
:1030B4008072C2F2000CCDF808C002F0E1F941F2CE
:1030C4002071C2F20001086008B104B080BD002084
:1030D400002104B0BDE8804000F007BF4461656D85
:1030E4006F6E5461736B0000FDF75EFC0A2001F003
:1030F4005FFCF9E710B5044600F0C6FE2046BDE8C3
:103104001040FFF7F1BF7047FFF7FDBF4021C4F245
:10311400090101F50121002804BF4021C4F209017D
:103124004BF6FF70088070474021C4F2090101F595
:103134000121002804BF4021C4F209014FF6F770B1
:10314400088070474021C4F2090101F501210028DB
:1031540004BF4021C4F2090108887047012818BF40
:10316400704741F20210C4F21100018841F4804119
:103174000180704780B541F61050C2F20000002172
:10318400016041F6C040C2F2000041F6C84201703D
:103194004FF48070C2F20002012101F06DFD41F68E
:1031A400C441C2F20001086018B90020002100F0F7
:1031B4009CFE00F01DF8FFF75FFF00F01BFE01F01E
:1031C40089FC002080BD80FE200A80FE410A30EE8A
:1031D400600A32EE613A31EE601A23EE000A80EEA4
:1031E400010A31EE800A80FE210A80FE420A7047FD
:1031F40080B584B041F61050C2F20000016845F673
:10320400C8530131016043F2D0310120C2F2000100
:10321400CDE9000143F2792042F2782CC0F200009B
:103224000CA1C0F200034FF48062C2F2000CCDF88E
:1032340008C002F025F942F27421C2F200010860CC
:1032440008B104B080BD0020002104B0BDE8804076
:1032540000F04BBE4D6F746F724374726C546173A3
:103264006B000000FDF75EFCFDF792FC142001F0FA
:103274009FFBF9E710B5044600F006FE2046BDE8C2
:103284001040FFF7EFBF2DE9F04381B00E4642F640
:10329400C071C2F200010D6842F2E431C2F20001D1
:1032A400D1F8008042F2EC3142F2DC34C2F2000187
:1032B400C2F20004D1F8009021680746081D01F00D
:1032C40038F9781C16D1AEB142F69870C2F20000FB
:1032D400D0E90012236801319A6093682768FB6083
:1032E400276804375F6023680433936022680160B1
:1032F400506117E02068ED194560206800F1040171
:1033040005D3484601B0BDE8F04301F05DB940463D
:1033140001F05AF942F61870C2F2000001688D42B9
:1033240038BF056001B0BDE8F08300002DE9F04727
:10333400044601F066F942F69410C2F200000168F6
:1033440042F2DC3701310160C2F20007396842F60B
:103354008C7A42F2F436C2F2000AC2F2000651B18B
:10336400DAF8000000283DD13868E16AC06A884272
:1033740098BF3C6036E03C600068012832D10025EB
:10338400701901F012F91435642DF9D142F6E86888
:10339400C2F20008404601F008F942F6FC69C2F2A4
:1033A4000009484601F001F942F62870C2F2000013
:1033B40001F0FBF842F6AC70C2F2000001F0F5F83F
:1033C40042F69870C2F2000001F0EFF842F2E430E5
:1033D400C2F20000C0F8008042F2EC30C2F20000F9
:1033E400C0F8009042F6A010C2F200000168231D4C
:1033F4000131016042F6A411C2F20001E06A0A68D8
:10340400904288BF086000EB800006EB80014A68A8
:1034140061619568C4E90225936056F820206B60C9
:10342400511C46F8201001F013F9DAF8000078B1C5
:103434003868E16AC06A88420AD24EF60450CEF275
:1034440000004FF080510160BFF34F8FBFF36F8FC7
:10345400BDE8F08770B582B001F0D3F842F6C476C7
:10346400C2F20006306850BB42F6C064C2F20004E7
:10347400204601F09AF842F6D465C2F200052846C7
:1034840001F093F842F2E030C2F20000046042F22C
:10349400F030C2F2000042F2183242F2903305607A
:1034A40000250A20C2F200020C21C2F2000300959A
:1034B40001F002FC306010B103A101F027FA02B060
:1034C400BDE8704001F0C4B8546D725100000000B2
:1034D400F0B581B042F69815C2F200052868E0B153
:1034E40042F6AC7642F69417C2F20006C2F2000726
:1034F40001F087F8F068C468201D01F01AF83868F4
:103504000138386028680138286001F0A1F82046A5
:1035140000F036F828680028EAD101B0F0BD70B593
:10352400866B036C044643B31546CAB1E0681A4679
:10353400FCF77FFEE168206C2268091A9142E16081
:1035440003D2A16840420844E060A81EB0FA80F0AB
:1035540040093146002E18BF01210840361A0CE0FC
:1035640060681A46FCF765FED4E90101226C104438
:103574008842606001D320686060701CA06370BDE5
:1035840010B5044690F85D00022808BF10BD01285C
:1035940003D038B9206B01F081F82046BDE8104013
:1035A40001F07CB846F2316103A0C0F2000141F69B
:1035B4002E12FFF789F900BF70785443422D3E75EF
:1035C40063537461746963616C6C79416C6C6F638F
:1035D40061746564203D3D202820282075696E743F
:1035E400385F7420292032202900000042F2F4348C
:1035F4004EF60455C2F20004CEF200054FF0805698
:10360400FFF766FF2068022804D32E60BFF34F8FB4
:10361400BFF36F8F00F0BDFFF2E700002DE9F04724
:103624000A9F8246089C386B984669B107F13403B7
:10363400002600BF8D5D9D551DB10F2E06F10106BC
:10364400F8D1002187F84310052C21D200EB820029
:10365400DDF82490043820F00706381DFC6200F0E1
:10366400AFFF07F1180000F0ABFFC4F10500396BA0
:10367400B8613046524643463F617F6200F0B1F97B
:10368400B9F1000F386018BFC9F80070BDE8F087C1
:1036940046F2316103A0C0F2000140F26472FFF708
:1036A40013F900BF75785072696F72697479203CA0
:1036B40020283529000000008C46014641F804CF3B
:1036C4009445006108D942F2E0309A42C2F2000007
:1036D4000AD29C450ED207E08069D21A824209D2EE
:1036E40042F2F030C2F2000080B5006800F06CFFD6
:1036F400002080BD0120704770B542F2E032C2F272
:10370400000212680646D2680D46D468201D00F0F7
:1037140010FF94F82400410704D400F0FA0084F860
:10372400240004E0204631462A4600F005F8216AC8
:103734002046BDE87040084770B5054680691446C8
:103744000E460144284600BF3346FFF7B5FF48B193
:10375400A869296A064428468847A8692246811927
:103764002846F1E770BD0000F0B581B0044601F0D1
:1037740009FF42F2D836C2F2000631680546884293
:103784000ED242F2E037C2F2000700BF3868016887
:1037940041B1C0684FF0FF310068FFF7ADFFF5E7B6
:1037A400002007E042F2F031C2F200010A6808602A
:1037B40001203A6020602846356001B0F0BD000069
:1037C40000BE00BFFEE7000084B042F2E03842F6DB
:1037D400C475C2F2000801ACC2F200054FF0000942
:1037E400EB4600BFD8F80000D0F800A0BAF1000FF3
:1037F4001ABFC0680668002601F0CAF92046FFF720
:10380400B3FF019911B102F005F82DE00746BAF1B2
:10381400000F08D0BE4206D801F0FCFF30463946FE
:10382400FFF76AFF20E0BAF1000F01D0002208E0A0
:1038340042F2F030C2F2000000680068B0FA80F092
:1038440042092868F11B01F090F801F0E3FF58B930
:103854004EF604514FF08050CEF200010860BFF3E1
:103864004F8FBFF36F8F00BF2868CDE90299CDF861
:10387400049000BF2146002201F02CFC0028B1D0A6
:10388400019800284CD4039E706910B1301D00F0DB
:1038940050FE5846FFF768FF0199013908293FD8BF
:1038A4000746DFE801F005052C1C3F05052C1C002C
:1038B40096F82400029BB16940F0010086F82400C8
:1038C400194430463A46FFF7F7FE48B396F8240009
:1038D40041071BD400F0FA0086F824001DE096F896
:1038E400240040F00101029886F82410B06108B366
:1038F400C11930463A463B46FFF7DEFE10E096F823
:10390400240000F0FE0086F8240009E00298B16962
:103914003A4601443046FFF70FFF316A3046884784
:103924002868A7E796F824008107EAD4304600F017
:10393400B5FEF5E746F2B06103A0C0F200014FF412
:103944008262FEF7C1FF00BF2820707854696D655C
:10395400722D3E7854696D6572506572696F644961
:103964006E5469636B73203E2030202900000000F0
:10397400F0B581B0044600F044FE94F94560012E90
:103984000EDB04F1240500BF286848B1284601F085
:10399400C8FE08B101F044F870B2013E0128F3DC1E
:1039A400FF2684F8456000F053FE00F02AFE94F9E7
:1039B4004470012F0EDB04F1100500BF286848B1E4
:1039C400284601F0AEFE08B101F02AF878B2013FB2
:1039D4000128F3DC84F8446001B0BDE8F04000F055
:1039E40037BE283140F8481D43F2C571C0F20001CA
:1039F4004FF0807C22F00102C1636FF00201026487
:103A0400C0F844C0C0E90913704700001F2904D856
:103A140000EBC11303F5005C04E000EBC11328299B
:103A240003F5A04C80B5DCF800E0CEF3807393601E
:103A3400DCF8083003F0070313612EF060431360D1
:103A44004FEADE735360DCF804305FEA137E13A39D
:103A540013F80EE082F80CE009D00CF10C031432D8
:103A640013F801CBBEF1010E02F801CBF8D11F29E6
:103A7400BDE8804006D8012202FA01F1C943C0F82A
:103A8400B010704700EB810028294FF0FF012CBFD4
:103A9400C0F8A011C0F88010704700BF00010203F5
:103AA40004050607080C10141820304070B5D0E93E
:103AB4000042802901F00F03D2F800C043D204EB86
:103AC4000C14C90754F804EF02D11EF0040504D104
:103AD400052B08BF1EF0010509D12568012666F3F0
:103AE40002052560656805F00705012DFAD12568F2
:103AF40025F007051D432560656805F007059D420F
:103B0400FAD1002960D11EF003015DD011690CEBDC
:103B14004C02C9694FF4907301EB820603EB8201F6
:103B240006F13002002300BF066852F823500E4409
:103B340056F8234005F00105254346F82350013388
:103B4400032BF1D140E0D4F888205FEAC17E02F073
:103B5400010118D0B9B93024026852F8245025F074
:103B6400010542F824500134382CF5D1482400BF13
:103B7400026852F8245025F0010542F8245001341B
:103B84004E2CF5D10468D4F8882022F007021A4399
:103B9400C4F88820D4F88C2002F007029A42F9D1A4
:103BA400BEF1000F10D179B1416800220969C969D9
:103BB400083100BF036851F8225003EB820301323D
:103BC400082AC3F8C050F5D1016801EB0C1149680B
:103BD40001F00701C16070BD01F10E0212F80B3C47
:103BE400402B06D3B2F800C05FFA8CF343EA0C23EF
:103BF400138012F80C3C10323F2BEFD845F21042E0
:103C0400C4F2000208231370406840F20003C2F2B9
:103C1400000343F8201018201070704770B5044654
:103C2400FEF780FF41F6545CEFF31080012181F32D
:103C34001088C2F2000CDCF8001039B940F60351C8
:103C4400C4F2080100220A7040220A70DCF8001055
:103C54000131CCF8001080F31088208818B340F6A6
:103C6400000E0021C4F2080E606800EBC10250F897
:103C740031305268DD034FEA1220D2B20BD50EEB7D
:103C8400801555F8226026F4803645F8226023F426
:103C9400803645F822600EEB8010013140F8223066
:103CA40020888142E0D30120EFF3108180F3108853
:103CB400DCF8000020B1DCF800000138CCF800008A
:103CC400DCF8000038B940F60350C4F208000022C2
:103CD40002708022027081F3108870BDB0B584B088
:103CE4000446806A40B1D0E900CED0E90253CDE960
:103CF40000CECDE9025300E06846E369D4F824C05D
:103D04001B78E56AC0E90032C0E90215E047A06A01
:103D140010B19DE82E002EC004B0B0BD10B5D1F88E
:103D240004C00478DCF800E0136014B103F10C045F
:103D34001460C069406858B99EF8030000F0CF00D1
:103D440010308EF80300D1F804C003F10B001060AA
:103D54008A68086812686146BDE810401047000090
:103D6400074801680A6802CA81F30B88B2E8F04F79
:103D74001EF0100F08BFB2EC108A82F30988704756
:103D8400DC23002088B14EF20C00C4F20100B0F92B
:103D94000010B1F1FF3F09DDBFF34F8F30BFBFF318
:103DA4006F8F62B6BFF36F8F72B6704780B54EF2F5
:103DB400FE32C4F20102B2F800E04AF2025CCFF62D
:103DC400FF7C0023A2F800C003804EF42543138037
:103DD400BFF34F8F30BFBFF36F8F62B6BFF36F8FE8
:103DE40072B61388A2F800C0018043F42540108005
:103DF40080BD000080B584B041F61050C2F20000CE
:103E0400016845F67C630131016044F2D031012040
:103E1400C2F20001CDE9000143F6796042F2604C40
:103E2400C0F200000CA1C0F200034FF48062C2F2A1
:103E3400000CCDF808C001F023FB42F25C41C2F251
:103E44000001086008B104B080BD0020002104B066
:103E5400BDE8804000F049B8526F626F74546173DA
:103E64006B000000FCF7C0FDFCF710FE052000F01D
:103E74009FFDF9E710B5044600F006F82046BDE8BA
:103E84001040FFF7EFBF0000B0B541F6C444C2F2E2
:103E9400000420684FF0FF3101F0EAF9012803D053
:103EA4002068002100F021F841F6C040C2F2000071
:103EB400017801B1B0BD01210170FFF725F941F688
:103EC4001055C2F2000500BF286801382860F1D0FF
:103ED400206800210022002300F0A8FF0128F3D06D
:103EE4002068002100F001F8EEE700BE7047B0B58D
:103EF400EFF303806FF35F20A0F1100541F68C709F
:103F0400C2F2000050F82500017821B9817801F04F
:103F14000301022921D1036A198A6FF35F211A79F7
:103F2400D40602F0380203D51C7FE40708BF4032F0
:103F34001C7904F0C7041C71436A0BB1FFF7CEFE71
:103F440046F20030C4F2000050F8251021F480310C
:103F540040F8251050F82500B0BD036A5979DEE712
:103F640010B582B0EFF3038040F2FC7101EA8000E7
:103F740046F2C021C4F20001425822F48032425079
:103F840041F68C72C2F200024158104450F8404C81
:103F9400E069006B78B1A06968B1616A002000290A
:103FA4006061A06140D020460021012202B0BDE83A
:103FB4001040FFF793BE207838B9A07800F00301D1
:103FC400206A022905D0417906E0206AC18AC9061F
:103FD40028D0018A6FF35F21A0690191B0B1A17863
:103FE400606901F0030201A9FCF723F9A078616973
:103FF400A26900F003000144101A6161A0610BD1B1
:10400400606A48B120460021012203E0606A18B1C9
:1040140020460422FFF762FE207828B1206AC18A74
:10402400C906D2D1BE21017102B010BD10B5EFF3A3
:1040340003806FF35F20A0F1100441F68C70C2F28C
:10404400000050F82400016A8A7802F07B028A702A
:10405400416A19B100210222FFF740FE46F2003006
:10406400C4F2000050F8241021F4803140F82410E8
:1040740050F8240010BD000080B5EFF3038040F237
:10408400FC7101EA800046F2C021C4F200014258EA
:1040940022F48032425041F68C72C2F2000241583E
:1040A400104450F8400CC169496B11B10169A1B3C6
:1040B40080BD01690029F9D00378002B3ED0026A43
:1040C400D18AC1F30421994221D20122F2B182782A
:1040D40002F00303C268022B06D11288036A42F479
:1040E4007E42DA8103E000BF1278036ADA738378D0
:1040F40090F800C00269D0F80CE003F0030301312A
:10410400D21A734461450261C360DFD3026A117934
:1041140001F07D0102311171C8E7016A8A7802F069
:104124007B0204328A70416A00294FF00001C160A9
:10413400BED08022BDE88040FFF7D0BD817801F079
:104144000302C168022A05D10988026A41F47E414A
:10415400D18102E00978026AD17081780269C3686A
:1041640001F00301521A19440261C1609EE7012162
:10417400FDF771BB80B582B0002201910092E1B1DC
:1041840040F2A401C2F2000151F8200001A9006824
:104194006A46002300F01EFF01280ED1009850B19A
:1041A4004EF60450CEF200004FF080510160BFF390
:1041B4004F8FBFF36F8F002000E0FF2002B080BD5F
:1041C40010B541F65854C2F20004218831B1FEF70B
:1041D400C5FF6420FFF7CBFF0020208010BD2DE930
:1041E400F04F85B041F23603C4F2110340F23008B7
:1041F400824603F10A0503F1100003F11206012AB5
:10420400C4F2090803F1140E049103920290CDE95B
:10421400006E05D108F501279C1C1A1D29460EE0E5
:1042240008F1060308F1080408F10A0208F1100174
:1042340008F1160008F1180608F11A0E4746098815
:10424400B0F800C0B6F80090BEF8006038881F8847
:1042540023881488DDF810B00022B1F5807FAAF815
:104264000020ABF8002044D300EA0102D6465004F3
:104274001ED410B2B0F1FF3F24DDB2F5005F2BD2A3
:10428400B2F5805F38D207EA0C0081B2D70543D576
:1042940011F0010040D003980299012818BF08F1D9
:1042A400160140F2FE3008800120AEF800005CE008
:1042B4000398012818BF08F110056FF48040288086
:1042C400122014E00398012818BF08F1100547F6DE
:1042D400FF70288011200AE00398012818BF08F114
:1042E40010056FF4804000F5005028801320AEF8CC
:1042F400000005B0BDE8F08F0398012818BF08F14D
:1043040010056FF4804000F5405028801420AEF86A
:10431400000004980180ECE704EA060084B2560524
:104324000DD514F001000AD003980199012818BF93
:1043340008F11A0140F2FE300880022012E003EA7C
:10434400090080B25FEA825C12D510F001030FD03D
:1043540003980099012818BF08F1180140F2FE30B3
:1043640008800320AEF80000012004990880C0E70B
:10437400B2F5006F16D2002F34D4049A002E3DD427
:10438400BCF1000FB5D5039B40F2FF318143012BF3
:10439400009B18BF08F1180319800321AEF8001020
:1043A4001080A6E7039C2046FEF7CCFE0499012C5E
:1043B400088018BF08F110056FF4804000F56050C4
:1043C40028801520AAF80000088800F007000628B5
:1043D4008FD103980C46FEF7A7FE0020AAF8000030
:1043E400208086E7039A40F2FF308843012A029A2C
:1043F40018BF08F116021080012088E7039940F2E3
:10440400FF30A0430129019918BF08F11A0108805F
:104414000220AEF8000014806BE7B0B541F680705E
:10442400C2F2000001884A1C02F007020280EFF386
:10443400038041F68C726FF35F20C2F2000202EB3C
:10444400800001EB011150F8405C41F65C52287A7F
:10445400C2F2000202EB8104FFF7B2FE40F25110F7
:104464002084D5E911102A7A84F82420C4E90E1096
:1044740004F1220004F12801FFF7B1FE05202146D2
:10448400BDE8B040FFF776BEEFF3038046F2C021EB
:104494006FF35F20C4F2000151F8202022F480322F
:1044A40041F8202051F820007047EFF3038046F2D2
:1044B400C0216FF35F20C4F2000151F8202022F4E0
:1044C400803241F8202051F820007047EFF3038038
:1044D40046F2C0216FF35F20C4F2000151F820209E
:1044E40022F4803241F8202051F8200041F67C71FA
:1044F400C2F200010888012808BF7047FFF78DBF8A
:10450400EFF3038040F2FC7101EA800046F2C0211F
:10451400C4F20001425822F48032425041F68C72B7
:10452400C2F200024158104450F8400C007AFEF7E1
:10453400EDBDD0E901320169D1F804C09A60844527
:10454400536008BF4A600B6800220261581E08606D
:10455400704742F69410C2F200000068704742F6B9
:10456400A833C2F20003036042F6A810C2F20000AE
:10457400086080201060704742F60863C2F20003AE
:10458400036042F60840C2F2000008608020106018
:10459400704780B572B600F0FBFA0120FFF7F2FB1A
:1045A40062B6BDE8804001F035B94FF0FF310246F4
:1045B40042F8081F0021C0E90322C0E90012704735
:1045C400002101617047000080B5D1F800C01CF1E2
:1045D400010207D000F10802964652681368634549
:1045E400FAD903E0D0F810E0DEF804204A609160C4
:1045F4000268C1F808E0CEF804100861511C01609B
:1046040080BD1021EFF3118081F3118842F69011DF
:10461400C2F200010A68531C0B605AB941F63851C2
:10462400C2F2000108604EF60450CEF200000068A9
:10463400C00500D1704746F2057046F24B71C0F2D6
:104644000000C0F2000140F2A442FEF73DF9000070
:1046540042F69010C2F20000016859B101390160BC
:1046640018BF704741F63850C2F20000006880F36A
:104674001188704746F24B7103A0C0F2000140F26A
:10468400AD42FEF721F900BF75784372697469631E
:10469400616C4E657374696E67000000F0B581B09B
:1046A40000283DD042F27D56A0F10805C2F2000672
:1046B4000446B54251D306F2FF37BD424DD854F8F3
:1046C400040C002855D5296800295ED120F000404B
:1046D40044F8040C00F05CFA42F61070C2F20000D8
:1046E40054F8041C026842F690730A44C2F20003B0
:1046F40002601A4610461268AA42FBD3984203D0BD
:10470400B0424BD3B84249D84368C718AF4202D12C
:104714001944054641606B18934203D013460CE0DC
:1047240001B0F0BD42F2E833C2F200031B689A42C2
:1047340003D0D2E9003211446960A8422B6018BF4B
:10474400056042F62070C2F2000001680131016088
:1047540001B0BDE8F04001F05DB845F6D07046F216
:10476400D211C0F20000C0F200014FF4B572FEF79E
:10477400ABF846F2261046F2D211C0F20000C0F2A5
:10478400000140F26B12FEF79FF846F2D21109A025
:10479400C0F200014FF4B672FEF796F846F2B0008C
:1047A40046F2D211C0F20000C0F200014FF4FD72D3
:1047B400FEF78AF870784C696E6B2D3E70784E6502
:1047C400787446726565426C6F636B203D3D2030A2
:1047D40000000000806910F8020C022808BFFFF7EF
:1047E400BFBA042838BF704746F24B7103A0C0F229
:1047F40000014FF47E72FEF767F800BF75635356ED
:10480400434E756D626572203C3D2033000000000C
:1048140041F2F050C2F20000006844F6D351C1F2F4
:104824006201A0FB01014FF0FF3000EB9111002069
:10483400B0EB116F18BF70474EF21002CEF20002B7
:1048440051604EF62351CEF20001F0230B709060BC
:104854000720106070470000EFF303806FF35F20C0
:10486400102806D34EF2F031CEF20001405C0F283E
:1048740010D94EF60C50CEF200000068400558BF27
:10488400704746F24B7108A0C0F2000140F2216269
:10489400FEF71AF846F24B710EA0C0F2000140F286
:1048A4000F62FEF711F800BF5F5F4E5649435F4742
:1048B40065745072696F7269747947726F75706943
:1048C4006E672829203C3D202838202D20342920BB
:1048D4002D203100756C43757272656E7450726967
:1048E4006F72697479203E3D2028282828312929AF
:1048F400203C3C202838202D2034292929203E3EE4
:10490400202838202D20342900000000B0B500B341
:10491400D1B142F63C7E4FF0000C0023C2F2000EEF
:10492400002200BF0EEB03046568A8420DD022B933
:104934002268002A18BF644622460833502BF1D15E
:10494400002A18BFC2E90010B0BD2246C2E9001017
:10495400B0BD46F2AB4046F24A41C0F20000C0F29C
:10496400000140F6C932FDF7AFFF70B515460E469B
:104974000446FFF746FE94F84400FF2804BF0020D5
:1049840084F8440094F84500FF2804BF002084F80C
:104994004500FFF75DFEA06B28B904F12400314601
:1049A4002A4600F061F82046BDE87040FEF7E0BFFB
:1049B40080B580B142F69C11C2F200010A6801324E
:1049C4000A600968012912D10021FEF75CFC00F09D
:1049D40021FF00B180BD4EF60450CEF200004FF02E
:1049E40080510160BFF34F8FBFF36F8F80BD46F2DC
:1049F400166046F23161C0F20000C0F2000140F6D8
:104A04008E12FDF761FF42F61C71C2F200010968C3
:104A1400016042F6C071C2F200010968416070474A
:104A240042F6CC70C2F2000001210160704710B55B
:104A340070B10C4642F2DC31C2F20001096818314F
:104A4400FFF7C2FD20460121BDE81040FEF71BBC64
:104A540046F28C6046F23161C0F20000C0F20001FF
:104A64004FF4A452FDF730FFB0B538B30346D0E994
:104A740000C042F2DC3EC2F2000EDEF80040002A22
:104A8400E0618468DEF800502C62DEF8005005F125
:104A940018056560DEF800400CF1010504F1180406
:104AA4008460DEF80000836218BF4FF0FF310846CF
:104AB40011461D60BDE8B040FEF7E5BB46F28C60D0
:104AC40046F23161C0F20000C0F2000141F2BE4280
:104AD400FDF7FAFE10B58AB044F24940C4F24C50D6
:104AE4000024069005A804A903AA8DF81C40CDE96A
:104AF4000444FFF734FDDDE90320DDF814C006A902
:104B04000023CDE9004043F2F150C0F20000CDF89B
:104B140008C000F0B5FC42F61471C2F2000108604E
:104B240028B300F043FF01280AD001301FD146F218
:104B3400316112A0C0F2000140F6A962FDF7C4FE83
:104B440042F61871C2F200014FF0FF32012080F3E7
:104B540010880A6042F68C71C2F20001086042F6C5
:104B6400C070C2F200000021016000F067F846F254
:104B74009470C0F2000000680AB010BD78526574E9
:104B840075726E20213D2028202D3120290000003F
:104B940042F69C10C2F200000168013101607047C6
:104BA40042F69C10C2F20000006830B142F6CC70AC
:104BB400C2F2000001210160704742F6CC70C2F2DB
:104BC4000000002142F6A41C0160C2F2000CDCF8D3
:104BD400001042F2F43301EB8102C2F2000353F8F5
:104BE400220003EB820228B9B9B152F8140D01393D
:104BF4000028F9D05068436802F1080083425360EA
:104C040001D1D3685360D86842F2DC32C2F20002A8
:104C14001060CCF800101068704746F2316103A0B0
:104C2400C0F2000141F2FA32FDF74EFE7578546F7E
:104C3400705072696F726974790000004EF62250E8
:104C4400CEF20000F0210170FFF7E2FD4EF6347061
:104C5400CEF20000016841F04041016062B6BFF34A
:104C64006F8FEFF3148C2CF0040C8CF31488BFF3C7
:104C74006F8F02DF00BEFDE7B0B582B080B10D4694
:104C840081420DD814464FF0000C00210022234627
:104C9400CDF800C000F010F82046A56302B0B0BD06
:104CA40046F2974046F24A41C0F20000C0F20001C9
:104CB4004FF45E72FDF708FE10B582B03BB3D0B17D
:104CC4001C4601B9BAB901B1AAB148230193019BA9
:104CD400482B25D1019B012384F84630002908BFC5
:104CE4002246C4E90F0120460121226000F038F871
:104CF400204602B010BD46F29F4046F24A41C0F23F
:104D04000000C0F200014FF4D872FDF7DDFD46F259
:104D14004A410FA0C0F200014FF4C272FDF7D4FD66
:104D240046F24A4103A0C0F200014FF4CB72FDF7F2
:104D3400CBFD00BF7853697A65203D3D2073697AC5
:104D4400656F66282051756575655F7420290000BC
:104D540070785374617469635175657565000000FA
:104D640070B5002844D00446C06BC0B30E46216C15
:104D7400A0FB010199BBFFF744FCD4E90F012268B1
:104D84000025A56301FB0023013800FB0120C4E9D1
:104D94000123E060FF2084F8440084F8450004F116
:104DA40010004EB1FFF701FC04F12400FFF7FDFBF6
:104DB400FFF74EFC012070BD01680029F8D000F017
:104DC400B0FC0028F4D04EF60450CEF200004FF0B0
:104DD40080510160BFF34F8FBFF36F8FE8E746F256
:104DE4004A4109A0C0F200014FF4B672FDF76CFD10
:104DF40046F2AA4046F24A41C0F20000C0F2000165
:104E040040F23712FDF760FD7852657475726E20BA
:104E1400213D202820282028204261736554797080
:104E2400655F742029203020292029002DE9F04FC6
:104E340085B00028049200F09D80994615460446EA
:104E440019B9206C002840F0B980B9F1020F03D1E0
:104E5400E06B012840F0A680019100F081FB10B9BD
:104E6400002D40F09380FFF7CCFBA06BB9F1020F4B
:104E740059D0E16B884256D304F11007012002AEE9
:104E84004FF0000A04AD00BF0499002966D0C007A2
:104E94001CBF3046FFF7B7FDFFF7DAFBFFF778FEDC
:104EA400FFF7AFFB94F84400FF2808BF84F844A040
:104EB40094F84500FF2808BF84F845A0FFF7C8FB15
:104EC4003046294600F08EFA00284AD1FFF799FBB4
:104ED400D4F838B0D4F83C80FFF7BAFBC34515D1F9
:104EE40004993846FFF7A3FD2046FEF741FD00F084
:104EF40091FC80B94EF60450CEF200004FF0805180
:104F04000160BFF34F8FBFF36F8F04E02046FEF7BD
:104F14002FFD00F07FFCFFF774FBA06BE16B884270
:104F24004FF00000B0D2019920464A46FEF7F7FA46
:104F340054F8240F70B1204600F0F3FB50B14EF644
:104F44000450CEF200004FF080510160BFF34F8F48
:104F5400BFF36F8FFFF77CFB012008E0FFF778FBBE
:104F640004E02046FEF704FD00F054FC002005B0E8
:104F7400BDE8F08F46F2AA4046F24A41C0F2000072
:104F8400C0F2000140F2B632FDF79EFC46F27E20EC
:104F940046F24A41C0F20000C0F2000140F2BB32C6
:104FA400FDF792FC46F2D12046F24A41C0F20000DD
:104FB400C0F200014FF46E72FDF786FC46F26E30CB
:104FC40046F24A41C0F20000C0F2000140F2B7329A
:104FD400FDF77AFC2DE9F04700284AD01E4690469A
:104FE40005460F4611B9286C00285AD1022E02D169
:104FF400E86B012849D1FFF72FFC1020EFF311894A
:1050040080F31188022EA86B04D0E96B884201D387
:1050140000202AE095F94540A86B284639463246D7
:105024005FFA84FAFEF77BFABAF1FF0F0BD0FFF7B1
:1050340090FAA04218D9BAF17F0F3ED00AF10100CC
:1050440085F8450010E055F8240F68B1284600F0B3
:1050540068FB0146B8F1000F4FF0010018BF0029AA
:1050640003D0C8F8000000E0012089F31188BDE8EE
:10507400F08746F2AA4046F24A41C0F20000C0F26C
:1050840000014FF49262FDF71FFC46F2D12046F274
:105094004A41C0F20000C0F2000140F29242FDF722
:1050A40013FC46F26E3046F24A41C0F20000C0F2F0
:1050B400000140F29142FDF707FC46F2034046F23C
:1050C4004A41C0F20000C0F2000140F21E52FDF756
:1050D400FBFB00002DE9F04F83B00028029200F0A2
:1050E400A28016468946044619B9206C002840F06F
:1050F400B28000F035FA10B9002E40F0A080FFF71E
:1051040080FAD4F838A0BAF1000F28D0226C52B13A
:10511400D4E902011144E160814224BF2168E160C5
:105124004846FBF786F854F8100FAAF10101A16272
:1051340070B1204600F0F5FA50B14EF60450CEF2AC
:1051440000004FF080510160BFF34F8FBFF36F8FAA
:105154000124FFF77DFA204603B0BDE8F08F04F187
:10516400240801206F464FF0000B02AE029900297B
:1051740055D0C0071CBF3846FFF745FCFFF768FA57
:10518400FFF706FDFFF73DFA94F84400FF2808BF37
:1051940084F844B094F84500FF2808BF84F845B06B
:1051A400FFF756FA3846314600F01CF960B1204644
:1051B400FEF7DEFB00F02EFBFFF723FAA56BFFF7EB
:1051C40047FA1DBB2DE000BFFFF71BFAA56BFFF7E5
:1051D4003FFA2DB12046FEF7CBFB00F01BFB15E098
:1051E40002994046FFF723FC2046FEF7C1FB00F07E
:1051F40011FB58B94EF60450CEF200004FF0805126
:105204000160BFF34F8FBFF36F8F00BFFFF7F9F952
:10521400D4F838A00020BAF1000FA7D076E7002414
:1052240097E7002497E746F2254046F24A41C0F248
:105234000000C0F2000140F2E952FDF745FB46F2DE
:105244007E2046F24A41C0F20000C0F2000140F262
:10525400F252FDF739FB46F21E3046F24A41C0F2E3
:105264000000C0F2000140F2ED52FDF72DFB0000FA
:105274002DE9F04F83B00028029100F08E8004469F
:10528400006C002840F095800D4600F069F910B9D3
:10529400002D40F09A80FFF7B4F9A16BD1B154F816
:1052A400100F0139A16270B1204600F03AFA50B1F2
:1052B4004EF60450CEF200004FF080510160BFF36F
:1052C4004F8FBFF36F8F0124FFF7C2F9204603B05D
:1052D400BDE8F08F4EF6045904F1240801206E460F
:1052E4004FF0000B02AFCEF200094FF0805A00BF1E
:1052F400029900294DD0C0071CBF3046FFF783FB3D
:10530400FFF7A6F9FFF744FCFFF77BF994F8440094
:10531400FF2808BF84F844B094F84500FF2808BF6C
:1053240084F845B0FFF794F93046394600F05AF84E
:1053340060B12046FEF71CFB00F06CFAFFF761F940
:10534400A56BFFF785F9EDB925E000BFFFF759F923
:10535400A56BFFF77DF92DB12046FEF709FB00F0A0
:1053640059FA0FE002994046FFF761FB2046FEF729
:10537400FFFA00F04FFA28B9C9F800A0BFF34F8F25
:10538400BFF36F8FFFF73DF9A16B00200029AFD069
:1053940085E7002498E7002498E746F2254046F282
:1053A4004A41C0F20000C0F2000140F28262FDF7FF
:1053B4008BFA46F2314046F24A41C0F20000C0F294
:1053C400000140F28662FDF77FFA46F27E2046F243
:1053D4004A41C0F20000C0F2000140F28B62FDF7C6
:1053E40073FA000070B568B30D46B9B30446FFF70D
:1053F40008F942F6C07EC2F2000EDEF800302968D9
:105404004A1C16D042F61C7CD4E90002C2F2000CFD
:10541400DCF80060864201D093420CD29A1A914281
:1054240009D9881A2860DCF800002060DEF8000042
:105434006060002402E0002001242860FFF708F9DE
:10544400204670BD46F2986046F23161C0F2000019
:10545400C0F2000141F2A552FDF736FA46F231617D
:1054640003A0C0F2000141F2A652FDF72DFA00BFDD
:1054740070785469636B73546F57616974000000EA
:105484002DE9F04786B0DDF83C9007460020B9F1DD
:10549400000F049026D0109C6CB3602005900598F2
:1054A400602831D105980E46DDF838A020466021E9
:1054B40098461546FAF7D6FE022084F85D0004A843
:1054C400C4F83090CDE900A0384631462A46434618
:1054D4000294FEF7A3F82046FDF728FF049806B0CF
:1054E400BDE8F08746F2316118A0C0F2000140F235
:1054F400F142FDF7E9F946F231610FA0C0F2000173
:1055040040F2F242FDF7E0F946F2316103A0C0F245
:10551400000140F2FA42FDF7D7F900BF7853697AE7
:1055240065203D3D2073697A656F662820544342A7
:105534005F7420290000000070785461736B427519
:105544006666657220213D20300000007075785336
:105554007461636B42756666657220213D2030007C
:1055640042F68C70C2F20000006848B142F69C100A
:10557400C2F200000068B0FA80F0400940007047B1
:105584000120704742F6C070C2F200000068704704
:105594002DE9F04F81B042F69C10C2F20000006881
:1055A40040B142F62470C2F200000168013101608A
:1055B4000020A7E042F6C070C2F20000016842F683
:1055C400187211F1010BC2F20002C0F800B021D32D
:1055D40042F2E430C2F2000001680968002940F098
:1055E400948042F2EC33C2F2000301681F68076042
:1055F400196042F61C71C2F200010B6801330B60A2
:105604000168096819B10068C068006801E04FF0DA
:10561400FF3010601068834501D200206AE042F236
:10562400E43AC2F2000ADAF80000006800285DD00B
:1056340042F6A41942F2F43E42F2DC38C2F2000906
:10564400C2F2000EC2F20008002000BFDAF8001017
:10565400C968CE68374657F8045FAB4541D3D6E9ED
:10566400023571694A689D60BA426B6008BF4D603B
:105674000A68B56A013A0A607DB1D6E90721D5F80E
:1056840004C006F118039C4591604A6008BF696034
:10569400296800220139B2622960F56AD9F800103C
:1056A4008D4288BFC9F8005005EB85010EEB8102DD
:1056B400536872619C68C6E902349F605EF82130C9
:1056C40067605A1C4EF82120D8F80010C96ADAF82D
:1056D40000208D4288BF012011680029B6D14FF007
:1056E400FF3542F61872C2F2000202E04FF0FF35B5
:1056F4000020156042F6CC71C2F20001096800294D
:1057040018BF012001B0BDE8F08F46F2B24046F266
:105714003161C0F20000C0F2000141F25F22FDF7E6
:10572400D3F8B0B5C068C068002867D0D0E90713C3
:10573400826A00F1180CD2F804E08B60E6455960E7
:1057440008BF5360136800218162591E116042F63C
:105754009C11C2F20001096889B142F62871C2F2B3
:105764000001D1E9002381629D68C0E90735C3F8CF
:1057740008C0531CC26AC5F804C00B602DE0D0E910
:105784000213426900F1040CD2F804E08B60E64590
:10579400596008BF5360116842F6A41301391160BF
:1057A400C2F20003C26A196842F2F43E8A4288BF18
:1057B4001A6002EB8201C2F2000E0EEB81035C68F8
:1057C4004361A568C0E90245C5F804C05EF82150EC
:1057D400C4F808C0681C4EF8210042F2DC30C2F262
:1057E40000000068C06A824291BF002042F6CC717A
:1057F400C2F20001012088BF0860B0BD46F2D75054
:1058040046F23161C0F20000C0F2000141F2F542FB
:10581400FDF75AF82DE9F04F81B0FEF7F2FE42F69B
:105824009C10C2F200000168002900F0A880016801
:1058340001390160006830B10024FEF709FF2046F9
:1058440001B0BDE8F08F42F69410C2F20000006887
:105854000028F1D042F6287BC2F2000BDBF80010DE
:1058640042F6CC7942F2DC380029C2F20009C2F2D5
:1058740000085FD042F6A41A42F2F4334FF0000E4F
:10588400C2F2000AC2F200034FF0010CDBF80C7004
:10589400FC68A76AD4E90756796804F118029142B2
:1058A400AE60756008BF7E603968C4F828E00139CD
:1058B4003960261D6769D4E902157A68B2428D60A1
:1058C400696008BF7D60396801393960E76ADAF8D0
:1058D40000108F4288BFCAF8007007EB870103EB02
:1058E400810255686261A868C4E90250466053F8B1
:1058F4002100AE60013043F82100D8F80000C06AEE
:10590400874288BFC9F800C0DBF800000028BDD179
:1059140042F2E430C2F200000168096819B100687B
:10592400C068006801E04FF0FF3042F61871C2F21F
:105934000001086042F62474C2F20004266856B1DD
:10594400012700BFFFF724FE08B1C9F80070013E2B
:10595400F8D100202060D9F8000000283FF46CAF93
:10596400D8F800004EF60450CEF200004FF08051FB
:105974000160BFF34F8FBFF36F8F01245DE746F2E1
:10598400316103A0C0F2000140F68B72FCF79CFF6A
:1059940075785363686564756C6572537573706567
:1059A4006E64656420213D203055000080B586B0CA
:1059B400FDF750FD42F6C470C2F20000006808B35F
:1059C4000020CDE9040005A804A903AAFEF7D4FD2C
:1059D400DDE903200321DDF814C00023CDE9001024
:1059E40043F2CD70C0F200000BA1CDF808C0FFF760
:1059F40047FD42F6C871C2F20001086010B10120EF
:105A040006B080BD46F2B06105A0C0F200014FF4BB
:105A1400A372FCF759FF00BF546D722053766300E4
:105A24007852657475726E0010B5002821D0114B40
:105A34000022001F196803E0814203D80A4649681E
:105A44000029F9D152B11368841A9C4204D1006828
:105A540018441060104602E0506000E0186039B14C
:105A640002680B1A934203D10B681A440260496816
:105A7400416010BD54000020F0B50B30154D20F0EE
:105A840007010024144A0FE003688B420BD38B42B6
:105A940005D95E1A43184768C3E9006700E0436804
:105AA400136002C004E0021D10680028ECD12046F7
:105AB400002802D1286808B10020F0BD064A074832
:105AC4001060074A121A22F00702C0E900240120DC
