:020000040000FA
:10000000C0150020B92A0000C11C0000A70600008E
:10001000A7060000A7060000A7060000A70600002C
:10002000000000000000000000000000C52A0000E1
:10003000A706000000000000051D0000FB2B0000CB
:1000400047350000F532000041340000473500001C
:1000500049360000154600002D470000E14600002B
:10006000A3450000154600002D470000E1460000B2
:10007000A3450000154600002D470000E1460000A2
:10008000A3450000814B0000B54B00003D4B000034
:100090005F4B0000154600002D470000E1460000C0
:1000A000A345000000000000000000000000000068
:1000B0000000100800000000000000000000000028
:1000C0000000080000000000000000000000000028
:1000D00040003500030B0000000000000374000026
:1000E000027300000273000002730000027300003C
:1000F0000273000002730000027300000207000098
:10010000050500000370E0000571C000006060009C
:10011000006060000060600000606000000000009F
:10012000E41E00200C1F0020FC1E00208C1E00205E
:10013000101F0020F01E0020F41E0020E81E0020EA
:10014000EC1E0020141F0020F81E00204D65737364
:100150006167655F4D616E61676572000000000058
:10016000000000000000000000000000000000008F
:10017000000000000000000000000000010000007E
:100180001D0000000A000000040000000100000043
:100190000E0000000500000001000000000000004B
:1001A000506A000000000000010000000000000094
:1001B000003E00004C0100200100000094000020DF
:1001C0000000080000000000000000000000000027
:1001D0000000100800000000000000000000000007
:1001E0004000350040003D00000008000000000015
:0801F000000000000000000007
:020000040000FA
:1001F8002DE9F05F0546002092469B468846064654
:10020800814640241BE0284641464746224600F0E6
:1002180091F853465A46C01A914110D311461846D0
:10022800224600F078F82D1A67EB01084F4622465F
:100238000120002100F06FF817EB00094E41201E45
:10024800A4F10104DFDC484631462A464346BDE8AE
:10025800F09F40EA01039B0703D009E008C9121F79
:1002680008C0042AFAD203E011F8013B00F8013B68
:10027800521EF9D27047D2B201E000F8012B491E94
:10028800FBD270470022F6E710B513460A4604462B
:100298001946FFF7F0FF204610BD10B5002200E018
:1002A800521C835C8C5CA34201D1002BF8D1D8B2DC
:1002B800E1B2401A10BD034611F8012B00F8012BDA
:1002C800002AF9D1184670470246014400E0521C42
:1002D8008A4202D21378002BF9D1101A704710B550
:1002E8004843044606F0F8F9002805D00021002C00
:1002F80002D0641E0155FAE710BD30B404469623B7
:100308000800214604D0B62330BC002200F02BB8E8
:1003180020460021F8E7202A04DB203A00FA02F1FF
:10032800002070479140C2F1200320FA03F31943DB
:1003380090407047202A04DB203A21FA02F000217D
:10034800704721FA02F3D040C2F1200291400843DD
:10035800194670470029A8BF7047401C490008BFCC
:1003680020F00100704710B4B0FA80FC00FA0CF0DD
:1003780050EA010404BF10BC704749B1CCF1200415
:1003880021FA04F411FA0CF118BF012121430843A2
:10039800A3EB0C01CB1D4FEA00614FEA102042BFCE
:1003A800002010BC704700EBC35010440029A4BFC4
:1003B80010BC7047401C490008BF20F0010010BC69
:1003C800704770B541F26466C2F2000634680CB139
:1003D800204670BD054601207821FFF780FF80B1D7
:1003E800044695E807006267C4E90001346001F03B
:1003F800D1FD0028ECD0204605F080FE00243460B2
:10040800E6E70024E4E770B5044644F8201F0646F2
:100418000020082B1D46C4E90100206128BF0825DB
:10042800257332B12BB106F1340011462A46FFF785
:1004380010FF30682921224601F05CFFB0FA80F0F5
:10044800400970BD41F2F050C2F20000017801B1DC
:10045800704781B00121017041F20401CEF2000120
:100468000968009141F2E851C2F20001009A0B6854
:100478009A4206D241F2EC52C2F2000213680133EA
:100488001360009A0A600021017001B070470000F3
:1004980080B52DED028B00F070F841F20860C2F2D1
:1004A8000000D0E90001FFF728FF08EE100A41F22A
:1004B8001060C2F20000D0E90001FFF71EFF01EE54
:1004C800100A41F21860C2F200009FED0A0AD0E952
:1004D800000128EE000A30EE018AFFF70EFF00EE59
:1004E800100A9FED051A20EE010A30EE080ABDEC4D
:1004F800028B80BD00007A446F12833A4EF6FC519D
:10050800CEF200010A684FF0000C42F080720A60D7
:1005180041F20001CEF20001C1F804C00B6844F2B8
:100528004022C0F20F0200FB02F043F001020A6011
:1005380041F2DC51C2F20001086044F6D351C1F225
:100548006201A0FB0112910941F2E052C2F20002DD
:1005580011604DF68361C4F21B31A0FB0101880CC8
:1005680041F2E451C2F20001086041F2EC50C2F2DB
:100578000000C0F800C0FFF765BF70B582B041F257
:100588000400CEF2000000680190FFF75BFF41F223
:10059800EC50C2F200000068019C00254FF0FF31CA
:1005A800E0FB014541F2DC50C2F20000066820463B
:1005B800294632460023FFF71BFEA0FB062301FB5A
:1005C8000633A41A41F2E052C2F200029D4141F200
:1005D80008631668C2F20003C3E9000120462946F1
:1005E80032460023FFF704FE41F21062C2F2000215
:1005F800C2E90001A0FB060201FB062141F2E45218
:10060800C2F20002201A126865EB01010023FFF70D
:10061800EFFD41F21862C2F20002C2E9000102B025
:1006280070BD10B5044601201021FFF758FED4E92B
:1006380001122388002BC26042F20532038108BFF1
:100648006423C2F20002038013784160591C1170C0
:1006580041F2C461C2F2000141F8230010BD0188D3
:100668000181704770B542F20534C2F20004207867
:10067800A0B141F2C4660025C2F2000656F8251062
:100688000A891AB1013A0A8105E000BF4A6812B125
:10069800C8689047207801358542EFD370BD00BE09
:1006A8007047000080B5C820FFF728FF41F234608A
:1006B80046F6E011C2F20000C0F2000102F033FA7F
:1006C80042F2285046F61C51C2F20000C0F2000166
:1006D80002F0C4FB43F2A801C2F20001086000F076
:1006E800E1F841F26861C2F20001086042F28470E8
:1006F80046F69051C2F20000C0F2000100F0E2F9A3
:1007080041F64061C2F2000108600AA0342101F0FC
:1007180035FB41F65C01C2F20001086008A04FF405
:10072800EA7102F04BFA41F66821C2F20001086052
:1007380080BD00BF64756D6D795F636D64000000F6
:1007480064756D6D795F66656564000070B58CB021
:1007580041F66820C2F2000041F66C240068C2F23B
:100768000004214602F015FA00F034FB02F0BCFB4D
:1007780041F2F250C2F20000018801318AB20180D0
:10078800042A16D3002104F1100E01809EE80F50B0
:10079800D4E90A568DE80F5004F130030FCB0DF160
:1007A800200C8CE80F0068460C21CDE9065602F0B3
:1007B800D1F941F65C00C2F20000006841F6600120
:1007C800C2F2000101F0BCFA0CB070BDF0B581B006
:1007D80000F082FD42F20835C2F20005284600F01A
:1007E800ABFD95E84F1041F26C67C2F2000787E84D
:1007F8004F1041F69406C2F2000606F19800002157
:100808006FF0170205F118039D585C5C40F8145C02
:1008180004700131043200F13400F5D141F28465ED
:1008280042F2A830C2F20005C2F2000039462A4658
:1008380000F0C6FFD7E900013061B8687161F96856
:10084800C6E90601D7E9040130622868716269685F
:10085800B062A868F162E968306328697163696900
:10086800B063A869F163E9693064286A7164696AE8
:10087800B064A86AF164E96A3065286B7165696BD0
:10088800B065D5E90E02C6E9171041F62800C2F294
:100898000000016872663160D0E90101C6E9011003
:1008A80001B0F0BD42F2A830C2F20000704700006B
:1008B80010B5AEB01CAC46F66811C0F20001204677
:1008C8004822FFF7C6FC42F2A830C2F200002146D7
:1008D80000F0F6FE6C4646F6F801C0F2000120462C
:1008E8007022FFF7B6FC204600F03EFE42F2C01030
:1008F800C2F200000721002301704FF07C51C4F2BE
:10090800FA33C0E90131002100224FF4FA74C4F22D
:100918004821C0E9032144610DA04FF4EA7101F0B8
:100928002DFA41F6E051C2F2000108600BA0342113
:1009380002F044F941F6E451C2F20001086042F2C3
:100948000730C2F20000012101702EB010BD00BFB7
:1009580064756D6D795F66656564000064756D6DBD
:10096800795F636D6400000042F20730C2F2000054
:100978000078012818BF7047B0B52DED028B41F6FD
:10098800E450C2F2000041F628040068C2F20004F4
:10099800214602F0FEF8206801280CD058BB9FEDD4
:1009A800488A451CB0EE480AE8B200F038FE013526
:1009B800082DF7D15CE0606801283BD0002857D1AA
:1009C800B3EE0E8A012094ED060AF0EE480A00F014
:1009D80029FE94ED070AF0EE480A022000F022FEF4
:1009E80094ED080A0320F2EE0E0A00F01BFE94EDC7
:1009F800090A042038E020F00100022838D1B3EEBB
:100A0800048A012094ED060AF0EE480A00F00AFE76
:100A180094ED070AF0EE480A022000F003FE94ED78
:100A2800080AF0EE480A032000F0FCFD94ED090ADC
:100A380004200BE094ED080A0320F2EE0E0A00F001
:100A4800F1FD94ED090A0420B3EE0E8AF0EE480A8F
:100A580000F0E8FD94ED0A0AF0EE480A052000F0DF
:100A6800E1FD94ED0B0A0620F0EE480A00F0DAFDED
:100A7800FFF7ACFEA06802280BD142F2C010C2F208
:100A8800000094ED0C0AD0ED040A072000F0CAFD1E
:100A980006E0C1B242F2C010C2F2000000F096FCBB
:100AA80041F6E050C2F20000006841F69401C2F23B
:100AB8000001BDEC028BBDE8B04001F041B900BFB8
:100AC8000000000080B588B040F65D3205ABC0F28A
:100AD800000207C319208DF8100004A802F086F957
:100AE80010A2D2E9012141F64863DFF838C0C2F20A
:100AF8000003186001A8CDE901C20391FFF791FD39
:100B080041F63C61C2F2000141F6446208600121ED
:100B180041F6E850C2F20002C2F20000117008B0BB
:100B280080BD00BFC8000000390B000000000000B5
:100B380080B541F6E850C2F200005421FFF7A2FB4D
:100B480041F64860C2F200000068BDE8804002F04B
:100B580083B900002DE9F04F8BB041F6486042F2AE
:100B68000078C2F20000C2F200080168B8F800007C
:100B780042F202760022C2F2000600BF8B5C87B206
:100B880001300132192A00F07F00F355F6D142F204
:100B98008277C2F20007398800F18002521A02EB0C
:100BA8005263A8F8000023F07F03D21A192AC0F074
:100BB8000E8141F6E8540DF11305C2F2000400BF9E
:100BC800725C0F2A05D101F1180202F07F02B25CB3
:100BD80072B1013101F07F01398082B2521A80323C
:100BE80002EB526323F07F03D21A182AE8D8EEE00A
:100BF800002000BF8AB20131B25C01F07F012A54A3
:100C080001301928F6D19DF8130039800F2840F0DB
:100C1800DA809DF82B00002840F0D5809DF81480DC
:100C28009DF815009DF817209DF8161060F30A2806
:100C3800C308900040EA911E9DF8180061F34A131A
:100C48009DF8191060F38A2E400861F3CA109DF8C8
:100C58001B700190608308099DF81A107F0061F3EA
:100C68000A1047EAD1199DF81C109DF81D2061F360
:100C78004A294FEA910A9DF81E109DF820C0C90024
:100C880062F38A1A41EA521B9DF821204FEADC01DF
:100C980062F34A11A8F580622280A3F58062A4F865
:100CA8001480A4F818E0CDF80880F0466280AEF50C
:100CB8008062DDF804E09DF81F70A280AEF58062C6
:100CC8006CF30A27E280B0F5AF6F4FF0030240F2F1
:100CD8008A2CE382A083A4F81E90A4F820A0A4F88C
:100CE80022B0A784E184039388BF0222604538BFFD
:100CF800012203202281B9F5AF6F88BF0220E145A8
:100D080038BF012060810320BAF5AF6F88BF022089
:100D1800E24538BF0120A0810320BBF5AF6F88BF33
:100D28000220E34538BF0120E081A7F1F0002082CE
:100D3800AEF2064080B24FF6F5729042A8F2064035
:100D480080B2A1F1F0014FF00003618228BFE38077
:100D5800904228BFA380029842F20078A0F2064091
:100D680080B242F28277904228BF23800398C2F271
:100D78000008A0F2064080B2C2F20007904228BFE5
:100D88006380002034F810100AB281EAE231A1EB46
:100D9800E23189B2B1F5617F88BF24F810300130A3
:100DA8000428EFD1012084F8280004F12A00214604
:100DB8002A22FFF74EFA41F63C60C2F200000068B2
:100DC80008B1FFF74CFCB8F80000398805E70BB00C
:100DD800BDE8F08F10B52DED048B41F64064C2F2EA
:100DE800000420689FEDBC9AB0F910009FEDBB8A03
:100DF80000EE100A9FEDB71AB8EEC00AF0EE490AE5
:100E0800F0EE491AB0EE482A02F033FD2168C8898D
:100E1800022806D141F66000C2F2000000210160FC
:100E280054E1B1F91200B0F5447F41F66000C2F216
:100E38000000BABF80ED0C0A022201228B89826071
:100E4800022B08D0032B16D1022140F8181B1821B9
:100E5800FFF718FA3AE1022100220023016000217D
:100E6800C4F29622C4F2B4238161C0E90723C0E921
:100E78000911C1622AE14A89012A2ED0032A29D000
:100E8800022A40F0A78043F2A801C2F200010968D3
:100E9800022251F8013F026083F0004282614A68F1
:100EA8008B6800EE102A9FED8F1A9FED8F2A31EE86
:100EB800400A01EE103ACA6880ED070A0B6932EE63
:100EC800411A4969426280ED081A83F00042826241
:100ED800C1627FE0012101607CE00B890122022BC5
:100EE80002603BD14260B1F90020B1F90430B1F998
:100EF8000240B1F9061000EE103A04EE101AB8EEEE
:100F0800C00A9FED771AB8EEC44A20EE010A90EDA8
:100F1800082A90ED093A24EE014A30EE020A34EE2E
:100F2800032A03EE104A04EE102AB8EEC33AB8EECC
:100F3800C44A90ED0A5A23EE013A24EE011A90EDC4
:100F48000B4A33EE053A31EE041A80ED080A80EDBB
:100F5800092A80ED0A3A80ED0B1A3BE00022426034
:100F6800B1F90020B1F9023000EE102A04EE103A6F
:100F7800B8EEC00A9FED5A1AB8EEC44AB1F9044057
:100F8800B1F9061020EE010A90ED062A90ED073A15
:100F980024EE014A30EE020A34EE032A03EE104A28
:100FA80004EE101AB8EEC33AB8EEC44A90ED085AE7
:100FB80023EE013A24EE011A90ED094A33EE053A80
:100FC80031EE041A80ED060A80ED072A80ED083A12
:100FD80080ED091A90ED061A9FED440AB4EE401A06
:100FE800F1EE10FA02DA80ED060A08E09FED400AF9
:100FF800B4EE401AF1EE10FAC8BF80ED060A90ED83
:10100800071ABBEE0E0AB4EE401AF1EE10FA02DA35
:1010180080ED070A08E09FED370AB4EE401AF1EEBA
:1010280010FAC8BF80ED070A90ED080AB5EE400A2D
:10103800F1EE10FA02DA80ED089A08E09FED2E9A98
:10104800B4EE490AF1EE10FAC8BF80ED089A90EDA7
:10105800091A9FED2A0AB4EE401AF1EE10FA02DAE4
:1010680080ED090A08E09FED240AB4EE401AF1EE7B
:1010780010FAC8BF80ED090A90ED0A1A9FED200A00
:10108800B4EE401AF1EE10FA02DA80ED0A0A08E02E
:101098009FED1C0AB4EE401AF1EE10FAC8BF80EDBD
:1010A8000A0A90ED0B1A9FED180AB4EE401AF1EEF9
:1010B80010FA02DA80ED0B0A08E0B4EE481AB0EE36
:1010C800480AF1EE10FAC8BF80ED0B0ABDEC048B9C
:1010D80010BD00BF00E0C344000000000000B4439E
:1010E80052499D39000096420000B44200002FC3C7
:1010F80000002F430000164300003443000034C3AF
:101108000000F0C20000F0420000B4C342F2003018
:10111800C2F20000006842F2E0120021C2F20002AE
:10112800117001F099BE000042F20030C2F20000D6
:101138000168002975D02DE9F04F87B042F2DC1222
:1011480091F80031C2F20002108863B142F2E1174F
:10115800C2F2000711F8016B85B20130013BC0B241
:101168007E55F7D1108042F2DE19C2F20009B9F8B3
:101178000010401A5FFA80FABAF11B0F4ED342F200
:10118800E11742F2E42B6E46C2F200074FF6FB78F5
:10119800C2F2000B88B200228318DBB2FB5CB354A6
:1011A80001321B2AF8D19DF80000AA282CD1BDF8DD
:1011B8001900404528D19DE83D10AAF11B0A8BE88B
:1011C8001D00BDF8180042F2E012ABF818009DF8B7
:1011D8001A00C2F200028BF81A0001F11B00C1B21A
:1011E80042F2D810C2F2000000680123CBF8105078
:1011F800CBF814C0A9F80010137058B1FFF72FFAF4
:10120800B9F8001006E000BF481CC1B2AAF1010AF3
:10121800A9F800101FFA8AF01A28BBD807B0BDE851
:10122800F04F70474169C1F3C312A2F1080313F1EB
:10123800070F4ED301F07F01A1F12103042B88BFD2
:10124800704710B541F6404E4FF0340CC2F2000E14
:1012580012FB0CE1DFE803F0033612300C00027CCD
:10126800042A34D382684A62027C052A20D22EE0FE
:10127800027C042A24BF8068886228E0037C042B4F
:1012880025D3836842F22834C2F2000400EE103AF3
:101298009FED101A04EB021220EE010A92ED001ADB
:1012A8008B6180EE010A027C052A81ED070A0ED3C4
:1012B800007B81F830000AE0027C042A07D38068AA
:1012C800C86204E0027C042A01D380680862BDE891
:1012D800104070470000B44370B52DED048B002416
:1012E800FFF7D6F8B0EE408A9FED129A41F64045D6
:1012F800C2F20005002600BFA91991F8450001288F
:1013080010D191ED120A38EE400AB4EE490AF1EE16
:1013180010FA07DD91F8440081F8454001210122C7
:1013280001F0EDFB3436B6F5B67FE5D1BDEC048BA4
:1013380070BD00BF00007A44F8B12DE9F0412DEDF1
:10134800028B00F1180800276FF017067D1CECB21D
:10135800204600F013F82046B0EE408A00F022F84C
:1013680008EB060181ED008A08F8070004362F46CD
:10137800ECD1BDEC028BBDE8F0417047A0F108014B
:1013880011F1070F3CBF9FED060A704741F6404137
:10139800C2F20001342210FB021090ED070A7047D8
:1013A80000000000A0F1080111F1070F3CBF002068
:1013B800704741F64041C2F20001342210FB02108E
:1013C80090F83000002818BF0120704770B5002839
:1013D80000F0C88004780546A4F10800C0B2F928D6
:1013E800C0F0C080012915D0002940F0BB8095EDE0
:1013F800030AD5ED040A204600F014F941F2F4502E
:10140800C2F200000021017041F2F850C2F200005F
:10141800016070BD41F2F456C2F20006307801282E
:1014280014D0002844D141F64040C2F200003421D3
:1014380014FB0100002195ED010AD5ED040A416273
:10144800204600F0EFF80120307070BD41F2FC51E9
:10145800C2F2000108780130C2B2052A08700CD324
:1014680041F20060C2F20000006800220A7020B158
:10147800E10121310023FEF7C6FF41F64040C2F2E8
:101488000000342114FB010095ED021A90ED090AC1
:1014980041F2F851B0EEC00AC2F20001B4EE410ABE
:1014A8000B68F1EE10FA3ADAA3F13200086059E05D
:1014B80041F2F551C2F2000108780130C2B2052AA2
:1014C80008700CD341F20060C2F2000000680022EC
:1014D8000A7020B1E10121310023FEF794FF95ED58
:1014E800010A95ED031A41F64040B4EE410AC2F2F2
:1014F8000000B8EE080A3421B0EE081A14FB010007
:10150800F1EE10FA31FE000A90ED071AD5ED040A43
:1015180030EE010A2046BDE8704000F083B86A69E1
:10152800013393420B601DD9B3EB420F84BF5200C5
:101538000A6095ED010A95ED031AD5ED040AB4EE9B
:10154800410AB8EE080AB0EE081AF1EE10FA31FEB8
:10155800000A90ED071A204630EE010A00F062F802
:10156800022071E770BD00002DE9F04385B042F21A
:101578000638C2F2000898F8001000294CD1054638
:1015880042F29440C2F20000019046F6B440C0F224
:101598000000029041F22D20C0F20000039001A843
:1015A800FEF70FFF814641F20060C2F20000C0F86A
:1015B800009095B142F228300021C2F2000000BF2D
:1015C8006A18D2E901746B581031D2680E18702964
:1015D8000B50C6E90174F260F2D141F64045C2F2FF
:1015E800000528464FF4D071FEF74CFE05F1440083
:1015F800012100BF00F8341B01310829FAD1012567
:10160800B9F1000F049505D004AA48460121042326
:10161800FEF7F9FE88F8005005B0BDE8F083032115
:1016280001F058BAA0F1080111F1070F38BF70474F
:1016380080B582B042F22831C2F2000101EB0011FC
:101648009FED1D3A91ED031A91ED022A81FE400AA1
:101658009FED1A1A82FE000A80EE010A80EE811AB6
:1016680091ED002A0979B4EE423AB7EE003AF1EE6C
:1016780010FA33FE022A002941F20061C2F2000189
:101688000B6822EE003A22EE400A21EE021A03FE0F
:10169800000AB0EEC11A8DED000A8DED011A33B1C2
:1016A800C001C11D6A4618460823FEF7ACFE02B009
:1016B800BDE88040704700BF6F12833A0000B44312
:1016C80010B548220446FEF7C4FDD4ED0F0A94ED88
:1016D800100A20EEA06A20EE005A94ED0C3A36EE7D
:1016E800055A84ED133AB1EE433AB1EEC56A84ED7A
:1016F8002B3AB1EE403A84ED303A40F6DB729FED7A
:101708002E3A94ED0D4AB4EE435A94ED0E1A9FED1D
:101718002B3AF1EE10FA40F6DB7194ED112A84EDC4
:10172800144A84ED2A4A21EE014A4FF0000084ED64
:10173800181ACBF6C97284ED1B0A36FE033AC3F6B3
:10174800C971C4ED1F0AA06484ED272AC4E91522D3
:1017580084ED2D1AE065C4ED320AC4E9190184ED5F
:10176800352AC4E91C0184ED364AA06784ED371A8E
:10177800C4E9200284ED385AC4F8880084ED393A67
:10178800C4F88C00C4F89000C4F89410C4F8980009
:10179800C4E92800C4F8B000C4F8B800C4F8BC0014
:1017A800C4F8C400C4F8CC00C4F8D00004F0CEFCDF
:1017B80084ED3A0A10BD00BFBD3786350000000031
:1017C8002DE9F0472DED0A8BF0B09FED06CA914642
:1017D8000E46804600F1540500240DF1E80A002762
:1017E80004E000BF34FA8E3C00000000B6EC010AA9
:1017F80015ED031A20EE0C0A30EE018AB0EE480A05
:1018080004F0FAFDB0EE409AB0EE480A04F09CFEEF
:1018180095ED008AB0EE40AAB0EE480A04F0ECFD5F
:10182800B0EE40BAB0EE480A04F08EFE0AEB0700AC
:101838002BEE4A1A2AEE002A29EE0B3A20EE494AE4
:10184800243780ED009A103580ED011AD82F80EDED
:10185800022A80ED03AA846180ED043A80ED054AEE
:1018680080ED070A80ED08BAC0D11FED210A0AF100
:10187800240E00210DF1C40C534600BF01EB4100BA
:1018880000260CEB80077546B0EE401A0024284667
:101898001A1992ED002A90ED003A043422EE032A38
:1018A8000C2C32EE011A00F10C00F1D107EB860086
:1018B8000136032E80ED001A05F10405E4D101314B
:1018C800032903F10C03D9D11FED390A0AF1480E97
:1018D800002131AA0DF1A00C01EB410000260CEB10
:1018E80080077546B0EE401A00242846131993ED78
:1018F800002A90ED003A043422EE032A0C2C32EE32
:10190800011A00F10C00F1D107EB86000136032E15
:1019180080ED001A05F10405E4D10131032902F133
:101928000C02D9D19FEDDE0A0AF16C0E002128AA1B
:101938000DF17C0C01EB410000260CEB800775468D
:10194800B0EE401A00242846131993ED002A90EDB2
:10195800003A043422EE032A0C2C32EE011A00F16C
:101968000C00F1D107EB86000136032E80ED001A3A
:1019780005F10405E4D10131032902F10C02D9D1A2
:101988009FEDC70A0AF1900E00211FAA0DF1580C0D
:1019980001EB410000260CEB80077546B0EE401ABB
:1019A80000242846131993ED002A90ED003A0434D8
:1019B80022EE032A0C2C32EE011A00F10C00F1D1B0
:1019C80007EB86000136032E80ED001A05F10405A9
:1019D800E4D10131032902F10C02D9D19FEDB00AFB
:1019E8000AF1B40E002116AA0DF1340C01EB4100E6
:1019F80000260CEB80077546B0EE401A00242846F6
:101A0800131993ED002A90ED003A043422EE032ACC
:101A18000C2C32EE011A00F10C00F1D107EB860014
:101A28000136032E80ED001A05F10405E4D10131D9
:101A3800032902F10C02D9D19FED990A08F1A800F7
:101A480000213AAA0AAB00BF03EB8107B0EE401AA7
:101A5800002600BF951995ED002A851995ED003AE5
:101A6800043622EE032A0C2E32EE011AF2D101318D
:101A780087ED001A032902F10C02E5D19FED880ACF
:101A880008F1B400002131AA07AB00BF03EB8107BE
:101A9800B0EE401A002600BF951995ED002A851969
:101AA80095ED003A043622EE032A0C2E32EE011A86
:101AB800F2D1013187ED001A032902F10C02E5D1B8
:101AC8009FED770A08F1C000002128AA04AB00BFE7
:101AD80003EB8107B0EE401A002600BF951995ED7B
:101AE800002A851995ED003A043622EE032A0C2EB9
:101AF80032EE011AF2D1013187ED001A032902F101
:101B08000C02E5D19FED660A08F1CC0000210DAA70
:101B180001AB00BF03EB8107B0EE401A002600BFFF
:101B2800951995ED002A851995ED003A043622EEAF
:101B3800032A0C2E32EE011AF2D1013187ED001A78
:101B4800032902F10C02E5D19DED0A0A9DED073A41
:101B58009DED0B1A30EE030A9DED043A9DED0C2A1B
:101B680030EE030A9DED013A9DED084A9DED095AB4
:101B780030EE030A9DED056A9DED067A31EE041AF2
:101B880032EE052A0DAF89ED000A9DED138A8FCF3D
:101B98009FED440ADDED020ADDED031A31EE061A67
:101BA80032EE072ADDE91265B0EEC83A09F1180CE1
:101BB8008CE88F001598B4EE403A31EE201A32EED8
:101BC800212A149CF1EE10FAC9F8380089ED011A9F
:101BD8004FF0010089ED022AC9E90B65C9F83440C4
:101BE80089F83C0038DA9DED109A9DED0DAA29EE92
:101BF800090A2AEE0A1A31EE000AF1EEC00AB1EE1D
:101C0800480A04F0A3FAB0EE408A04F0F5FB9FED11
:101C1800281AB0EEC02AB4EE421AF1EE10FA31FEDC
:101C280000BA89EE0B0ACAEE0B0A04F08FFA9DED92
:101C3800141A9DED152A81EE0B1AC2EE0B0AB0EEAE
:101C4800409AB0EE410A04F081FA9FED1A1A28EE84
:101C5800012A29EE011A13E09DED0E0ADDED110AA5
:101C680004F074FAB5EE408A9FED0D1AF1EE10FA01
:101C780002DA9FED0D2A03E09FED0C2AB1EE400A2F
:101C88009FED0C3A012089ED042A20EE030A89ED24
:101C9800051A89ED030A70B0BDEC0A8BBDE8F08720
:101CA8000000000072F97F3F0000B4420000B4C297
:101CB80017B7D138E12E65422DE9F04146F22018D8
:101CC800C4F20008B8F80000B8F8201041F64C65D6
:101CD80001EA0006B7B20024C2F2000527FA04F0B0
:101CE800C00704D055F8241009B1204688470134AC
:101CF800102CF3D1A8F81060BDE8F0810F4B1968DB
:101D0800EFF309821EF0100F08BF22ED108A22E9B6
:101D1800F04FEFF30B8342F8043D0A604FF01000D8
:101D280080F31188BFF34F8FBFF36F8F03F08EFAE4
:101D38004FF0000080F3118802F068BB1C260020D9
:101D4800F0B581B0466AB6B104460D46002700BF1B
:101D5800307A2946012804BFB7713772F079628C4E
:101D680056F82000FEF775FA307AF77101303072B4
:101D7800F668002EECD1012001B0F0BDF0B581B0BD
:101D88000C4621210546FEF79FFA1F2801D900BFFE
:101D9800FEE740F20C17C2F2000700BFBE6A66B148
:101DA80030462946FEF779FA00283746F6D1708C76
:101DB800844230460BD000BFFEE701203021FEF7F9
:101DC8008EFA2946B8624484FEF775FA3E46012128
:101DD80086F82C1001B0F0BDB0B543F22404C4F26B
:101DE80008040025C8200121257100F082F825701B
:101DF80020780028FCD1207840F00200207000BF35
:101E080020788007FCD4002004F8020C14F8020C97
:101E18000028FBD1002004F11C0100BF11F810209C
:101E280002F07F0201F8102011F91020002AFBD4DB
:101E380001300328F2D1012000F00BF84EF2BB422A
:101E48000021C4F2010201201170BDE8B04000F089
:101E580027B880B50122EFF3108182F3108841F68C
:101E68001872C2F2000232F810308BB94EF2FE3C02
:101E780046F6E433C4F2010CC0F20003BCF800E0FB
:101E880033F8103043EA0E0343F42543ACF800302E
:101E980032F81030013322F8103081F3108880BDF9
:101EA8000122EFF3108182F3108841F61872C2F212
:101EB800000232F8103023B132F81030013B22F81A
:101EC800103032F810208AB94EF2FE3CC4F2010CF0
:101ED80046F6E432BCF80030C0F2000232F81000D6
:101EE80043F4254222EA0000ACF8000081F3108890
:101EF800704741F22062C2F20002126801FB00F052
:101F080041F20021C0F27A018A420FD340F6FF0164
:101F1800C0F23D0111444DF68362C4F21B32A1FBAD
:101F28000212110DA0FB0101E9B11FE04CF60021DE
:101F3800C3F69A3148F63813C0F24103B1FBF2F107
:101F4800984207D24FF47A7200FB02F0B0FBF1F02E
:101F5800800808E08900B0FBF1F0984206D24FF4FF
:101F68007A7100FB01F028B101F02DB94FF0FF3074
:101F780001F029B970477047022818BF704741F629
:101F8800007046F6E421C2F20000C0F2000100F041
:101F98004FBB00002DE9F04F81B0834608688A46A0
:101FA8000090D1E902010027DAF81090C4F20B077B
:101FB8000022CBF81C100121CBE9007ACBE90502FD
:101FC800D9F81C80EFF3108081F3108844F20801DF
:101FD800C4F208010A684EF2034C22F000620A605B
:101FE800096880F310884EF20016D7F88C0046F284
:101FF800003542F25C14CEF2000CCEF20006C007A7
:10200800C4F20005C2F2000455D06446D7F88C002B
:102018000007FBD45846812102F09EF8D8F8040046
:1020280041F21431C7F884004FF48030C7F89C009F
:102038000120C4F20B010860D8F82800C7F8AC00EA
:10204800002000BF08EB800107EB8002896801309F
:102058000828C2F8C010F5D198F82D00A446000150
:10206800607042F25C140020C2F2000446F20035AF
:102078002061C4F2000529694EF2001621F480316E
:10208800296129691021CEF20006BFF35F8FC6F8D7
:1020980080113160D8F80010C7F8881008F13001B5
:1020A80051F8202007EB8003013022F001020628B6
:1020B800C3F82021F4D198F82C00A04600018CF830
:1020C8000000C4F80CB0E86820F48030E860E868E4
:1020D8000820BFF35F8FC6F88001306042F25410C9
:1020E800009CC2F2000040F824B04FF48070012C2C
:1020F800C7F8980021D0D9F80010C7F89800D1F88F
:1021080000C04A688B68C96841F60C00C4F20B002D
:10211800016041F6080041F60401C4F20B00C4F264
:102128000B0103600A6041F60001C4F20B01C1F81B
:1021380000C0016864F3C71101600020C7F8980067
:102148005846012102F008F8DAF804004EF20016A9
:1021580090E80E00C06801396FF39F2141EA4241BF
:102168005A1EA1F5003141EA42614FF60042CFF60E
:10217800FF7202EB802046F20035084321017850B7
:10218800D9F81400CEF2000690E80E00C0680139B4
:10219800C9B241EA02210022CFF6FF7202EB0342E4
:1021A800A1F580711143013841EA006041F2143110
:1021B800C4F20B0101EB4411C4F20005C1F8EC00B4
:1021C800D9F814004068FF2828BFFF2099F8182084
:1021D800000440EA422040F201421043C1F8F000F6
:1021E800D9E9021207EBC400C0F8501FC0F8542FF9
:1021F800D9F8100007EB041140F003004860DAF842
:10220800180000281DD49AF814103218090182F811
:10221800001348F820B055F82010012321F480312C
:1022280045F8201055F8201000F01F01400906EB72
:10223800800203FA01F1BFF35F8FC2F8801146F8FC
:102248002010DAF8200000281DD49AF8141032184B
:10225800090182F8001348F820B055F8201000F062
:102268001F0221F4803145F8201055F82010012371
:10227800400903FA02F206EB8003BFF35F8FC3F84D
:10228800802146F82020DAF81C0000281DD49AF88E
:1022980014103218090182F8001348F820B055F8D4
:1022A8002010012221F4803145F8201055F8201023
:1022B80000F01F01400906EB800302FA01F1BFF3A9
:1022C8005F8FC3F8801146F820105846802101F02E
:1022D80043FF58460021002501F03EFF44F24460C8
:1022E800C5F24320CBE902050020CBF8105001B01D
:1022F800BDE8F08F10B59368D2E900E4D0F804C0C7
:102308004EEA8373DCF800C043EAC47E272916D955
:102318000CEB4C0304680B44A3F1280C04EBCC131E
:102328004FF4C84443F804E0137B092B27D3182B38
:1023380022D803F57E73082404EB93031FE041EAD7
:102348008C1C036803EB0C0494F8D047240744BFA3
:102358004EF6632010BD03EBCC134FF4803443F8E2
:1023680004E0137B092B28D3182B23D803F57E739D
:10237800082404EB930320E00B2404EB13130468F4
:102388004FEA037E04EBCC1446F2044344F803E01E
:102398000468136904EBCC1403F0070E46F20843F3
:1023A80044F803E0036846F20C4403EBCC1303EB58
:1023B800040E1DE00B2404EB131304681B0704EB45
:1023C800CC1E0424C0F201044EF8043003681469DA
:1023D80003EBCC1E082304F00704C0F201034EF8F7
:1023E8000340036803EBCC1303F5803303F10C0EB1
:1023F800137B3BB1143200BF12F8014B013B0EF8BE
:10240800014BF9D10068272905D900EB8C00FF2181
:10241800C0F8401203E06044012180F8D012002087
:1024280010BD062070470146406846F20032C4F2EB
:10243800000252F8203023F0807342F8203040F236
:102448000002C2F20002002342F8203000200B6094
:102458007047416846F20032C4F2000252F8210087
:1024680020F08073002042F821307047416846F21E
:102478000032C4F2000252F8210040F080730020BC
:1024880042F821307047406840F20002C2F2000270
:1024980052F820000022C1E90022C278402A05D261
:1024A8004FF480328A60C089C8600FE04FF48072B0
:1024B8008A60C289D2B2CA60C27802F0C002802A99
:1024C80004D14FF480320A60808948600020704748
:1024D800F0B581B042F29862C2F20002137840F27D
:1024E80000060D460446C2F20006D3B9012744F29D
:1024F80000011770EFF3108087F31088C4F2080109
:102508000A6822F480020A60096880F3108830465D
:102518006421FDF7B7FE45F20C40C4F20000866066
:10252800077068680068002804D456F8201019B1AC
:1025380008200DE00B200BE02968606011B12046EF
:1025480001F0A0FE44F20030C4F2544020600020A4
:1025580001B0F0BDB0B50446406846F20035C4F29B
:10256800000555F8202022F0807245F82020606888
:1025780045F20E4240F40040C4F20002138898422B
:10258800FCD0204601F07EFE616855F8210040F03D
:102598008072002045F82120B0BD06207047000059
:1025A80010B582B001910092416840F2000246F2F3
:1025B800003CC2F20002C4F2000C52F821E05CF8C0
:1025C800212022F080724CF82120426845F20E4109
:1025D800C4F2000142F400420C88A242FCD0082256
:1025E8008A70019A12B1019ACEF80420009A12B1A9
:1025F800009ACEF808209EF8032002F0C004802C30
:1026080002D1AEF80C3003E03F2A98BFAEF80E3086
:1026180018228A7041685CF8210040F0807200201E
:102628004CF8212002B010BD0620704706207047E4
:1026380080B545F25422C5F24F020260084601F007
:1026480043FE002080BD00002DE9F04381B00A78E8
:102658000D460121914011F0060F044605D0286C63
:10266800C0680078000700F1C28048F20000C4F298
:10267800110040EA02200022206240F2F9300840AE
:1026880018BF0120E56100012070D5E90E01A262A2
:102698006062A078E16220F00300411CA1706968C3
:1026A80011B940F00200A070EE6A4EF2001806F070
:1026B8001F014FF0010CCEF200080CFA01F308F1EB
:1026C8008001770995F8282041F82730BFF34F8F0C
:1026D80046F20039C4F20009BFF36F8F59F826306B
:1026E800170123F4803349F8263008F5407259F869
:1026F800263097556F6942F25C1E07F01F00C2F240
:10270800000E0CFA00F07B094EF826402E7C41F8AA
:102718002300BFF34F8FBFF36F8F59F827003301A2
:1027280020F4803049F8270059F82700D355E86984
:102738004EF8274000F01F060CFA06F647092B7ED4
:1027480041F82760BFF34F8FBFF36F8F59F82060B0
:102758001B0126F4803649F8206059F8206013548C
:102768004EF82040686A95F8203000F01F060CFAF1
:1027780006F7460941F82670BFF34F8FBFF36F8FF6
:1027880059F820101B0121F4803149F8201059F81C
:10279800201013544EF82040286B78B14068026826
:1027A8004FF4002042F8040B206A296B431D204691
:1027B80001F00AFE0646002840F01C81686BC0B193
:1027C800406802684FF0006042F8080B206A696BA5
:1027D800C31C204601F0F8FD58B10646286B0028B6
:1027E80000F0088181680068096A884702E10326C9
:1027F80000E10120EFF3108180F3108844F2040710
:102808002A78C4F208074FF000433E6823FA02F220
:1028180026EA02023A603A6881F310880022216AA7
:102828008A70216A0A71216A4A72216A8A72216A47
:10283800CA72216A4A832978884040F2F9310842ED
:1028480002D0206A4021C174206A062101772078CD
:10285800C8B1E269116B00294FF0010105D1126C72
:10286800431E12691A4062F30B21013800F00F0071
:1028780041EA0030216A40F006028A82216A00BFDC
:102888008A8A9042FCD1D5E90112E8684FEAC00073
:1028980040EA021029B1032908BF40F04000F221A4
:1028A80000E0E221226A00271070206A022281716A
:1028B800286C816902EA41020829216A08BF0A22B4
:1028C8004A73236AD0E901121F720368C90123F011
:1028D8000103C9B2022B62F345110AD1226AFF2310
:1028E800537000680228206A08BF41F01001C171C6
:1028F80017E0226AD171C068216A82784A704278EA
:102908000B7802F0030203F0FC031A440A70C27841
:102918008A74CA79007802F0A30200F05C001044BF
:10292800C8710026E169C4E90366C4E90566286C34
:102938004F69017859F8272007F01F0322F48032E5
:1029480049F8272059F82720012202FA03F508F54B
:10295800C0737F09BFF35F8F43F8275048F82750AB
:10296800E769FF6A59F8275025F4803549F8275058
:1029780059F8275007F01F0502FA05F57F09BFF33C
:102988005F8F43F8275048F82750E769FF6959F8DF
:10299800275025F4803549F8275059F8275007F073
:1029A8001F0502FA05F57F09BFF35F8F43F827502B
:1029B80048F82750E7697F6A59F8275025F4803589
:1029C80049F8275059F8275007F01F05AA407F09F2
:1029D800BFF35F8F43F8272048F827201C22236A7B
:1029E80062F39F019970406944F65511C5F243316D
:1029F800C4E90110304601B0BDE8F08370B5044663
:102A0800C0691546006B0E4678B1A178826801F05E
:102A18000301013925FA01F10068D2F808C08BB228
:102A280000213246E04700B170BD0020C4E90565C9
:102A380070BD70B50446006A0E46837803F07B03C8
:102A48008370207808B1314604E0A07800F00300D4
:102A5800121A3118E069C4E90312406B88B182B1D7
:102A6800A3784FF0000C03F00303013BDA408368BE
:102A780000689D6893B20022C4F810C0A84700B14E
:102A880070BD206A817841F080018170207868B932
:102A9800A07800F00300022805D13088216A40F4AC
:102AA8007E40C88102E03078216AC870002070BD7D
:102AB80000F0C8F800F0B4FEFEE700001EF0040FB6
:102AC8000CBFEFF30880EFF30980014908470000C5
:102AD800894E000080B582B007288DED010A0CD818
:102AE80041F20062C2F20002136833B141EAC01138
:102AF80001AA18460423FDF786FC02B080BD80B504
:102B080082B0072801920CD841F20062C2F200029A
:102B1800136833B141EAC01101AA18460423FDF72E
:102B280072FC02B080BD80B584B0CDE9010142F6E7
:102B38005B30C0F200000122039068468DF8002047
:102B480000F054F942F2BC71C2F20001086004B00E
:102B580080BD7047B0B54FF00004C1B10346B0B1B5
:102B680042F2BC75C2F20005286880B190F81021C5
:102B78006AB9012480F81041D0F804018A00194686
:102B8800FFF757FF18B12868002480F81041204645
:102B9800B0BDB0B50546007A002460B1A879AA880E
:102BA80055F8203008461946FDF753FB287AAC71D2
:102BB8000138012428722046B0BD000070B50E46C9
:102BC800FFF7DCF8054601201021FDF788FB0446D5
:102BD8008680304603F080FD206055F8240F28B128
:102BE8000146C0680028FBD101F10C0520462C6085
:102BF80070BD10B51020EFF3118480F3118803F035
:102C08001DF830B14EF60450CEF200004FF080515E
:102C1800016084F3118810BD4EF22000C4F2010057
:102C28008179006841F2C052C2F20002C0F302602A
:102C380052F8211021FA00F041F22061C2F200019D
:102C48000860704710B54EF60850CEF200004FF4F9
:102C58007001C0F8801040F20001C0F2000101606C
:102C680000200024FFF788F900F088F90120FFF719
:102C780083F941F2C010C2F2000080F30A880020F4
:102C880000F032F8FFF7C8FFFFF7A6F80320FFF7B8
:102C9800E0F840F61050C4F208004FF6FF7100BF8C
:102CA80020F8141001340C2CFAD10320FFF7F8F89F
:102CB8000320FFF7CEF80420C4F20E0000210160C3
:102CC80041608160C1600320FFF7EAF80220FFF746
:102CD80053F9012000F008F800F030FA0020BDE8B0
:102CE800104000F029BA0000F0B581B046F668350A
:102CF800C0F200052E68044676B16868071D00BF5B
:102D08007879844204D157E90101091AFDF7BAFA22
:102D1800013E07F10C07F3D1AE6886B1E86800F10F
:102D2800080500BF6879844205D155E9020229687F
:102D3800121AFDF78EFA013E05F11005F2D101B025
:102D4800F0BD0000B0B542F20431C2F200010978CA
:102D580081B10446006842F6C032C2F2000200BFE8
:102D68001568D5F808311B78984204D0013902F16A
:102D78000402F5D1B0BD60680F2806DD102818BF21
:102D88002028F7D04028F5D010E0012802D00828E4
:102D9800F0D00BE0D5F80C0100B18047D5F804015C
:102DA80095F800212946FFF729FE6068022819D006
:102DB8000428DFD1A068B5F81213B5F8142301313F
:102DC8006FF35F21914204D0B5F812232A4482F8A8
:102DD8001101A5F81213D5F80C010028CAD0BDE8D6
:102DE800B0400047002085F81001B0BDF0B581B0B3
:102DF80042F20436C2F200063778032F20D805467F
:102E080001204FF44671FDF76AFA2A1D044607CAE5
:102E1800C4F80C217A1C2B78327042F6C032C2F208
:102E28000002C4E9410184F8003142F82740FFF765
:102E38000BFC48B1204603F061F930780138307056
:102E48000024204601B0F0BDD4F8040194F8002114
:102E58002146FFF7D3FDF4E77047000080B588B03E
:102E6800CDE9050141F23110C0F200001B220790A4
:102E780004A88DF81020FFF7B9FF0EA2D2E90121AE
:102E880042F20033DFF82CC0C2F20003186001A838
:102E9800CDE901C20391FDF7C4FB42F2D812014605
:102EA80042F2E420C2F20002C2F20000116008B04F
:102EB80080BD00BF320000001511000000000000B6
:102EC80042F20032C2F20002136823B10A460146F8
:102ED80093F8100100B17047012083F81001D3F86E
:102EE8000401FFF7A6BD000041F66C21C2F2000103
:102EF80091ED2E0A9FED1D1A43F2AC0091ED3B2A8D
:102F080030EE010A9FED1A1A5A22C2F2000002702E
:102F180010EE102A32EE010AD1F88430C0F80520EC
:102F280010EE102AC0F80130D1F82031C0F809207D
:102F3800D1F85421C0F80D30D1F88831C0F81120EB
:102F48000022C0F8153000BF8B1893F8CC302BB195
:102F58003432B2F59C7FF7D1012100E0002141769F
:102F68004FF6FB721C214283FFF7AABF000096C2EE
:102F78000000B4C200BE00BFFEE700002DE9F0412A
:102F88004EF2FE34C4F201044AF203504CF2001629
:102F98002080C4F201060120B08000BFB08800285C
:102FA800FCD147F200010120C4F2000130808860A2
:102FB800086041F2C05742F6005041F20022C2F2C6
:102FC8000007C0F23110C0F27A02C7E9000243F2EA
:102FD80000604FF40041C0F26E10C7E902104CF2D5
:102FE8000020396141F60041C0F6EB30C0F64E6171
:102FF8004EF220057861C4F20105B961A879296803
:1030080057F82000C1F3026141F22068C840C2F2BB
:103018000008C8F8000000206075092085F88200C3
:1030280094F8820020B994F88300800700F07F802C
:1030380094F8820050B9012084F88200C820012148
:10304800FEF757FF94F882000128FBD1002084F88E
:10305800830084F882000020A87400BF287F00073E
:10306800FCD542F201702885002043F2021185F850
:103078002A002981A87200BF287F8006FCD503207A
:10308800307741F22120C2F2010028600520A871A2
:10309800A879296857F82000C1F30261F022C840D6
:1030A800C8F8000042F20800C4F20000F1210171E2
:1030B800012101700271297485F8321095F85400C5
:1030C80040F0400085F8540095F95400B0F1FF3FF6
:1030D800FADC0620462185F84C0085F8541085F85E
:1030E800540000BF95F954000028FBD495F8560009
:1030F80040F0400085F8560095F95600B0F1FF3FC2
:10310800FADC032085F84E00C62085F8560095F8AD
:10311800560000F0BF0085F8560000BF95F956002C
:103128000028FBD44FF425402080BDE8F0814FF4FF
:103138007A70FEF720FF8EE77047000070B584B004
:1031480048F248060320C4F20006FEF782FE6FF03C
:10315800FF0046F6803430604FF0FF300021C0F2A7
:1031680000040122CDE9020054F8213002FA01F5E9
:10317800002B18BFA84301311929F5D14EF280322E
:103188000190002001A9CEF2000200BF51F82030C2
:1031980006EB8005AB6242F8203001300328F5D1F8
:1031A8000320FEF77DFE46F200310020C4F2000144
:1031B80054F820200AB141F820200130192804BF12
:1031C80004B070BDF4E701380028FCD17047000056
:1031D8002DE9F04F81B00446008800285AD043F208
:1031E80040084EF2BB4B0025C4F208080FF2AC0AA7
:1031F800C4F2010B4FF00109002700BF60685AF8BC
:10320800272000EBC500416891423CD100689BF83B
:10321800001000F0B85009FA07F6B0F1807F06EA0E
:10322800010015D150B90120FEF713FE9BF80000EC
:1032380030438BF800000120FEF732FE18F9170022
:10324800002820D418F8170040F0800015E000BFCF
:1032580050B10120FEF7FDFD9BF80000B0438BF84C
:1032680000000120FEF71CFE18F91700B0F1FF3F1F
:1032780009DC18F8170000F07F0008F81700C820CC
:103288000121FEF736FE0137032FB7D1208801351B
:103298008542B1D301B0BDE8F08F00BF0204000041
:1032A800030400000404000010B54168B1F5806F04
:1032B80018BF10BD41F26461C2F200010C68416997
:1032C80090F8202004F10803616100F128011846F4
:1032D8002274082A28BF0822FCF7BBFF616F19B1C6
:1032E8002046BDE81040084710BD00002DE9F04F0A
:1032F800B7B0EFF303806FF35F20A0F1100142F243
:103308005C10C2F2000050F82170009178683968AA
:103318000468006901F59855CDE90204F869079039
:10332800285D002878D024F0004808EB48000721E1
:1033380001FA00F001904FEA841A0DF10C090DF121
:10334800740B20462A5DD1074FEA400108D138683E
:10335800120727D400F56B624FF4007305E000BF35
:1033680038684FF4006300F56162049352F8213025
:1033780093FAA3F3B3FA83F3082B08D302EB810182
:10338800496891FAA1F1B1FA81F101F1200303EB47
:103398000A01084490F8D01701F0F90180F8D01715
:1033A8001EE000BF029AD26902EB8101096BC904D1
:1033B8004FF4006158BF4FF400510491D0F8B41293
:1033C800019A114091FAA1F1B1FA81F100EB810063
:1033D80001F12803D0F8E02122F01002C0F8E02122
:1033E800BE69069356B1584631466822FCF731FF4C
:1033F800304649466822FCF72CFF00E04E467969C2
:1034080030468847B86918B159466822FCF721FF49
:10341800285D0028404695D146F20030009AC4F253
:10342800000050F8221021F4803140F8221050F8A2
:10343800220037B0BDE8F08F2DE9F04FB7B0EFF3B9
:1034480003804FF480636FF35F20A0F1100142F214
:103458005C10C2F2000050F821700191D7E9000118
:103468000968D0F8B022CDE9031302F03F0292FABE
:10347800A2F2B2FA82F202F01F06032E88BF02F00F
:10348800030242F0280106914FF48071D0F8A0227F
:1034980001FA06F912EA090F029633D10DF10C0868
:1034A80006F1280408F114060DF1740A2146324683
:1034B80000F002FE039842F25411C2F2000151F8E2
:1034C80020B0DBE90650079055B1504629466822DE
:1034D800FCF7BFFE284641466822FCF7BAFE00E02A
:1034E8004546DBF8141028468847DBF8180018B161
:1034F80051466822FCF7ADFE3868D0F8A01211EAF0
:10350800090FD3D0029900EB8100D0F8E01121F027
:103518000801C0F8E0113868D0F8B00260B946F286
:103528000030019AC4F2000050F8221021F48031D2
:1035380040F8221050F8220037B0BDE8F08FF0B5FF
:10354800B5B0EFF303806FF35F20A0F11005032DF2
:1035580033D142F25410C2F20000066801A80C30C0
:103568005C21FCF78FFE4FF48050029031684FF0D9
:103578007040D1F8902000EA023000EB0240920738
:1035880003904FF00000C1F890000FD53168D1F8D2
:10359800A82292FAA2F2B2FA82F201EB8201049214
:1035A800D1F8E02022F00402C1F8E020D6E9064173
:1035B8000190059104BB01AC2AE042F25C10C2F212
:1035C800000001AF50F8256007F114005421FCF702
:1035D80059FE4FF480700290D6E90001096800EBAB
:1035E8000110C26892B203920022C260D6E9064076
:1035F80001910492059054B11BA821466822FCF75A
:1036080028FE01A920466822FCF723FE00E03C467C
:10361800716920468847B06918B11BA96822FCF770
:1036280018FE46F20030C4F2000050F8251021F4CC
:10363800803140F8251050F8250035B0F0BD000065
:103648002DE9F04FB5B040F2000BC4F20B0BDBF8DC
:10365800AC0290FAA0F0B0FA80F2072A53D84FF4DF
:10366800806042F02005029004950120DBF8A0124A
:1036780000FA02F4214200923CD1009846F2080177
:103688000BEBC0100DF16C0900EB010A01A800F169
:10369800140700BFDAF800002946C0F301203A46B3
:1036A8000190584600F008FD019842F25411C2F208
:1036B800000151F82080D8E90660059056B14846C7
:1036C80031466822FCF7C5FD304601A96822FCF79F
:1036D800C0FD00E001AED8F8141030468847D8F88D
:1036E800180018B149466822FCF7B3FDDBF8A002C0
:1036F8002042CFD000980BEB8000D0F8E01021F0EA
:103708000801C0F8E010DBF8AC0240B946F210300E
:10371800C4F20000016821F480310160006835B00E
:10372800BDE8F08F80B584B041F6E060C2F20000D9
:10373800016846F6E0230131016043F2D811042004
:10374800C2F20001CDE9000143F2A97041F2C87C40
:10375800C0F200000CA1C0F200034FF48072C2F264
:10376800000CCDF808C002F0E1F941F2C471C2F2D0
:103778000001086008B104B080BD0020002104B039
:10378800BDE8804000F007BF4461656D6F6E54610D
:10379800736B0000FCF766FF0A2001F05FFCF9E795
:1037A80010B5044600F0C6FE2046BDE81040FFF7FD
:1037B800F1BF7047FFF7FDBF4021C4F2090101F5D1
:1037C8000121002804BF4021C4F209014BF6FF7013
:1037D800088070474021C4F2090101F50121002841
:1037E80004BF4021C4F209014FF6F7700880704702
:1037F8004021C4F2090101F50121002804BF40213C
:10380800C4F2090108887047012818BF704741F2BF
:103818000210C4F21100018841F480410180704710
:1038280080B541F6E060C2F200000021016041F677
:103838009060C2F2000041F6986201704FF4807007
:10384800C2F20002012101F06DFD41F69461C2F25D
:103858000001086018B90020002100F09CFE00F06B
:103868001DF8FFF75FFF00F01BFE01F089FC002048
:1038780080BD80FE200A80FE410A30EE600A32EEEA
:10388800613A31EE601A23EE000A80EE010A31EE49
:10389800800A80FE210A80FE420A704780B584B003
:1038A80041F6E060C2F20000016846F6D8430131F3
:1038B800016043F2D8510120C2F20001CDE90001B4
:1038C80043F6291042F2B84CC0F200000CA1C0F235
:1038D80000034FF48062C2F2000CCDF808C002F079
:1038E80025F942F2B441C2F20001086008B104B0FF
:1038F80080BD0020002104B0BDE8804000F04BBE30
:103908004D6F746F724374726C5461736B00000076
:10391800FCF7CEFFFDF728F8052001F09FFBF9E73B
:1039280010B5044600F006FE2046BDE81040FFF73B
:10393800EFBF2DE9F04381B00E4643F2C811C2F241
:1039480000010D6842F22461C2F20001D1F8008042
:1039580042F22C6142F21C64C2F20001C2F200047D
:10396800D1F8009021680746081D01F038F9781C45
:1039780016D1AEB143F2A010C2F20000D0E9001295
:10398800236801319A6093682768FB6027680437C9
:103998005F6023680433936022680160506117E018
:1039A8002068ED194560206800F1040105D34846F8
:1039B80001B0BDE8F04301F05DB9404601F05AF9A5
:1039C80043F22010C2F2000001688D4238BF056042
:1039D80001B0BDE8F08300002DE9F047044601F08E
:1039E80066F942F6D430C2F20000016842F21C6760
:1039F80001310160C2F20007396843F2941A42F2B9
:103A08003466C2F2000AC2F2000651B1DAF80000C8
:103A180000283DD13868E16AC06A884298BF3C6096
:103A280036E03C600068012832D10025701901F0A9
:103A380012F91435642DF9D143F2F008C2F20008E6
:103A4800404601F008F943F20419C2F20009484659
:103A580001F001F943F23010C2F2000001F0FBF866
:103A680043F2B410C2F2000001F0F5F843F2A010DE
:103A7800C2F2000001F0EFF842F22460C2F2000046
:103A8800C0F8008042F22C60C2F20000C0F800903A
:103A980042F6E030C2F200000168231D01310160E6
:103AA80042F6E431C2F20001E06A0A68904288BF37
:103AB800086000EB800006EB80014A686161956848
:103AC800C4E90225936056F820206B60511C46F823
:103AD800201001F013F9DAF8000078B13868E16ACB
:103AE800C06A88420AD24EF60450CEF200004FF067
:103AF80080510160BFF34F8FBFF36F8FBDE8F08730
:103B080070B582B001F0D3F843F2CC16C2F20006C9
:103B1800306850BB43F2C804C2F20004204601F0EA
:103B28009AF843F2DC05C2F20005284601F093F842
:103B380042F22060C2F20000046042F23060C2F239
:103B4800000042F2585242F2D053056000250A2084
:103B5800C2F200020C21C2F20003009501F002FC3F
:103B6800306010B103A101F027FA02B0BDE870403F
:103B780001F0C4B8546D725100000000F0B581B076
:103B880042F6D835C2F200052868E0B143F2B4160F
:103B980042F6D437C2F20006C2F2000701F087F8F5
:103BA800F068C468201D01F01AF8386801383860D8
:103BB80028680138286001F0A1F8204600F036F89E
:103BC80028680028EAD101B0F0BD70B5866B036C97
:103BD800044643B31546CAB1E0681A46FCF739FBF8
:103BE800E168206C2268091A9142E16003D2A16859
:103BF80040420844E060A81EB0FA80F0400931460F
:103C0800002E18BF01210840361A0CE060681A46D9
:103C1800FCF71FFBD4E90101226C10448842606064
:103C280001D320686060701CA06370BD10B50446A5
:103C380090F85D00022808BF10BD012803D038B9EC
:103C4800206B01F081F82046BDE8104001F07CB8F7
:103C580047F2F14103A0C0F2000141F62E12FFF72E
:103C680089F900BF70785443422D3E7563537461DF
:103C7800746963616C6C79416C6C6F6361746564C1
:103C8800203D3D202820282075696E74385F7420F7
:103C9800292032202900000042F234644EF60455EF
:103CA800C2F20004CEF200054FF08056FFF766FF1F
:103CB8002068022804D32E60BFF34F8FBFF36F8FA5
:103CC80000F0BDFFF2E700002DE9F0470A9F8246A9
:103CD800089C386B984669B107F13403002600BF89
:103CE8008D5D9D551DB10F2E06F10106F8D10021FD
:103CF80087F84310052C21D200EB8200DDF82490D0
:103D0800043820F00706381DFC6200F0AFFF07F109
:103D1800180000F0ABFFC4F10500396BB8613046FC
:103D2800524643463F617F6200F0B1F9B9F1000F96
:103D3800386018BFC9F80070BDE8F08747F2F14154
:103D480003A0C0F2000140F26472FFF713F900BF4C
:103D580075785072696F72697479203C202835290A
:103D6800000000008C46014641F804CF94450061EC
:103D780008D942F220609A42C2F200000AD29C4559
:103D88000ED207E08069D21A824209D242F230602C
:103D9800C2F2000080B5006800F06CFF002080BD12
:103DA8000120704770B542F22062C2F20002126828
:103DB8000646D2680D46D468201D00F010FF94F81E
:103DC8002400410704D400F0FA0084F8240004E039
:103DD800204631462A4600F005F8216A2046BDE80B
:103DE8007040084770B50546806914460E46014480
:103DF800284600BF3346FFF7B5FF48B1A869296ACE
:103E0800064428468847A869224681192846F1E7CA
:103E180070BD0000F0B581B0044601F009FF42F220
:103E28001866C2F200063168054688420ED242F290
:103E38002067C2F2000700BF3868016841B1C06856
:103E48004FF0FF310068FFF7ADFFF5E7002007E00E
:103E580042F23061C2F200010A68086001203A604B
:103E680020602846356001B0F0BD000000BE00BFEC
:103E7800FEE7000084B042F2206843F2CC15C2F29B
:103E8800000801ACC2F200054FF00009EB4600BF84
:103E9800D8F80000D0F800A0BAF1000F1ABFC06827
:103EA8000668002601F0CAF92046FFF7B3FF01991A
:103EB80011B102F005F82DE00746BAF1000F08D05D
:103EC800BE4206D801F0FCFF30463946FFF76AFFCC
:103ED80020E0BAF1000F01D0002208E042F2306081
:103EE800C2F2000000680068B0FA80F04209286851
:103EF800F11B01F090F801F0E3FF58B94EF60451B8
:103F08004FF08050CEF200010860BFF34F8FBFF32F
:103F18006F8F00BF2868CDE90299CDF8049000BFE3
:103F28002146002201F02CFC0028B1D0019800287D
:103F38004CD4039E706910B1301D00F050FE5846F5
:103F4800FFF768FF0199013908293FD80746DFE8DC
:103F580001F005052C1C3F05052C1C0096F82400D3
:103F6800029BB16940F0010086F8240019443046EC
:103F78003A46FFF7F7FE48B396F8240041071BD4EA
:103F880000F0FA0086F824001DE096F8240040F0BE
:103F98000101029886F82410B06108B3C1193046AF
:103FA8003A463B46FFF7DEFE10E096F8240000F0A4
:103FB800FE0086F8240009E00298B1693A460144F7
:103FC8003046FFF70FFF316A304688472868A7E771
:103FD80096F824008107EAD4304600F0B5FEF5E7EC
:103FE80047F2745103A0C0F200014FF48262FEF759
:103FF800C1FF00BF2820707854696D65722D3E7826
:1040080054696D6572506572696F64496E5469636D
:104018006B73203E2030202900000000F0B581B0ED
:10402800044600F044FE94F94560012E0EDB04F1CD
:10403800240500BF286848B1284601F0C8FE08B129
:1040480001F044F870B2013E0128F3DCFF2684F841
:10405800456000F053FE00F02AFE94F94470012FE9
:104068000EDB04F1100500BF286848B1284601F0AE
:10407800AEFE08B101F02AF878B2013F0128F3DC5E
:1040880084F8446001B0BDE8F04000F037BE283144
:1040980040F8481D43F67561C0F200014FF0807C7E
:1040A80022F00102C1636FF002010264C0F844C04B
:1040B800C0E90913704700001F2904D800EBC11399
:1040C80003F5005C04E000EBC113282903F5A04CBC
:1040D80080B5DCF800E0CEF380739360DCF808303C
:1040E80003F0070313612EF0604313604FEADE7399
:1040F8005360DCF804305FEA137E13A313F80EE074
:1041080082F80CE009D00CF10C03143213F801CB3F
:10411800BEF1010E02F801CBF8D11F29BDE880409D
:1041280006D8012202FA01F1C943C0F8B01070475D
:1041380000EB810028294FF0FF012CBFC0F8A01127
:10414800C0F88010704700BF00010203040506078D
:10415800080C10141820304070B5D0E900428029AE
:1041680001F00F03D2F800C043D204EB0C14C907C6
:1041780054F804EF02D11EF0040504D1052B08BF42
:104188001EF0010509D12568012666F302052560A0
:10419800656805F00705012DFAD1256825F00705A2
:1041A8001D432560656805F007059D42FAD1002981
:1041B80060D11EF003015DD011690CEB4C02C96996
:1041C8004FF4907301EB820603EB820106F1300293
:1041D800002300BF066852F823500E4456F82340C7
:1041E80005F00105254346F823500133032BF1D18F
:1041F80040E0D4F888205FEAC17E02F0010118D0BF
:10420800B9B93024026852F8245025F0010542F863
:1042180024500134382CF5D1482400BF026852F8E4
:10422800245025F0010542F8245001344E2CF5D1D4
:104238000468D4F8882022F007021A43C4F88820BA
:10424800D4F88C2002F007029A42F9D1BEF1000F8F
:1042580010D179B1416800220969C969083100BFE4
:10426800036851F8225003EB82030132082AC3F88D
:10427800C050F5D1016801EB0C11496801F0070144
:10428800C16070BD01F10E0212F80B3C402B06D341
:10429800B2F800C05FFA8CF343EA0C23138012F8DB
:1042A8000C3C10323F2BEFD845F21042C4F200020A
:1042B80008231370406840F20003C2F2000343F879
:1042C800201018201070704770B50446FEF780FF64
:1042D80041F6247CEFF31080012181F31088C2F2AB
:1042E800000CDCF8001039B940F60351C4F208019B
:1042F80000220A7040220A70DCF800100131CCF864
:10430800001080F31088208818B340F6000E0021B2
:10431800C4F2080E606800EBC10250F831305268F0
:10432800DD034FEA1220D2B20BD50EEB801555F8FB
:10433800226026F4803645F8226023F4803645F85A
:1043480022600EEB8010013140F822302088814233
:10435800E0D30120EFF3108180F31088DCF800002F
:1043680020B1DCF800000138CCF80000DCF80000CF
:1043780038B940F60350C4F20800002202708022C7
:10438800027081F3108870BDB0B584B00446806AAD
:1043980040B1D0E900CED0E90253CDE900CECDE955
:1043A800025300E06846E369D4F824C01B78E56A44
:1043B800C0E90032C0E90215E047A06A10B19DE8E3
:1043C8002E002EC004B0B0BD10B5D1F804C00478DA
:1043D800DCF800E0136014B103F10C041460C06948
:1043E800406858B99EF8030000F0CF0010308EF8EE
:1043F8000300D1F804C003F10B0010608A68086854
:1044080012686146BDE8104010470000074801687F
:104418000A6802CA81F30B88B2E8F04F1EF0100F49
:1044280008BFB2EC108A82F3098870471C26002066
:1044380088B14EF20C00C4F20100B0F90010B1F1DD
:10444800FF3F09DDBFF34F8F30BFBFF36F8F62B6F9
:10445800BFF36F8F72B6704780B54EF2FE32C4F26A
:104468000102B2F800E04AF2025CCFF6FF7C0023BA
:10447800A2F800C003804EF425431380BFF34F8F8A
:1044880030BFBFF36F8F62B6BFF36F8F72B61388FA
:10449800A2F800C0018043F42540108080BD0000D0
:1044A80080B584B041F6E060C2F20000016846F6CB
:1044B8008C530131016044F2D8510120C2F200014D
:1044C800CDE9000144F2295042F2A06CC0F200008C
:1044D8000CA1C0F200034FF48062C2F2000CCDF8C8
:1044E80008C001F023FB42F29C61C2F2000108609F
:1044F80008B104B080BD0020002104B0BDE88040B0
:1045080000F049B8526F626F745461736B00000019
:10451800FCF7C8F8FCF71AF9052000F09FFDF9E749
:1045280010B5044600F006F82046BDE81040FFF735
:10453800EFBF0000B0B541F69464C2F200042068F1
:104548004FF0FF3101F0EAF9012803D0206800217B
:1045580000F021F841F69060C2F20000017801B144
:10456800B0BD01210170FFF725F941F6E065C2F2FF
:10457800000500BF286801382860F1D020680021B4
:104588000022002300F0A8FF0128F3D020680021B2
:1045980000F001F8EEE700BE7047B0B5EFF3038016
:1045A8006FF35F20A0F1100542F25C10C2F2000028
:1045B80050F82500017821B9817801F0030102291A
:1045C80021D1036A198A6FF35F211A79D40602F0A0
:1045D800380203D51C7FE40708BF40321C7904F079
:1045E800C7041C71436A0BB1FFF7CEFE46F20030D8
:1045F800C4F2000050F8251021F4803140F825104D
:1046080050F82500B0BD036A5979DEE710B582B0CD
:10461800EFF3038040F2FC7101EA800046F2C0210A
:10462800C4F20001425822F48032425042F25C1235
:10463800C2F200024158104450F8404CE069006B47
:1046480078B1A06968B1616A002000296061A06141
:1046580040D020460021012202B0BDE81040FFF7FB
:1046680093BE207838B9A07800F00301206A0229A7
:1046780005D0417906E0206AC18AC90628D0018A96
:104688006FF35F21A0690191B0B1A178606901F071
:10469800030201A9FBF7DDFDA0786169A26900F0BA
:1046A80003000144101A6161A0610BD1606A48B12E
:1046B80020460021012203E0606A18B12046042246
:1046C800FFF762FE207828B1206AC18AC906D2D1D4
:1046D800BE21017102B010BD10B5EFF303806FF376
:1046E8005F20A0F1100442F25C10C2F2000050F802
:1046F8002400016A8A7802F07B028A70416A19B143
:1047080000210222FFF740FE46F20030C4F200000A
:1047180050F8241021F4803140F8241050F8240077
:1047280010BD000080B5EFF3038040F2FC7101EA90
:10473800800046F2C021C4F20001425822F48032BF
:10474800425042F25C12C2F200024158104450F842
:10475800400CC169496B11B10169A1B380BD016900
:104768000029F9D00378002B3ED0026AD18AC1F320
:104778000421994221D20122F2B1827802F0030386
:10478800C268022B06D11288036A42F47E42DA819B
:1047980003E000BF1278036ADA73837890F800C0E8
:1047A8000269D0F80CE003F003030131D21A734414
:1047B80061450261C360DFD3026A117901F07D01AE
:1047C80002311171C8E7016A8A7802F07B0204326B
:1047D8008A70416A00294FF00001C160BED0802272
:1047E800BDE88040FFF7D0BD817801F00302C168C1
:1047F800022A05D10988026A41F47E41D18102E08A
:104808000978026AD17081780269C36801F00301EE
:10481800521A19440261C1609EE70121FDF769BB84
:1048280080B582B0002201910092E1B140F2DC0132
:10483800C2F2000151F8200001A900686A4600236D
:1048480000F01EFF01280ED1009850B14EF604501A
:10485800CEF200004FF080510160BFF34F8FBFF3DD
:104868006F8F002000E0FF2002B080BD10B541F638
:104878002874C2F20004218831B1FEF7C5FF642014
:10488800FFF7CBFF0020208010BD2DE9F04F85B049
:1048980041F23603C4F2110340F23008824603F1B4
:1048A8000A0503F1100003F11206012AC4F20908EF
:1048B80003F1140E049103920290CDE9006E05D124
:1048C80008F501279C1C1A1D29460EE008F106036D
:1048D80008F1080408F10A0208F1100108F11600AD
:1048E80008F1180608F11A0E47460988B0F800C002
:1048F800B6F80090BEF8006038881F8823881488AE
:10490800DDF810B00022B1F5807FAAF80020ABF8DE
:10491800002044D300EA0102D64650041ED410B247
:10492800B0F1FF3F24DDB2F5005F2BD2B2F5805F16
:1049380038D207EA0C0081B2D70543D511F001003F
:1049480040D003980299012818BF08F1160140F2D7
:10495800FE3008800120AEF800005CE003980128D2
:1049680018BF08F110056FF480402880122014E069
:104978000398012818BF08F1100547F6FF70288032
:1049880011200AE00398012818BF08F110056FF4F8
:10499800804000F5005028801320AEF8000005B0D4
:1049A800BDE8F08F0398012818BF08F110056FF4CF
:1049B800804000F5405028801420AEF8000004988C
:1049C8000180ECE704EA060084B256050DD514F020
:1049D80001000AD003980199012818BF08F11A01AB
:1049E80040F2FE300880022012E003EA090080B29B
:1049F8005FEA825C12D510F001030FD0039800998A
:104A0800012818BF08F1180140F2FE300880032081
:104A1800AEF80000012004990880C0E7B2F5006FE5
:104A280016D2002F34D4049A002E3DD4BCF1000FC6
:104A3800B5D5039B40F2FF318143012B009B18BF82
:104A480008F1180319800321AEF800101080A6E7BA
:104A5800039C2046FEF7CCFE0499012C088018BF61
:104A680008F110056FF4804000F56050288015208B
:104A7800AAF80000088800F0070006288FD10398DC
:104A88000C46FEF7A7FE0020AAF80000208086E763
:104A9800039A40F2FF308843012A029A18BF08F1AE
:104AA80016021080012088E7039940F2FF30A043E6
:104AB8000129019918BF08F11A0108800220AEF8EF
:104AC800000014806BE7B0B542F25010C2F200004B
:104AD80001884A1C02F007020280EFF3038042F2C9
:104AE8005C126FF35F20C2F2000202EB800001EB60
:104AF800011150F8405C41F62C72287AC2F200028B
:104B080002EB8104FFF7B2FE40F251102084D5E990
:104B180011102A7A84F82420C4E90E1004F1220026
:104B280004F12801FFF7B1FE05202146BDE8B04099
:104B3800FFF776BEEFF3038046F2C0216FF35F20E4
:104B4800C4F2000151F8202022F4803241F82020DC
:104B580051F820007047EFF3038046F2C0216FF34D
:104B68005F20C4F2000151F8202022F4803241F87D
:104B7800202051F820007047EFF3038046F2C0214F
:104B88006FF35F20C4F2000151F8202022F4803234
:104B980041F8202051F8200042F24C11C2F20001E5
:104BA8000888012808BF7047FFF78DBFEFF303801F
:104BB80040F2FC7101EA800046F2C021C4F2000113
:104BC800425822F48032425042F25C12C2F2000291
:104BD8004158104450F8400C007AFEF7EDBDD0E97A
:104BE80001320169D1F804C09A608445536008BF56
:104BF8004A600B6800220261581E0860704742F63E
:104C0800D430C2F200000068704742F6E853C2F29E
:104C18000003036042F6E830C2F20000086080201A
:104C28001060704743F24803C2F20003036042F683
:104C38004860C2F20000086080201060704780B5AC
:104C480072B600F0FBFA0120FFF7F2FB62B6BDE88E
:104C5800804001F035B94FF0FF31024642F8081F95
:104C68000021C0E90322C0E9001270470021016158
:104C78007047000080B5D1F800C01CF1010207D0D0
:104C880000F108029646526813686345FAD903E0B2
:104C9800D0F810E0DEF804204A6091600268C1F89C
:104CA80008E0CEF804100861511C016080BD102195
:104CB800EFF3118081F3118842F6D031C2F200017E
:104CC8000A68531C0B605AB941F60871C2F2000118
:104CD80008604EF60450CEF200000068C00500D10E
:104CE800704747F2CD5047F21361C0F20000C0F29E
:104CF800000140F2A442FEF73DF9000042F6D03030
:104D0800C2F20000016859B10139016018BF70474B
:104D180041F60870C2F20000006880F311887047FD
:104D280047F2136103A0C0F2000140F2AD42FEF762
:104D380021F900BF7578437269746963616C4E65C7
:104D48007374696E67000000F0B581B000283DD02B
:104D580042F2C076A0F10805C2F200060446B54248
:104D680051D306F2FF37BD424DD854F8040C002841
:104D780055D5296800295ED120F0004044F8040C7C
:104D880000F05CFA43F21810C2F2000054F8041C58
:104D9800026843F298130A44C2F2000302601A46FA
:104DA80010461268AA42FBD3984203D0B0424BD3B4
:104DB800B84249D84368C718AF4202D119440546DA
:104DC80041606B18934203D013460CE001B0F0BD6C
:104DD80042F22863C2F200031B689A4203D0D2E968
:104DE800003211446960A8422B6018BF056043F285
:104DF8002810C2F2000001680131016001B0BDE86D
:104E0800F04001F05DB846F6886047F28A01C0F2CA
:104E18000000C0F200014FF4B572FEF7ABF846F699
:104E2800DE7047F28A01C0F20000C0F2000140F2D1
:104E38006B12FEF79FF847F28A0109A0C0F2000141
:104E48004FF4B672FEF796F846F6687047F28A0194
:104E5800C0F20000C0F200014FF4FD72FEF78AF8BC
:104E680070784C696E6B2D3E70784E65787446721A
:104E78006565426C6F636B203D3D2030000000008B
:104E8800806910F8020C022808BFFFF7BFBA04288F
:104E980038BF704747F2136103A0C0F200014FF416
:104EA8007E72FEF767F800BF75635356434E756D03
:104EB800626572203C3D20330000000041F2206012
:104EC800C2F20000006844F6D351C1F26201A0FBAF
:104ED80001014FF0FF3000EB91110020B0EB116F92
:104EE80018BF70474EF21002CEF2000251604EF623
:104EF8002351CEF20001F0230B7090600720106060
:104F080070470000EFF303806FF35F20102806D38B
:104F18004EF2F031CEF20001405C0F2810D94EF667
:104F28000C50CEF200000068400558BF704747F2A9
:104F3800136108A0C0F2000140F22162FEF71AF8DE
:104F480047F213610EA0C0F2000140F20F62FEF7B3
:104F580011F800BF5F5F4E5649435F476574507252
:104F6800696F7269747947726F7570696E672829FD
:104F7800203C3D202838202D203429202D203100A8
:104F8800756C43757272656E745072696F7269746C
:104F980079203E3D2028282828312929203C3C20FA
:104FA8002838202D2034292929203E3E2028382041
:104FB8002D20342900000000B0B500B3D1B143F270
:104FC800441E4FF0000C0023C2F2000E002200BF66
:104FD8000EEB03046568A8420DD022B92268002AA6
:104FE80018BF644622460833502BF1D1002A18BF57
:104FF800C2E90010B0BD2246C2E90010B0BD47F2B8
:105008006B3047F20631C0F20000C0F2000140F6F2
:10501800C932FDF7AFFF70B515460E460446FFF7D7
:1050280046FE94F84400FF2804BF002084F844009A
:1050380094F84500FF2804BF002084F84500FFF7D6
:105048005DFEA06B28B904F1240031462A4600F021
:1050580061F82046BDE87040FEF7E0BF80B580B13A
:1050680042F6DC31C2F200010A6801320A600968BE
:10507800012912D10021FEF75CFC00F021FF00B1EC
:1050880080BD4EF60450CEF200004FF08051016012
:10509800BFF34F8FBFF36F8F80BD47F2D64047F203
:1050A800F141C0F20000C0F2000140F68E12FDF797
:1050B80061FF43F22411C2F200010968016043F262
:1050C800C811C2F2000109684160704743F2D41068
:1050D800C2F2000001210160704710B570B10C46A2
:1050E80042F21C61C2F2000109681831FFF7C2FDE3
:1050F80020460121BDE81040FEF71BBC47F2505086
:1051080047F2F141C0F20000C0F200014FF4A4528E
:10511800FDF730FFB0B538B30346D0E900C042F21E
:105128001C6EC2F2000EDEF80040002AE0618468BE
:10513800DEF800502C62DEF8005005F118056560B5
:10514800DEF800400CF1010504F118048460DEF873
:105158000000836218BF4FF0FF31084611461D60FA
:10516800BDE8B040FEF7E5BB47F2505047F2F141C9
:10517800C0F20000C0F2000141F2BE42FDF7FAFEA3
:1051880010B58AB044F24940C4F24C50002406904D
:1051980005A804A903AA8DF81C40CDE90444FFF72B
:1051A80034FDDDE90320DDF814C006A90023CDE9AC
:1051B800004043F6A140C0F20000CDF808C000F05E
:1051C800B5FC43F21C11C2F20001086028B300F0DC
:1051D80043FF01280AD001301FD147F2F14112A044
:1051E800C0F2000140F6A962FDF7C4FE43F22011A7
:1051F800C2F200014FF0FF32012080F310880A60EC
:1052080043F29411C2F20001086043F2C810C2F2DE
:1052180000000021016000F067F847F26060C0F20A
:10522800000000680AB010BD7852657475726E206F
:10523800213D2028202D31202900000042F6DC30B5
:10524800C2F20000016801310160704742F6DC30AB
:10525800C2F20000006830B143F2D410C2F200007C
:1052680001210160704743F2D410C2F2000000210E
:1052780042F6E43C0160C2F2000CDCF8001042F295
:10528800346301EB8102C2F2000353F8220003EBFE
:10529800820228B9B9B152F8140D01390028F9D0A1
:1052A8005068436802F108008342536001D1D36813
:1052B8005360D86842F21C62C2F200021060CCF857
:1052C80000101068704747F2F14103A0C0F20001D6
:1052D80041F2FA32FDF74EFE7578546F70507269DC
:1052E8006F726974790000004EF62250CEF2000009
:1052F800F0210170FFF7E2FD4EF63470CEF20000A7
:10530800016841F04041016062B6BFF36F8FEFF36F
:10531800148C2CF0040C8CF31488BFF36F8F02DF0D
:1053280000BEFDE7B0B582B080B10D4681420DD810
:1053380014464FF0000C002100222346CDF800C08F
:1053480000F010F82046A56302B0B0BD47F2573010
:1053580047F20631C0F20000C0F200014FF45E725D
:10536800FDF708FE10B582B03BB3D0B11C4601B9B9
:10537800BAB901B1AAB148230193019B482B25D1A1
:10538800019B012384F84630002908BF2246C4E95E
:105398000F0120460121226000F038F8204602B0B3
:1053A80010BD47F25F3047F20631C0F20000C0F28C
:1053B80000014FF4D872FDF7DDFD47F206310FA06A
:1053C800C0F200014FF4C272FDF7D4FD47F2063176
:1053D80003A0C0F200014FF4CB72FDF7CBFD00BF74
:1053E8007853697A65203D3D2073697A656F662830
:1053F8002051756575655F742029000070785374B5
:1054080061746963517565756500000070B50028A1
:1054180044D00446C06BC0B30E46216CA0FB01010A
:1054280099BBFFF744FCD4E90F0122680025A56366
:1054380001FB0023013800FB0120C4E90123E060DF
:10544800FF2084F8440084F8450004F110004EB1B0
:10545800FFF701FC04F12400FFF7FDFBFFF74EFC0A
:10546800012070BD01680029F8D000F0B0FC0028C8
:10547800F4D04EF60450CEF200004FF08051016097
:10548800BFF34F8FBFF36F8FE8E747F2063109A0EC
:10549800C0F200014FF4B672FDF76CFD47F26A30B6
:1054A80047F20631C0F20000C0F2000140F23712A4
:1054B800FDF760FD7852657475726E20213D2028D5
:1054C800202820282042617365547970655F742014
:1054D80029203020292029002DE9F04F85B0002807
:1054E800049200F09D8099461546044619B9206C2F
:1054F800002840F0B980B9F1020F03D1E06B012810
:1055080040F0A680019100F081FB10B9002D40F019
:105518009380FFF7CCFBA06BB9F1020F59D0E16B78
:10552800884256D304F11007012002AE4FF0000A5A
:1055380004AD00BF0499002966D0C0071CBF3046DF
:10554800FFF7B7FDFFF7DAFBFFF778FEFFF7AFFBD2
:1055580094F84400FF2808BF84F844A094F8450054
:10556800FF2808BF84F845A0FFF7C8FB3046294646
:1055780000F08EFA00284AD1FFF799FBD4F838B02A
:10558800D4F83C80FFF7BAFBC34515D104993846D7
:10559800FFF7A3FD2046FEF741FD00F091FC80B91E
:1055A8004EF60450CEF200004FF080510160BFF378
:1055B8004F8FBFF36F8F04E02046FEF72FFD00F0FA
:1055C8007FFCFFF774FBA06BE16B88424FF0000093
:1055D800B0D2019920464A46FEF7F7FA54F8240F4C
:1055E80070B1204600F0F3FB50B14EF60450CEF2F5
:1055F80000004FF080510160BFF34F8FBFF36F8FF2
:10560800FFF77CFB012008E0FFF778FB04E0204669
:10561800FEF704FD00F054FC002005B0BDE8F08F53
:1056280047F26A3047F20631C0F20000C0F20001CA
:1056380040F2B632FDF79EFC47F23A1047F20631C7
:10564800C0F20000C0F2000140F2BB32FDF792FC4C
:1056580047F28D1047F20631C0F20000C0F2000197
:105668004FF46E72FDF786FC47F22A2047F20631A6
:10567800C0F20000C0F2000140F2B732FDF77AFC38
:105688002DE9F04700284AD01E46904605460F46A9
:1056980011B9286C00285AD1022E02D1E86B0128D2
:1056A80049D1FFF72FFC1020EFF3118980F31188FF
:1056B800022EA86B04D0E96B884201D300202AE0AF
:1056C80095F94540A86B2846394632465FFA84FA70
:1056D800FEF77BFABAF1FF0F0BD0FFF790FAA04262
:1056E80018D9BAF17F0F3ED00AF1010085F84500BC
:1056F80010E055F8240F68B1284600F068FB014611
:10570800B8F1000F4FF0010018BF002903D0C8F806
:10571800000000E0012089F31188BDE8F08747F216
:105728006A3047F20631C0F20000C0F200014FF4BF
:105738009262FDF71FFC47F28D1047F20631C0F266
:105748000000C0F2000140F29242FDF713FC47F25C
:105758002A2047F20631C0F20000C0F2000140F2F0
:105768009142FDF707FC47F2BF2047F20631C0F22D
:105778000000C0F2000140F21E52FDF7FBFB0000E2
:105788002DE9F04F83B00028029200F0A28016465F
:105798008946044619B9206C002840F0B28000F010
:1057A80035FA10B9002E40F0A080FFF780FAD4F83F
:1057B80038A0BAF1000F28D0226C52B1D4E9020106
:1057C8001144E160814224BF2168E1604846FAF74C
:1057D80040FD54F8100FAAF10101A16270B12046F2
:1057E80000F0F5FA50B14EF60450CEF200004FF03A
:1057F80080510160BFF34F8FBFF36F8F0124FFF714
:105808007DFA204603B0BDE8F08F04F1240801209A
:105818006F464FF0000B02AE0299002955D0C00721
:105828001CBF3846FFF745FCFFF768FAFFF706FD8F
:10583800FFF73DFA94F84400FF2808BF84F844B005
:1058480094F84500FF2808BF84F845B0FFF756FADA
:105858003846314600F01CF960B12046FEF7DEFB01
:1058680000F02EFBFFF723FAA56BFFF747FA1DBBE5
:105878002DE000BFFFF71BFAA56BFFF73FFA2DB12C
:105888002046FEF7CBFB00F01BFB15E002994046D3
:10589800FFF723FC2046FEF7C1FB00F011FB58B9C7
:1058A8004EF60450CEF200004FF080510160BFF375
:1058B8004F8FBFF36F8F00BFFFF7F9F9D4F838A007
:1058C8000020BAF1000FA7D076E7002497E700245C
:1058D80097E747F2E12047F20631C0F20000C0F234
:1058E800000140F2E952FDF745FB47F23A1047F252
:1058F8000631C0F20000C0F2000140F2F252FDF79A
:1059080039FB47F2DA1047F20631C0F20000C0F264
:10591800000140F2ED52FDF72DFB00002DE9F04F9C
:1059280083B00028029100F08E800446006C0028A5
:1059380040F095800D4600F069F910B9002D40F04F
:105948009A80FFF7B4F9A16BD1B154F8100F01395F
:10595800A16270B1204600F03AFA50B14EF60450F8
:10596800CEF200004FF080510160BFF34F8FBFF3BC
:105978006F8F0124FFF7C2F9204603B0BDE8F08F0E
:105988004EF6045904F1240801206E464FF0000B2E
:1059980002AFCEF200094FF0805A00BF02990029E9
:1059A8004DD0C0071CBF3046FFF783FBFFF7A6F9B1
:1059B800FFF744FCFFF77BF994F84400FF2808BF81
:1059C80084F844B094F84500FF2808BF84F845B02F
:1059D800FFF794F93046394600F05AF860B120468E
:1059E800FEF71CFB00F06CFAFFF761F9A56BFFF7F7
:1059F80085F9EDB925E000BFFFF759F9A56BFFF769
:105A08007DF92DB12046FEF709FB00F059FA0FE0A9
:105A180002994046FFF761FB2046FEF7FFFA00F0C7
:105A28004FFA28B9C9F800A0BFF34F8FBFF36F8FA3
:105A3800FFF73DF9A16B00200029AFD085E70024CE
:105A480098E7002498E747F2E12047F20631C0F2D0
:105A58000000C0F2000140F28262FDF78BFA47F2C3
:105A6800ED2047F20631C0F20000C0F2000140F21A
:105A78008662FDF77FFA47F23A1047F20631C0F224
:105A88000000C0F2000140F28B62FDF773FA0000DB
:105A980070B568B30D46B9B30446FFF708F943F289
:105AA800C81EC2F2000EDEF8003029684A1C16D063
:105AB80043F2241CD4E90002C2F2000CDCF80060B6
:105AC800864201D093420CD29A1A914209D9881A77
