:020000040000FA
:10000000C01500202D3E0000BD2F0000F7060000A7
:10001000F7060000F7060000F7060000F7060000EC
:10002000000000000000000000000000393E000059
:10003000F706000000000000013000003F40000013
:100040003B490000E9460000354800003B490000FC
:100050003D4A0000E1590000F95A0000AD5A000085
:100060006F590000E1590000F95A0000AD5A000034
:100070006F590000E1590000F95A0000AD5A000024
:100080006F5900004D5F0000815F0000095F0000B4
:100090002B5F0000E1590000F95A0000AD5A000042
:1000A0006F59000000000000000000000000000088
:1000B0000000100800000000000000000000000028
:1000C0000000080000000000000000000000000028
:1000D00040003500030B0000000000000374000026
:1000E000027300000273000002730000027300003C
:1000F0000273000002730000027300000207000098
:10010000050500000370E0000571C000006060009C
:10011000006060000060600000606000000000009F
:10012000E41E00200C1F0020FC1E00208C1E00205E
:10013000101F0020F01E0020F41E0020E81E0020EA
:10014000EC1E0020141F0020F81E00200000FA43BF
:100150004D6573736167655F4D616E6167657200C0
:10016000000000000000000000000000000000008F
:10017000000000000000000000000000000000007F
:10018000010000001D0000000A0000000400000043
:10019000010000000E00000005000000010000004A
:1001A00024800000000000000100000000000000AA
:1001B000003E0000500100200100000094000020DB
:1001C0000000080000000000000000000000000027
:1001D0000000100800000000000000000000000007
:1001E0004000350040003D00000008000000000015
:0801F000000000000000000007
:020000040000FA
:1001F8002DE9F05F0546002092469B468846064654
:10020800814640241BE0284641464746224600F0E6
:1002180091F853465A46C01A914110D311461846D0
:10022800224600F078F82D1A67EB01084F4622465F
:100238000120002100F06FF817EB00094E41201E45
:10024800A4F10104DFDC484631462A464346BDE8AE
:10025800F09F40EA01039B0703D009E008C9121F79
:1002680008C0042AFAD203E011F8013B00F8013B68
:10027800521EF9D27047D2B201E000F8012B491E94
:10028800FBD270470022F6E710B513460A4604462B
:100298001946FFF7F0FF204610BD10B5002200E018
:1002A800521C835C8C5CA34201D1002BF8D1D8B2DC
:1002B800E1B2401A10BD034611F8012B00F8012BDA
:1002C800002AF9D1184670470246014400E0521C42
:1002D8008A4202D21378002BF9D1101A704710B550
:1002E8004843044607F0C2FC002805D00021002C32
:1002F80002D0641E0155FAE710BD30B404469623B7
:100308000800214604D0B62330BC002200F02BB8E8
:1003180020460021F8E7202A04DB203A00FA02F1FF
:10032800002070479140C2F1200320FA03F31943DB
:1003380090407047202A04DB203A21FA02F000217D
:10034800704721FA02F3D040C2F1200291400843DD
:10035800194670470029A8BF7047401C490008BFCC
:1003680020F00100704710B4B0FA80FC00FA0CF0DD
:1003780050EA010404BF10BC704749B1CCF1200415
:1003880021FA04F411FA0CF118BF012121430843A2
:10039800A3EB0C01CB1D4FEA00614FEA102042BFCE
:1003A800002010BC704700EBC35010440029A4BFC4
:1003B80010BC7047401C490008BF20F0010010BC69
:1003C8007047F0B400F0004221F0004120F00040F6
:1003D800CE0DC30DC1F3160141F40001C0F31600A0
:1003E8004C42154640F40000761E09E010EB44002C
:1003F80002D582F0004240428842F7D840005B1E96
:10040800B342F9DA18B1F0BC0021FFF7ACBF2846B7
:10041800F0BC704770B541F26466C2F200063468F9
:100428000CB1204670BD054601207821FFF757FF23
:1004380080B1044695E807006267C4E900013460AA
:1004480002F026FF0028ECD0204607F03DF80024F3
:100458003460E6E70024E4E770B5044644F8201F5A
:1004680006460020082B1D46C4E90100206128BF6C
:100478000825257332B12BB106F1340011462A46FE
:10048800FFF7E7FE30682921224603F0B1F8B0FAF9
:1004980080F0400970BD41F2F050C2F200000178CE
:1004A80001B1704781B00121017041F20401CEF21F
:1004B80000010968009141F2E851C2F20001009A76
:1004C8000B689A4206D241F2EC52C2F2000213685B
:1004D80001331360009A0A600021017001B070476F
:1004E80080B52DED028B00F070F841F20860C2F281
:1004F8000000D0E90001FFF700FF08EE100A41F202
:100508001060C2F20000D0E90001FFF7F6FE01EE2C
:10051800100A41F21860C2F200009FED0A0AD0E901
:10052800000128EE000A30EE018AFFF7E6FE00EE31
:10053800100A9FED051A20EE010A30EE080ABDECFC
:10054800028B80BD00007A446F12833A4EF6FC514C
:10055800CEF200010A684FF0000C42F080720A6087
:1005680041F20001CEF20001C1F804C00B6844F268
:100578004022C0F20F0200FB02F043F001020A60C1
:1005880041F2DC51C2F20001086044F6D351C1F2D5
:100598006201A0FB0112910941F2E052C2F200028D
:1005A80011604DF68361C4F21B31A0FB0101880C78
:1005B80041F2E451C2F20001086041F2EC50C2F28B
:1005C8000000C0F800C0FFF766BF70B582B041F206
:1005D8000400CEF2000000680190FFF75CFF41F2D2
:1005E800EC50C2F200000068019C00254FF0FF317A
:1005F800E0FB014541F2DC50C2F2000006682046EB
:10060800294632460023FFF7F3FDA0FB062301FB32
:100618000633A41A41F2E052C2F200029D4141F2AF
:1006280008631668C2F20003C3E9000120462946A0
:1006380032460023FFF7DCFD41F21062C2F20002ED
:10064800C2E90001A0FB060201FB062141F2E452C7
:10065800C2F20002201A126865EB01010023FFF7BD
:10066800C7FD41F21862C2F20002C2E9000102B0FD
:1006780070BD10B5044601201021FFF730FED4E903
:1006880001122388002BC26042F22532038108BF81
:100698006423C2F20002038013784160591C117070
:1006A80041F2C461C2F2000141F8230010BD018883
:1006B8000181704770B542F22534C2F200042078F7
:1006C800A0B141F2C4660025C2F2000656F8251012
:1006D8000A891AB1013A0A8105E000BF4A6812B1D5
:1006E800C8689047207801358542EFD370BD00BEB9
:1006F8007047000080B586B0C820FFF727FF41F299
:100708003460C2F20000029047F6B470C0F20000F4
:1007180003900020059001A803F0BFFB42F62001DA
:10072800C2F20001086042F2485048F2F021C2F2D9
:100738000000C0F2000103F0D1FD43F21411C2F22F
:100748000001086000F070FB41F26861C2F200012C
:10075800086042F2E47048F26431C2F20000C0F26C
:10076800000100F0C1FC41F64061C2F200010860DE
:100778000AA0342102F080FC41F65C01C2F20001BB
:10078800086009A04FF4EA7103F03AFC41F66821C9
:10079800C2F20001086006B080BD00BF64756D6DCF
:1007A800795F636D6400000064756D6D795F6665DF
:1007B800656400002DE9F043BDB041F66820C2F23F
:1007C800000041F66C290068C2F20009494603F0AE
:1007D80003FC41F64060C2F20000026841F6600581
:1007E800D089C2F20005022802D10020286008E260
:1007F800B2F91200B0F5447F01DB012008E0B2F93C
:10080800100000EE100A0220B8EEC00A85ED0C0AAE
:10081800A8605089012805D042F2B961C2F20001EE
:1008280000230B709189032909D0022917D10220CE
:1008380045F8180B18212846FFF724FDE1E10220AE
:100848000021002228600020C4F29621C4F2B422BC
:10085800A861C5E90712C5E90900E862D1E10128E4
:100868002ED0032829D0022840F0488143F21410E2
:10087800C2F2000000680221296050F8011F9FEDB4
:10088800DA1A81F00041A9614168826800EE101A05
:100898009FEDD62A31EE400A01EE102AC16802699E
:1008A80085ED070A32EE411A696282F0004185ED52
:1008B800081AA9624069E86220E1012028601DE168
:1008C80041F26868C2F20008D8F80000002800F079
:1008D800158142F2B963C2F200031978002942F285
:1008E800BC61C2F2000134D199F86460012E40F075
:1008F800058101261E70D9E90A360B60D9F8303017
:100908004E60D9F834608B60D9F83830CE60D9F8A9
:100918003C600B61D9F840304E61D9F844608B6176
:10092800D9F84830CE61D9F84C600B62D9F850300C
:100938004E62D9F854608B62D9F85830CE62D9F833
:100948005C600B63D9F860304E63D9F86460C1E924
:100958000E361389022B2CD1B2F902309FEDEA1A18
:1009680000EE103AB2F90060B8EEC00AB2F90420FD
:1009780020EE010A91ED002A91ED013A30EE024A8B
:1009880000EE106A02EE102AB8EEC00AB8EEC22ACB
:1009980091ED026A20EE015A22EE011A91ED030A46
:1009A80035EE035A31EE063A91ED042A91ED051A17
:1009B8002BE0B2F904609FEDD31A00EE106AB2F989
:1009C8000030B8EEC00AB2F9062091ED032A20EEF5
:1009D800010A07EE103A30EE020A02EE102AB8EECB
:1009E800C77AB8EEC22A91ED046A22EE012A27EEF0
:1009F800011A91ED057A91ED004A91ED015A91EDB8
:100A0800023A32EE062A31EE071A9FEDC06A9FEDD0
:100A1800C07A84FE464A85FE465ADFEDBE0A9FED3F
:100A2800C06A84FE074A00229FEDBE7A85FE205ADE
:100A380081ED004A9FEDB84A80FE460A81F83C20C5
:100A480081ED015AD9F814309FEDB45AD9F81860DD
:100A580080FE070AD9F81C7083FE443AD9F8202092
:100A680081ED030AD9F824E082FE460A83FE053A9E
:100A7800029380FE070A0396049781ED023A0592D5
:100A880081ED040ACDF818E081FE460A9DED021AB0
:100A98009FEDA52A9DED033A9FEDA44AD9F810C011
:100AA80080FE070A31EE021A33EE042A01AA81ED0C
:100AB800050A07AB8DED021ACDF804C08DED032AA7
:100AC80001F01EFDD0B1D8F8000007AE01AA3146EA
:100AD80001F0EEF9002811D400EB40000221296052
:100AE80006EBC00156F830000F1DD1E9046105F18D
:100AF800180C8CCF8CE88D00C5E90A6195ED061AB3
:100B08009FED8B0AB4EE401AF1EE10FA02DA85ED89
:100B1800060A08E09FED870AB4EE401AF1EE10FAD3
:100B2800C8BF85ED060A95ED071ABBEE090AB4EEB3
:100B3800401AF1EE10FA02DA85ED070A08E09FED97
:100B48007E0AB4EE401AF1EE10FAC8BF85ED070A26
:100B580095ED081AB5EE401AF1EE10FA04DA9FED99
:100B6800770A85ED080A08E09FED6D0AB4EE401A91
:100B7800F1EE10FAC8BF85ED080A95ED091A9FED48
:100B8800690AB4EE401AF1EE10FA02DA85ED090AA4
:100B980008E09FED630AB4EE401AF1EE10FAC8BF00
:100BA80085ED090A95ED0A1A9FED650AB4EE401A1B
:100BB800F1EE10FA02DA85ED0A0A08E09FED610A03
:100BC800B4EE401AF1EE10FAC8BF85ED0A0A95EDA9
:100BD8000B1A9FED5D0AB4EE401AF1EE10FA07DA2F
:100BE80085ED0B0A0DE000BF000096420000B442FC
:100BF8009FED560AB4EE401AF1EE10FAC8BF85ED23
:100C08000B0A99ED2E0A9FED481A43F2181099ED38
:100C18003B2A30EE010A9FED451A5A21C2F2000024
:100C2800017010EE101A32EE010AD9F88420C0F8CB
:100C3800051010EE101AC0F80120D9F82021C0F8CC
:100C48000910D9F85411C0F80D20D9F88821C0F836
:100C580011109821C0F8152019F801202AB1343153
:100C6800B1F5E87FF8D1012100E0002141764FF687
:100C7800FB7141831C2103F063FB41F2F250C2F285
:100C88000000018801318AB20180042A2BD3002197
:100C980009F1100701808FCF0DF11C0C8CE88F0033
:100CA80009F130030FCBD9E909650DF13C0C8CE84B
:100CB8000F0042F2BC60C2F2000090E88E00CDE95D
:100CC8000C65D0E9046513A88EC042F62000C2F274
:100CD8000000D9F82C40006807A912220E94179634
:100CE800189503F04DF941F65C00C2F20000006867
:100CF80041F66001C2F2000102F0A0F93DB0BDE882
:100D0800F08300BF17B751386F12833A000096433B
:100D180000007AC3000096C30000E143000048C207
:100D280000003443000034C3000096C20000B4C27F
:100D380000002FC300002F430000164300000000EE
:100D48000000F0C20000F0420000B4C30000B44349
:100D5800F0B581B000F080FC42F22835C2F20005FF
:100D6800284600F0A9FC95E84F1041F26C67C2F2E2
:100D7800000787E84F1041F69406C2F2000606F114
:100D8800980000216FF0170205F118039D585C5C6C
:100D980040F8145C04700131043200F13400F5D1DC
:100DA80041F2846542F2C830C2F20005C2F2000086
:100DB80039462A4601F028F9D7E900013061B868B8
:100DC8007161F968C6E90601D7E90401306228684B
:100DD80071626968B062A868F162E968306328697D
:100DE80071636969B063A869F163E9693064286A65
:100DF8007164696AB064A86AF164E96A3065286B4D
:100E08007165696BB065D5E90E02C6E9171041F640
:100E18002800C2F20000016872663160D0E9010161
:100E2800C6E9011001B0F0BD42F2C830C2F20000BC
:100E38007047000010B5AEB01CAC47F63C71C0F26C
:100E4800000120464822FFF704FA42F2C830C2F2F5
:100E58000000214600F0ACFF6C4647F6CC61C0F2BA
:100E6800000120467022FFF7F4F9204600F0E2FE68
:100E780042F2DC10C2F200000721002301704FF09B
:100E88007C51C4F2FA33C0E90131002100224FF449
:100E9800FA74C4F24821C0E90321446100F056FC09
:100EA8000DA04FF4EA7102F0E7F841F6E051C2F202
:100EB800000108600BA0342103F0A2F841F6E451C8
:100EC800C2F20001086042F22730C2F2000001219C
:100ED80001702EB010BD00BF64756D6D795F6665D9
:100EE8006564000064756D6D795F636D6400000072
:100EF800F0B581B02DED068B054641F62800C2F20B
:100F080000000C4690ED040A9FED2D1A41F26C6228
:100F18000021C2F20002234613F8017B5FB16F186B
:100F280097ED002A571897ED003A32EE432AB0EEB3
:100F3800C22A82FE011A04311829EDD19FED218AB7
:100F4800B4EE481AF1EE10FA35DB9FED1F9AB3EEB6
:100F58000E2A41F26C67B4EE409A0026F1EE10FAC0
:100F6800C2F2000732FE000A9FED182A81EE000A3D
:100F780090ED051A81FE000A80FE02AAA05DA0B1CC
:100F880095ED000A97ED001A30EE411AB0EEC11A3D
:100F9800B4EE481AF1EE10FA07DB81EE0A1A701C5B
:100FA800C0B2C1FE090A00F0B5FE01360435062EAE
:100FB80007F10407E2D1BDEC068B01B0F0BD00BF1C
:100FC800000000000AD7233CCDCCCC3DCDCC4C3D15
:100FD80042F22730C2F200000078012818BF70479B
:100FE8002DE9F0412DED028B86B041F6E450C2F2B6
:100FF800000041F628050068C2F20005294602F003
:10100800EBFFFFF7A5FE42F2DC18C2F200084046EB
:1010180000F0BFFB002847D0286801280FD0D0B9BE
:101028009FED2D8A441C00BFB0EE480AE0B200F0E4
:101038006EFE0134082CF7D1FFF78AFE34E06868A9
:1010480005F11807DECF8DE85E00059780B101280D
:1010580012D11FA10DE020F0010002280CD105F1EA
:1010680018078FCFEE6A8DE88F001CA1059600E067
:1010780015A16846FFF73CFFA86802280DD195ED39
:101088000C0ADFED150A9FED171A00F09DFCD8ED4C
:10109800040A072000F03EFE06E0C1B242F2DC106E
:1010A800C2F2000000F0CEFC41F6E050C2F20000AF
:1010B800006841F69401C2F2000106B0BDEC028B53
:1010C800BDE8F04101F0BABF0101010100000000D4
:1010D8000000010101010000000000000101010100
:1010E8000101000000E0C34480B588B041F28112DC
:1010F80005ABC0F2000207C319208DF8100004A840
:1011080003F0A3F810A2D2E9012141F64863DFF801
:1011180038C0C2F20003186001A8CDE901C20391EA
:10112800FFF7A7FA41F63C61C2F2000141F64462BA
:101138000860012141F6E850C2F20002C2F2000044
:10114800117008B080BD00BFC80000005D1100002C
:101158000000000080B541F6E850C2F200005421BA
:10116800FFF790F841F64860C2F200000068BDE859
:10117800804003F0A1B800002DE9F04F8BB041F694
:10118800486042F26078C2F20000C2F200080168CA
:10119800B8F8000042F262760022C2F2000600BFF0
:1011A8008B5C87B201300132192A00F07F00F355B9
:1011B800F6D142F2E277C2F20007398800F18002E4
:1011C800521A02EB5263A8F8000023F07F03D21AE8
:1011D800192AC0F00E8141F6E8540DF11305C2F248
:1011E800000400BF725C0F2A05D101F1180202F059
:1011F8007F02B25C72B1013101F07F01398082B2A5
:10120800521A803202EB526323F07F03D21A182A53
:10121800E8D8EEE0002000BF8AB20131B25C01F0EC
:101228007F012A5401301928F6D19DF8130039801E
:101238000F2840F0DA809DF82B00002840F0D58078
:101248009DF814809DF815009DF817209DF816103C
:1012580060F30A28C308900040EA911E9DF8180020
:1012680061F34A139DF8191060F38A2E400861F360
:10127800CA109DF81B700190608308099DF81A1028
:101288007F0061F30A1047EAD1199DF81C109DF8F8
:101298001D2061F34A294FEA910A9DF81E109DF816
:1012A80020C0C90062F38A1A41EA521B9DF8212026
:1012B8004FEADC0162F34A11A8F580622280A3F5A7
:1012C8008062A4F81480A4F818E0CDF80880F046ED
:1012D8006280AEF58062DDF804E09DF81F70A280A0
:1012E800AEF580626CF30A27E280B0F5AF6F4FF07D
:1012F800030240F28A2CE382A083A4F81E90A4F88B
:1013080020A0A4F822B0A784E184039388BF022216
:10131800604538BF012203202281B9F5AF6F88BF2D
:101328000220E14538BF012060810320BAF5AF6F84
:1013380088BF0220E24538BF0120A0810320BBF509
:10134800AF6F88BF0220E34538BF0120E081A7F1D5
:10135800F0002082AEF2064080B24FF6F57290425D
:10136800A8F2064080B2A1F1F0014FF000036182BB
:1013780028BFE380904228BFA380029842F2607899
:10138800A0F2064080B242F2E277904228BF238062
:101398000398C2F20008A0F2064080B2C2F2000729
:1013A800904228BF6380002034F810100AB281EA06
:1013B800E231A1EBE23189B2B1F5617F88BF24F84F
:1013C800103001300428EFD1012084F8280004F1FE
:1013D8002A0021462A22FEF73CFF41F63C60C2F271
:1013E8000000006808B1FFF762F9B8F80000398812
:1013F80005E70BB0BDE8F08F42F2F412C2F200022A
:1014080092ED000A42F2CC12C2F2000240F20C1C29
:10141800C2F2000C137A9CED001A012B23D1D36879
:10142800032B20D192ED003A92ED012AB2EE045A34
:1014380032EE434AB0EEC44AB4EE454AF1EE10FA31
:1014480011DDB4EE432AF1EE10FA04DDB0EE080A1D
:10145800B8EE081A03E0B8EE080AB0EE081A33EE40
:10146800000A32EE011A08B180ED000A09B181EDD7
:10147800001A704742F22030C2F20000006842F2BF
:1014880000220021C2F20002117002F015BF000014
:1014980042F22030C2F200000168002975D02DE91F
:1014A800F04F87B042F2FC1291F80031C2F200020C
:1014B800108863B142F20127C2F2000711F8016BEC
:1014C80085B20130013BC0B27E55F7D1108042F29F
:1014D800FE19C2F20009B9F80010401A5FFA80FA42
:1014E800BAF11B0F4ED342F2012742F2043B6E467B
:1014F800C2F200074FF6FB78C2F2000B88B2002256
:101508008318DBB2FB5CB35401321B2AF8D19DF877
:101518000000AA282CD1BDF81900404528D19DE823
:101528003D10AAF11B0A8BE81D00BDF8180042F215
:101538000022ABF818009DF81A00C2F200028BF8DE
:101548001A0001F11B00C1B242F2F810C2F2000009
:1015580000680123CBF81050CBF814C0A9F800108C
:10156800137058B1FFF7A3F8B9F8001006E000BFF0
:10157800481CC1B2AAF1010AA9F800101FFA8AF0A2
:101588001A28BBD807B0BDE8F04F7047F0B581B056
:1015980004464069C0F3C316A6F1080111F1070F0C
:1015A80001D201B0F0BD00F07F0741F64040C2F221
:1015B8000000342116FB010501206874FEF790FF36
:1015C800A7F1210085ED050A0428EAD8DFE800F034
:1015D800033C12360C00207C0428E2D3A068686221
:1015E800207C0528DDD325E0207C042824BFA068C2
:1015F800A862D6E7207C0428D3D3A06842F24831F9
:10160800C2F2000100EE100A9FED121A01EB06115A
:1016180020EE010A91ED001A097980EE010AA8610D
:101628000029207CB1EE401A00FE010A052885ED4C
:10163800070AB6D3207B85F83000B2E7207C04285F
:10164800AFD3A068E862ACE7207C0428A9D3A068DF
:101658002862A6E70000B44370B52DED048B002482
:10166800FEF73EFFB0EE408A9FED129A41F64045E4
:10167800C2F20005002600BFA91991F8450001280B
:1016880010D191ED120A38EE400AB4EE490AF1EE93
:1016980010FA07DD91F8440081F845400121012244
:1016A80002F0E7FB3436B6F5B67FE5D1BDEC048B26
:1016B80070BD00BF00007A44F8B12DE9F0412DED6E
:1016C800028B00F1180800276FF017067D1CECB29A
:1016D800204600F013F82046B0EE408A00F022F8C9
:1016E80008EB060181ED008A08F8070004362F464A
:1016F800ECD1BDEC028BBDE8F0417047A0F10801C8
:1017080011F1070F3CBF9FED060A704741F64041B3
:10171800C2F20001342210FB021090ED070A704754
:1017280000000000A0F1080111F1070F3CBF0020E4
:10173800704741F64041C2F20001342210FB02100A
:1017480090F83000002818BF0120704742F2F410CA
:1017580040F20C11C2F20000C2F2000100680968F0
:1017680042F2CC12C2F20002C2E9000142F2C411F4
:101778000020C2F20001086042F2C011C2F200016A
:10178800086042F2C811C2F200011072D0600870FD
:1017980070472DE9F04F81B02DED048B82B0002801
:1017A80000F0DA8005780446A5F10800C0B2F928EF
:1017B800C0F0D28042F2CC17C2F20007F86894ED6C
:1017C800018A94ED039A42F2F418C11E40F20C19F2
:1017D800C2F20008C2F2000988ED009A022989EDD8
:1017E800008AC0F0B98042F2C01B42F2C81A41F622
:1017F8004046C2F2000BC2F2000AC2F2000618BB51
:10180800012187ED009AF96087ED018A42F2C4113F
:101818000020C2F200010860342115FB0161387212
:10182800CBF800008AF800004862284600F05DFA0C
:1018380041F20060C2F20000006828B1E9012131DC
:1018480000220023FEF708FEF86801280FD142F2B3
:101858004830C2F2000000EB0511B4EE498A01F1EC
:101868000C00F1EE10FAC8BF01F108000EE042F2D8
:101878004830C2F2000000EB0511B4EE498A01F1CC
:101888000800F1EE10FAC8BF01F10C0090ED000A53
:10189800D4ED040A284600F03DFA9AF80000013019
:1018A800C1B205298AF8000011D341F20060C2F2E2
:1018B8000000006800218AF8001028B1E9012131F0
:1018C80000220023FEF7C8FD284600F00EFA342057
:1018D80015FB006094ED021A90ED090ADBF8001080
:1018E800B0EEC00AB4EE410A0131F1EE10FAB8BF09
:1018F80000210829CBF8001014D3F968022933D045
:1019080001290FD1C169002639600221F96042F22C
:10191800C411C2F200010E60CBF800608AF80060C2
:1019280046621AE042F2C412C2F20002106861690B
:1019380001301060CA004FF47A73B2F57A7F88BF1D
:10194800CB0098424FF0000607D96168E26804208E
:101958003E72F860C7E900210126304602B0BDECAE
:10196800048B01B0BDE8F08F90ED070A97ED001ADF
:10197800B2EE042A87ED010A30EE411AB0EEC11A20
:10198800B4EE421AF1EE10FA18DD0320F860606830
:1019980094ED030A0126C9F8000088ED000A01A8A1
:1019A8008DED010A00213E72FFF726FD9DED010A2B
:1019B800D4ED040A284600F0ADF9CEE700203872CD
:1019C8000420F860C8E7000080B52DED068B82B0D2
:1019D80001A86946B0EE419AB0EE608AB0EE40AA1E
:1019E800FFF70AFD39EE481A9FED150AB0EEC12A35
:1019F800B4EE402A9DED010AF1EE10FA1BDB88FED9
:101A0800492A88FE093A8AFE022A82FE432A32EED1
:101A1800482A82EE011A9DED002A32EE403A21EE64
:101A2800031A80FE423A31EE001A80FE020A81FE55
:101A3800031A81FE400A02B0BDEC068B80BD00BFD0
:101A48006F12833A002800F0F4802DE9F0412DED63
:101A5800068B82B090F800800546A8F10800C0B255
:101A6800F928C0F0E18095ED019A95ED03AA42F2BC
:101A7800F41740F20C148DED00AA0E46C2F20007CE
:101A8800C2F2000487ED00AA684684ED009A00219E
:101A9800FFF7B2FC9DED008A01A987ED00AA00209E
:101AA80084ED009A8DED019AFFF7A6FC012E15D062
:101AB800002E40F0B980D5ED040AB0EE480A404641
:101AC80000F028F941F2F450C2F200000021017040
:101AD80041F2F850C2F200000160A5E041F2F4566C
:101AE800C2F2000630789DED019A012814D0002832
:101AF80048D141F64040C2F20000342118FB0100F1
:101B08000021D5ED040AB0EE490A4162404600F0D2
:101B180001F90120307087E041F2FC51C2F2000166
:101B280008780130C2B2052A08700DD341F200606E
:101B3800C2F20000006800220A7028B14FEAC811FA
:101B480021310023FEF788FC41F64040C2F2000034
:101B5800342118FB010095ED021A90ED090A41F2B3
:101B6800F851B0EEC00AC2F20001B4EE410A0A68A8
:101B7800F1EE10FA39DA332A34BF0020A2F132002C
:101B8800086051E041F2F551C2F2000108780130D5
:101B9800C2B2052A08700DD341F20060C2F20000FB
:101BA800006800220A7028B14FEAC81121310023C9
:101BB800FEF752FC41F64040B8EE080AB4EE489AE7
:101BC800C2F20000B0EE081A3421F1EE10FA18FB48
:101BD800010031FE000A90ED071AD5ED040A30EE37
:101BE800010A404600F096F81EE06B6901329A42FD
:101BF8000A6019D9B4EE489AB2EB430F84BF5A0071
:101C08000A60B8EE080AB0EE081AF1EE10FA31FED2
:101C1800000A90ED071AD5ED040A30EE010A404695
:101C280000F078F8022075E702B0BDEC068BBDE83D
:101C3800F04170472DE9F04385B042F22638C2F2F0
:101C4800000898F8001000294CD1054642F2B4402B
:101C5800C2F20000019048F28820C0F20000029011
:101C680041F29550C0F20000039001A8FEF7D2FBA4
:101C7800814641F20060C2F20000C0F8009095B1C0
:101C880042F248300021C2F2000000BF6A18D2E9CF
:101C980001746B581031D2680E1870290B50C6E9C0
:101CA8000174F260F2D141F64045C2F200052846BF
:101CB8004FF4D071FEF7E6FA05F14400012100BFA8
:101CC80000F8341B01310829FAD10125B9F1000FB8
:101CD800049505D004AA484601210423FEF7BCFB5D
:101CE80088F8005005B0BDE8F083072888BF704722
:101CF80041F20061C2F200010A683AB1C00100F184
:101D08002301104600220023FEF7A6BB70470321DB
:101D180002F09AB8A0F1080111F1070F38BF704717
:101D280080B582B042F24831C2F2000101EB0011E5
:101D38009FED1D3A91ED031A91ED022A81FE400AAA
:101D48009FED1A1A82FE000A80EE010A80EE811ABF
:101D580091ED002A0979B4EE423AB7EE003AF1EE75
:101D680010FA33FE022A002941F20061C2F2000192
:101D78000B6822EE003A22EE400A21EE021A03FE18
:101D8800000AB0EEC11A8DED000A8DED011A33B1CB
:101D9800C001C11D6A4618460823FEF75DFB02B064
:101DA800BDE88040704700BF6F12833A0000B4431B
:101DB80010B548220446FEF74CFAD4ED0F0A94ED0C
:101DC800100A20EEA06A20EE005A94ED0C3A36EE86
:101DD800055A84ED133AB1EE433AB1EEC56A84ED83
:101DE8002B3AB1EE403A84ED303A40F6DB729FED83
:101DF8002E3A94ED0D4AB4EE435A94ED0E1A9FED27
:101E08002B3AF1EE10FA40F6DB7194ED112A84EDCD
:101E1800144A84ED2A4A21EE014A4FF0000084ED6D
:101E2800181ACBF6C97284ED1B0A36FE033AC3F6BC
:101E3800C971C4ED1F0AA06484ED272AC4E91522DC
:101E480084ED2D1AE065C4ED320AC4E9190184ED68
:101E5800352AC4E91C0184ED364AA06784ED371A97
:101E6800C4E9200284ED385AC4F8880084ED393A70
:101E7800C4F88C00C4F89000C4F89410C4F8980012
:101E8800C4E92800C4F8B000C4F8B800C4F8BC001D
:101E9800C4F8C400C4F8CC00C4F8D00005F0C8FBEE
:101EA80084ED3A0A10BD00BFBD378635000000003A
:101EB8002DE9F04F81B02DED0E8B9FED479A9FEDE8
:101EC800478A9FED47AA9FED48BA9FED48CA9FED04
:101ED80045DA93460D46064601F1C00900274FF042
:101EE800FF380FF20C1A00BF07EB470019F8001073
:101EF800002965D048444178002961D080780028BD
:101F08005ED00024281990ED000AF0EE480A05F08A
:101F18008DFDB4EE4A0AF1EE10FA03DD30EE0B0A3D
:101F280007E000BFB4EE4D0AF1EE10FAD8BF30EE6C
:101F3800080A301990ED001AB4EE410AF1EE10FAD1
:101F48003EDB90ED061AB4EE410AF1EE10FA37DCEA
:101F58000434182CD6D1B0EE4CEA0024281990EDA0
:101F6800000A0BEB040090ED001AF0EE480A30EE80
:101F7800410A05F05BFDB4EE4A0AF1EE10FA03DD02
:101F880030EE0B0A07E000BFB4EE4D0AF1EE10FA8E
:101F9800D8BF30EE080A0AEB040090ED001A0434AA
:101FA80020EE011A182C21EE000A30EE0EEAD5D1E7
:101FB800B4EE49EA8EFE499AF1EE10FAB8BFB84677
:101FC8000137082F05F118057FF48EAF4046BDECA8
:101FD8000E8B01B0BDE8F08FFFFF7F7F0000B44398
:101FE80000003443000034C30000B4C30000000004
:101FF8000000004100000041000080400000C03F98
:102008000000803FCDCC4C3F2DE9F0472DED0A8BE9
:10201800F0B09FED06CA91460E46804600F1540581
:1020280000240DF1E80A002704E000BF34FA8E3CD2
:1020380000000000B6EC010A15ED031A20EE0C0AA8
:1020480030EE018AB0EE480A05F048FCB0EE409A3E
:10205800B0EE480A05F042FD95ED008AB0EE40AAC0
:10206800B0EE480A05F03AFCB0EE40BAB0EE480AC5
:1020780005F034FD0AEB07002BEE4A1A2AEE002A77
:1020880029EE0B3A20EE494A243780ED009A1035A4
:1020980080ED011AD82F80ED022A80ED03AA846111
:1020A80080ED043A80ED054A80ED070A80ED08BA14
:1020B800C0D11FED210A0AF1240E00210DF1C40C34
:1020C800534600BF01EB410000260CEB8007754624
:1020D800B0EE401A002428461A1992ED002A90ED15
:1020E800003A043422EE032A0C2C32EE011A00F1D5
:1020F8000C00F1D107EB86000136032E80ED001AA3
:1021080005F10405E4D10131032903F10C03D9D108
:102118001FED390A0AF1480E002131AA0DF1A00C71
:1021280001EB410000260CEB80077546B0EE401A23
:1021380000242846131993ED002A90ED003A043440
:1021480022EE032A0C2C32EE011A00F10C00F1D118
:1021580007EB86000136032E80ED001A05F1040511
:10216800E4D10131032902F10C02D9D19FEDDE0A35
:102178000AF16C0E002128AA0DF17C0C01EB41003C
:1021880000260CEB80077546B0EE401A002428465E
:10219800131993ED002A90ED003A043422EE032A35
:1021A8000C2C32EE011A00F10C00F1D107EB86007D
:1021B8000136032E80ED001A05F10405E4D1013142
:1021C800032902F10C02D9D19FEDC70A0AF1900E3A
:1021D80000211FAA0DF1580C01EB410000260CEB61
:1021E80080077546B0EE401A00242846131993ED6F
:1021F800002A90ED003A043422EE032A0C2C32EE29
:10220800011A00F10C00F1D107EB86000136032E0C
:1022180080ED001A05F10405E4D10131032902F12A
:102228000C02D9D19FEDB00A0AF1B40E002116AA0A
:102238000DF1340C01EB410000260CEB80077546CC
:10224800B0EE401A00242846131993ED002A90EDA9
:10225800003A043422EE032A0C2C32EE011A00F163
:102268000C00F1D107EB86000136032E80ED001A31
:1022780005F10405E4D10131032902F10C02D9D199
:102288009FED990A08F1A80000213AAA0AAB00BFFD
:1022980003EB8107B0EE401A002600BF951995EDB3
:1022A800002A851995ED003A043622EE032A0C2EF1
:1022B80032EE011AF2D1013187ED001A032902F139
:1022C8000C02E5D19FED880A08F1B400002131AA7B
:1022D80007AB00BF03EB8107B0EE401A002600BF32
:1022E800951995ED002A851995ED003A043622EEE8
:1022F800032A0C2E32EE011AF2D1013187ED001AB1
:10230800032902F10C02E5D19FED770A08F1C0001C
:10231800002128AA04AB00BF03EB8107B0EE401AE6
:10232800002600BF951995ED002A851995ED003A0C
:10233800043622EE032A0C2E32EE011AF2D10131B4
:1023480087ED001A032902F10C02E5D19FED660A18
:1023580008F1CC0000210DAA01AB00BF03EB8107F7
:10236800B0EE401A002600BF951995ED002A851990
:1023780095ED003A043622EE032A0C2E32EE011AAD
:10238800F2D1013187ED001A032902F10C02E5D1DF
:102398009DED0A0A9DED073A9DED0B1A30EE030AF2
:1023A8009DED043A9DED0C2A30EE030A9DED013AAD
:1023B8009DED084A9DED095A30EE030A9DED056A28
:1023C8009DED067A31EE041A32EE052A0DAF89ED3D
:1023D800000A9DED138A8FCF9FED440ADDED020AB6
:1023E800DDED031A31EE061A32EE072ADDE9126531
:1023F800B0EEC83A09F1180C8CE88F001598B4EEC5
:10240800403A31EE201A32EE212A149CF1EE10FAED
:10241800C9F8380089ED011A4FF0010089ED022A48
:10242800C9E90B65C9F8344089F83C0038DA9DEDF4
:10243800109A9DED0DAA29EE090A2AEE0A1A31EE24
:10244800000AF1EEC00AB1EE480A05F0F1F8B0EE64
:10245800408A05F043FA9FED281AB0EEC02AB4EE80
:10246800421AF1EE10FA31FE00BA89EE0B0ACAEEF2
:102478000B0A05F0DDF89DED141A9DED152A81EE85
:102488000B1AC2EE0B0AB0EE409AB0EE410A05F004
:10249800CFF89FED1A1A28EE012A29EE011A13E047
:1024A8009DED0E0ADDED110A05F0C2F8B5EE408A81
:1024B8009FED0D1AF1EE10FA02DA9FED0D2A03E0F6
:1024C8009FED0C2AB1EE400A9FED0C3A012089EDF0
:1024D800042A20EE030A89ED051A89ED030A70B073
:1024E800BDEC0A8BBDE8F0870000000072F97F3F61
:1024F8000000B4420000B4C217B7D138E12E6542DB
:102508002DE9F04F81B02DED108BDEB08846834663
:102518001846D8211C469246FDF7B4FE54A800F18F
:102528000C035AA808309FED7F0A069000200FA9D7
:102538000AEB000292ED001A0A1821EE001A043084
:10254800182882ED001AF3D198E8070007934E90F7
:1025580098F83C0009944F91509288B108F11807F7
:102568008FCFD8E90B650DF58A7CD8F834408CE814
:102578008F00D8F83800CDE94A65CDE94C406BE0CA
:1025880098ED031A98ED042A98ED053A21EE008A91
:1025980022EE009A23EE00AAB0EE480A8DED518A89
:1025A8008DED529A8DED53AA05F098F9B0EE40BA28
:1025B800B0EE480A05F092FAB0EE408AB0EE490A49
:1025C80005F08CF9B0EE40CAB0EE490A05F086FA7B
:1025D800B0EE409AB0EE4A0A05F080F9B0EE40DA63
:1025E800B0EE4A0A05F07AFA29EE0D1A20EE0B2A07
:1025F80021EE083A21EE0B1A33EE422A28EE003A71
:102608008DED462A31EE031A2CEE003A29EE000A27
:102618008DED471A8DED483A2BEE0D1A20EE082A5B
:102628002DEE083A20EE0B0A32EE011A2CEE0D4A76
:1026380030EE430A28EE0C2A2BEE0C3A8DED491A9F
:10264800B1EE491A8DED454A8DED4A0A8DED4B1ACA
:102658008DED4C2A8DED4D3A9FED330A0BF1CC01EF
:10266800002245AB3CA800BF00EB8207B0EE401A41
:10267800002600BF9D1995ED002A8D1995ED003AA9
:10268800043622EE032A0C2E32EE011AF2D1013260
:1026980087ED001A032A03F10C03E5D100214EAAA5
:1026A80042AD00BF531893ED000A431893ED001A8A
:1026B8006B1830EE410A04310C2983ED000AF1D180
:1026C8009DED43AA9DED429A2AEE0A0A29EE091ABF
:1026D800DFED168A31EE000A099EB1EEC00AB4EEAB
:1026E800680AF1EE10FA2DDDB0EE4A0AF0EE490A5A
:1026F80004F09EFFB0EE408AB1EE4A0AF1EE490AB4
:1027080004F096FF00208DED020A012100EB400243
:1027180001303244042882F8C01082F8CC10F5D178
:1027280020E000BF34FA8E3C00000000BD3786353B
:10273800DB0FC940DB0F4940DB0FC9C0E12E654202
:10274800DB0F49C09DED0F8A0020FF2100EB4002FE
:1027580001303244042882F8C01082F8CC10F5D138
:102768008DED028A0BF1980005900BF1780004902A
:1027780054A81430039001205FED15AA1FED14AA88
:102788005FED14EA5FED14FA1FED149A5FED149AE9
:102798000BF1A80406F1C0090B900DF1C0083FAE7B
:1027A80000200A900E90CDF820B001949BED120AFB
:1027B80038EE00BAB0EE4B0A05F090F8B0EE40CA19
:1027C800B0EE4B0A05F08AF900218DED310A0020A0
:1027D800B1EE400ACBF680718DED30CACDE93200FA
:1027E8008DED360A34908DED37CA35914FF0000AD9
:1027F80038904046002100BF06EB8102B0EE6A0A1D
:10280800002300BFC71897ED001AEF1897ED002AAC
:10281800043321EE021A0C2B31EE000AF2D10131F9
:1028280082ED000A032900F10C00E5D1002039AA45
:10283800311891ED000A211891ED001A111830EEA7
:10284800410A04300C2881ED000AF1D19DED3A0AC5
:10285800DDED390A20EE001A20EEA02A9BED37DACA
:1028680032EE01CA9BED39EAB1EECCFA3DEE0E1A12
:1028780031EE282AB4EE42FAF1EE10FA40F3D08293
:1028880004F0D6FE00208DED5A0A5B908DED5C0AAF
:10289800B0EE6A0A0A9B8DED5D0ADDED12DA03EBF4
:1028A800430143F0020202EB42024944487009EB3B
:1028B800020143F0010202EB4202487009EB0201F7
:1028C80043F0030202EB4202487009EB0201DDED1E
:1028D80014CA487001205AAC002100BF94ED00BA18
:1028E8009BED160ACDE90C103BEE00CAB0EE4C0A7F
:1028F80004F0F4FFB0EE40DAB0EE4C0A05F0EEF862
:1029080094ED01CA9BED1A1AB0EE40FA3CEE01EACA
:10291800B0EE4E0A04F0E2FFF0EE408AB0EE4E0A46
:1029280005F0DCF82FEE001A2DEE282A2FEE283AB3
:102938002DEE000A32EE414A30EE030A4FF07E5087
:102948008DED274A31EE421A00218DED280A2C9090
:102958008DED2D0A27A88DED2E1A0DF1780C0DF1AD
:10296800540E0DF58A7ACDE929112B912F9100BFCC
:1029780001EB410200230CEB82024746B0EE6A0AE3
:1029880000243E46051995ED001A96ED002A0434F8
:1029980021EE021A0C2C31EE000A06F10C06F1D1D8
:1029A80002EB83060133032B86ED000A07F10407C7
:1029B800E4D10131032900F10C00D9D1002061468E
:1029C80000EB400200230EEB82025746B0EE6A0A83
:1029D80000243E460D1995ED001A96ED002A0434A0
:1029E80021EE021A0C2C31EE000A06F10C06F1D188
:1029F80002EB83060133032B86ED000A07F1040777
:102A0800E4D10130032801F10C01D9D19DED1D0A53
:102A18009FEDE21AB4EE410AF1EE10FA46DA9FEDA4
:102A2800E01A099DB4EE410A079FF1EE10FA47DD5E
:102A3800BFEE001A80FE010AB7EE001A80FE41DAE6
:102A4800B0EE4D0A04F068FD0B98C00773D08DED09
:102A5800550AB0EE4D0A04F05FFD9DED17DA9DEDC5
:102A68001AEAB1EE400A8DED580AB0EE4E0AF0EEC1
:102A78004D0A04F0DDFD8DED540AB1EE4E0AF1EE7B
:102A88004D0A04F0D5FD9DED1CEA9DED1BDA8DED98
:102A9800570AB0EE4E0AF1EE4D0A04F0C9FD8DED6D
:102AA800560AB1EE4E0AF0EE4D0A72E00B98099DF7
:102AB800079F0021C007559158910ED179E000BFBA
:102AC8000B98C0076BD040F6DB70C4F249005590F4
:102AD80040F6DB70CCF2490058900498CDED54DAFA
:102AE80090ED000A3DEE80DAB0EE4D0A04F0F6FEF5
:102AF800B0EE40EAB0EE4D0A04F0F0FF9DED15FA95
:102B0800DDED188A20EE0F1A2EEE282A20EE283A3C
:102B18002EEE0F4A32EE410A74EE030AF1EE4FBA76
:102B280004F086FD05988DED560AB0EE6C0ACDEDE1
:102B380059CA3C466AE0B1EE400A8DED550AB0EE3E
:102B48004D0A04F0E9FC9DED17DA9DED1AEA8DEDCA
:102B5800580AF1EE4D0AB1EE4E0A04F069FD8DED0A
:102B6800540AB0EE4E0AF0EE4D0A04F061FD9DEDF8
:102B78001BEA9DED1CDAF0EE4E0A8DED570AB1EE18
:102B88004D0A04F055FD8DED560AF1EE4E0AB0EEF1
:102B98004D0A04F04DFD01208DED590A55E040F62F
:102BA800DB70CCF24900559040F6DB70C4F2490066
:102BB80058900598CDED56CA90ED000A3CEE80DAA3
:102BC800B0EE4D0A04F08AFEB0EE40EAB0EE4D0ACF
:102BD80004F084FF9DED15FADDED188A20EE0F1A3A
:102BE8002EEE282A20EE283A2EEE0F4A32EE410A1F
:102BF80074EE030AF1EE4FBA04F01AFD04988DED55
:102C0800540AB0EE6D0A039CCDED57DA90ED001A28
:102C180030EE01DAB0EE4D0A04F060FEB0EE40EAA4
:102C2800B0EE4D0A04F05AFF20EE2B1A2EEE282A99
:102C380028EE803A2EEE0F4A32EE010A74EE030AAD
:102C480004F0F6FC84ED000AFF200A990C9A00248F
:102C580042EA010B0BEB4B014BF0010202EB420283
:102C68004944887009EB02014FF0010A54AE88709C
:102C7800B0EE480AF0EE4A0A04F0D8FEB4EE6E0A46
:102C8800F1EE10FA02DD30EE2F0A06E0B4EE690A22
:102C9800F1EE10FAD8BF30EE0A0A44EA0B0000EB56
:102CA800400820EE090A05EBC804F0EE4A0A84ED54
:102CB800000AB0EE4B0A04F0B9FEB4EE6E0AF1EE6B
:102CC80010FA03DD30EE2F0A07E000BFB4EE690A00
:102CD800F1EE10FAD8BF30EE0A0A20EE090AF0EE3B
:102CE8004A0A84ED010AB0EE4C0A04F09FFEB4EEE5
:102CF8006E0AF1EE10FA03DD30EE2F0A07E000BF8E
:102D0800B4EE690AF1EE10FAD8BF30EE0A0A20EEE6
:102D1800091A96ED000AF0EE4A0A84ED021A04F048
:102D280085FEB4EE6E0AF1EE10FA03DD30EE2F0ADE
:102D380007E000BFB4EE690AF1EE10FAD8BF30EE32
:102D48000A0A20EE091A96ED010AF0EE4A0A84ED05
:102D5800031A04F06BFEB4EE6E0AF1EE10FA03DD0E
:102D680030EE2F0A07E000BFB4EE690AF1EE10FA60
:102D7800D8BF30EE0A0A20EE091A96ED020AF0EEE4
:102D88004A0A84ED041A04F051FEB4EE6E0AF1EE1C
:102D980010FA07DD30EE2F0A0BE000BFEFFF7F3F90
:102DA800EFFF7FBFB4EE690AF1EE10FAD8BF30EE3C
:102DB8000A0A19F8080020EE090A84ED050A40B14C
:102DC80009EB08004078002818BF01200E9901433C
:102DD8000E9101245FEACA704FF0000A3E467FF464
:102DE80047AF0D98069CC007DDF820B04FF00201F0
:102DF8004FF000000DF1C0083FAE7FF46FAD042026
:102E08000A900B989DED028AC007DFED678A019C46
:102E18004FF0000042AD0B907FF4C8ACBBE000BFA0
:102E28003DEE4E2A9FED613AB0EEC22A32EE033AE9
:102E3800B4EE43FAF1EE10FAFFF622ADB4EE68FAFA
:102E4800F1EE10FA7FF71CADB4EE68DAF1EE10FA85
:102E58007FF716ADB4EE68EAF1EE10FA7FF710AD21
:102E680031EE4F1AB0EEC11AB4EE681AF1EE10FA4C
:102E780054DD3FEE421AB0EEC1BA04F0D9FBB4EE0D
:102E880068BAB0EE40BAF1EE10FA4FDDDBED368AE3
:102E9800DBED38BA3CEE280AF6EE00DAF7EE00CAA7
:102EA80030EE6B0A2DEE0F1A20EE2D0ABFEE00FA57
:102EB80080EE010A80FE0F0A80FE6C0A04F02CFBEB
:102EC80038EEAB1A2DEE0E2A31EE4C1AB0EE40CA8F
:102ED80021EE2D1A81EE021A81FE0F1A81FE6C0A6C
:102EE80004F01AFB0B98C00730D09BED3A1A3BEE62
:102EF8004C2A9FED2F4A31EE403A32EE042A33EE47
:102F08002E3A8DED5A2A3BEE0C2A30EE010A8DED51
:102F18005B3A32EE041A30EE290A2FE004F088FBFF
:102F2800CDF86CA18DED5A0A0120AFE40B988DED18
:102F38005ABA8DED5CBAC00724D040F6DB70C4F2F3
:102F480049005B900120B0EE690AA3E43BEE0C2A2D
:102F58009FED174A9BED3A1A32EE042A30EE013AF9
:102F68008DED5A2A3BEE4C2A31EE400A33EE293ACF
:102F780032EE041A30EE2E0A8DED5B3A01208DED0B
:102F88005C1A87E440F6DB70CCF249005B900120C4
:102F9800B0EE6E0A7EE40E9800F001005EB0BDEC63
:102FA800108B01B0BDE8F08FBD378635BD3786B5CB
:102FB800DB0FC93F2DE9F04146F22018C4F20008A2
:102FC800B8F80000B8F8201041F64C6501EA000690
:102FD800B7B20024C2F2000527FA04F0C00704D0F3
:102FE80055F8241009B1204688470134102CF3D134
:102FF800A8F81060BDE8F0810F4B1968EFF309825B
:103008001EF0100F08BF22ED108A22E9F04FEFF3EF
:103018000B8342F8043D0A604FF0100080F31188DA
:10302800BFF34F8FBFF36F8F03F0F6FA4FF0000036
:1030380080F3118802F0D0BB3C260020F0B581B0A7
:10304800466AB6B104460D46002700BF307A2946C5
:10305800012804BFB7713772F079628C56F82000E6
:10306800FDF7F7F8307AF77101303072F668002E04
:10307800ECD1012001B0F0BDF0B581B00C462121A2
:103088000546FDF721F91F2801D900BFFEE740F2E8
:103098001017C2F2000700BFBE6A66B13046294663
:1030A800FDF7FBF800283746F6D1708C844230468D
:1030B8000BD000BFFEE701203021FDF710F92946AB
:1030C800B8624484FDF7F7F83E46012186F82C10D3
:1030D80001B0F0BDB0B543F22404C4F208040025E1
:1030E800C8200121257100F082F825702078002879
:1030F800FCD1207840F00200207000BF20788007C3
:10310800FCD4002004F8020C14F8020C0028FBD1AF
:10311800002004F11C0100BF11F8102002F07F020A
:1031280001F8102011F91020002AFBD401300328DF
:10313800F2D1012000F00BF84EF2BB420021C4F29C
:10314800010201201170BDE8B04000F027B880B539
:103158000122EFF3108182F3108841F61872C2F24F
:10316800000232F810308BB94EF2FE3C48F2B81328
:10317800C4F2010CC0F20003BCF800E033F81030D0
:1031880043EA0E0343F42543ACF8003032F810301C
:10319800013322F8103081F3108880BD0122EFF34B
:1031A800108182F3108841F61872C2F2000232F8D8
:1031B800103023B132F81030013B22F8103032F8C9
:1031C80010208AB94EF2FE3CC4F2010C48F2B81243
:1031D800BCF80030C0F2000232F8100043F4254277
:1031E80022EA0000ACF8000081F31088704741F231
:1031F8002062C2F20002126801FB00F041F20021D5
:10320800C0F27A018A420FD340F6FF01C0F23D01B5
:1032180011444DF68362C4F21B32A1FB0212110D58
:10322800A0FB0101E9B11FE04CF60021C3F69A3179
:1032380048F63813C0F24103B1FBF2F1984207D2C5
:103248004FF47A7200FB02F0B0FBF1F0800808E05E
:103258008900B0FBF1F0984206D24FF47A7100FB76
:1032680001F028B101F0A9B94FF0FF3001F0A5B97C
:1032780070477047022818BF704741F6007048F23F
:10328800B801C2F20000C0F2000100F04FBB00001C
:103298002DE9F04F81B0834608688A460090D1E94D
:1032A80002010027DAF81090C4F20B070022CBF8CD
:1032B8001C100121CBE9007ACBE90502D9F81C8062
:1032C800EFF3108081F3108844F20801C4F208017A
:1032D8000A684EF2034C22F000620A60096880F323
:1032E80010884EF20016D7F88C0046F2003542F2EC
:1032F8005C14CEF2000CCEF20006C007C4F2000542
:10330800C2F2000455D06446D7F88C000007FBD4FD
:103318005846812102F006F9D8F8040041F2143128
:10332800C7F884004FF48030C7F89C000120C4F22D
:103338000B010860D8F82800C7F8AC00002000BFCF
:1033480008EB800107EB8002896801300828C2F881
:10335800C010F5D198F82D00A4460001607042F223
:103368005C140020C2F2000446F200352061C4F269
:10337800000529694EF2001621F480312961296976
:103388001021CEF20006BFF35F8FC6F880113160BE
:10339800D8F80010C7F8881008F1300151F820203B
:1033A80007EB8003013022F001020628C3F8202130
:1033B800F4D198F82C00A04600018CF80000C4F85D
:1033C8000CB0E86820F48030E860E8680820BFF3B3
:1033D8005F8FC6F88001306042F25410009CC2F240
:1033E800000040F824B04FF48070012CC7F8980012
:1033F80021D0D9F80010C7F89800D1F800C04A6861
:103408008B68C96841F60C00C4F20B00016041F6F4
:10341800080041F60401C4F20B00C4F20B0103607A
:103428000A6041F60001C4F20B01C1F800C001684E
:1034380064F3C71101600020C7F8980058460121BD
:1034480002F070F8DAF804004EF2001690E80E0068
:10345800C06801396FF39F2141EA42415A1EA1F524
:10346800003141EA42614FF60042CFF6FF7202EBAB
:10347800802046F20035084321017850D9F814001D
:10348800CEF2000690E80E00C0680139C9B241EAE0
:1034980002210022CFF6FF7202EB0342A1F58071F0
:1034A8001143013841EA006041F21431C4F20B01C2
:1034B80001EB4411C4F20005C1F8EC00D9F814007E
:1034C8004068FF2828BFFF2099F81820000440EA28
:1034D800422040F201421043C1F8F000D9E902123B
:1034E80007EBC400C0F8501FC0F8542FD9F81000DB
:1034F80007EB041140F003004860DAF818000028D0
:103508001DD49AF814103218090182F8001348F8EB
:1035180020B055F82010012321F4803145F82010FF
:1035280055F8201000F01F01400906EB800203FA4D
:1035380001F1BFF35F8FC2F8801146F82010DAF866
:10354800200000281DD49AF814103218090182F8B6
:10355800001348F820B055F8201000F01F0221F49D
:10356800803145F8201055F820100123400903FA4E
:1035780002F206EB8003BFF35F8FC3F8802146F8A1
:103588002020DAF81C0000281DD49AF814103218EC
:10359800090182F8001348F820B055F820100122DC
:1035A80021F4803145F8201055F8201000F01F0153
:1035B800400906EB800302FA01F1BFF35F8FC3F8FD
:1035C800801146F820105846802101F0ABFF58467C
:1035D8000021002501F0A6FF44F24460C5F2432013
:1035E800CBE902050020CBF8105001B0BDE8F08F00
:1035F80010B59368D2E900E4D0F804C04EEA8373AA
:10360800DCF800C043EAC47E272916D90CEB4C032A
:1036180004680B44A3F1280C04EBCC134FF4C84402
:1036280043F804E0137B092B27D3182B22D803F582
:103638007E73082404EB93031FE041EA8C1C0368A3
:1036480003EB0C0494F8D047240744BF4EF66320DC
:1036580010BD03EBCC134FF4803443F804E0137B24
:10366800092B28D3182B23D803F57E73082404EBE1
:10367800930320E00B2404EB131304684FEA037E42
:1036880004EBCC1446F2044344F803E004681369DD
:1036980004EBCC1403F0070E46F2084344F803E0A9
:1036A800036846F20C4403EBCC1303EB040E1DE055
:1036B8000B2404EB131304681B0704EBCC1E04242F
:1036C800C0F201044EF804300368146903EBCC1E01
:1036D800082304F00704C0F201034EF8034003680E
:1036E80003EBCC1303F5803303F10C0E137B3BB1D2
:1036F800143200BF12F8014B013B0EF8014BF9D10F
:103708000068272905D900EB8C00FF21C0F840127A
:1037180003E06044012180F8D012002010BD06208B
:1037280070470146406846F20032C4F2000252F87F
:10373800203023F0807342F8203040F20002C2F2B9
:103748000002002342F8203000200B6070474168D7
:1037580046F20032C4F2000252F8210020F08073D1
:10376800002042F821307047416846F20032C4F226
:10377800000252F8210040F08073002042F8213006
:103788007047406840F20002C2F2000252F820007E
:103798000022C1E90022C278402A05D24FF48032C3
:1037A8008A60C089C8600FE04FF480728A60C2895D
:1037B800D2B2CA60C27802F0C002802A04D14FF4A3
:1037C80080320A608089486000207047F0B581B077
:1037D80042F2B862C2F20002137840F200060D46C7
:1037E8000446C2F20006D3B9012744F2000117705B
:1037F800EFF3108087F31088C4F208010A6822F4F6
:1038080080020A60096880F3108830466421FCF75A
:1038180039FD45F20C40C4F2000086600770686804
:103828000068002804D456F8201019B108200DE0CB
:103838000B200BE02968606011B1204601F008FFF9
:1038480044F20030C4F254402060002001B0F0BDC2
:10385800B0B50446406846F20035C4F2000555F894
:10386800202022F0807245F82020606845F20E4240
:1038780040F40040C4F2000213889842FCD020466D
:1038880001F0E6FE616855F8210040F080720020E2
:1038980045F82120B0BD06207047000010B582B061
:1038A80001910092416840F2000246F2003CC2F2E7
:1038B8000002C4F2000C52F821E05CF8212022F04A
:1038C80080724CF82120426845F20E41C4F2000192
:1038D80042F400420C88A242FCD008228A70019A65
:1038E80012B1019ACEF80420009A12B1009ACEF8CB
:1038F80008209EF8032002F0C004802C02D1AEF804
:103908000C3003E03F2A98BFAEF80E3018228A70B8
:1039180041685CF8210040F0807200204CF82120BA
:1039280002B010BD062070470620704780B545F2EA
:103938005422C5F24F020260084601F0ABFE002097
:1039480080BD0000B0B50D468907044601D40620A5
:103958001DE0206A817801F07B018170E069406B8D
:1039680020B1816800680969884700E00020217853
:1039780049B1216A8A8A42F004028A82216A00BF18
:103988008A8A5207FCD400212161B0B90020E907D6
:1039980013D0E069016B0020A06119B18A6808683A
:1039A80011698847217841B1216A8A8A42F0020266
:1039B8008A82216A8A8A9207FCD4B0BD2DE9F04335
:1039C80081B00A780D460121914011F0060F044696
:1039D80005D0286CC0680078000700F1C28048F262
:1039E8000000C4F2110040EA02200022206240F2E6
:1039F800F930084018BF0120E56100012070D5E9C1
:103A08000E01A2626062A078E16220F00300411C0E
:103A1800A170696811B940F00200A070EE6A4EF218
:103A2800001806F01F014FF0010CCEF200080CFA46
:103A380001F308F18001770995F8282041F827302B
:103A4800BFF34F8F46F20039C4F20009BFF36F8FFE
:103A580059F82630170123F4803349F8263008F541
:103A6800407259F8263097556F6942F25C1E07F08C
:103A78001F00C2F2000E0CFA00F07B094EF8264037
:103A88002E7C41F82300BFF34F8FBFF36F8F59F897
:103A98002700330120F4803049F8270059F827001F
:103AA800D355E8694EF8274000F01F060CFA06F6D1
:103AB80047092B7E41F82760BFF34F8FBFF36F8F05
:103AC80059F820601B0126F4803649F8206059F81F
:103AD800206013544EF82040686A95F8203000F0B2
:103AE8001F060CFA06F7460941F82670BFF34F8FF8
:103AF800BFF36F8F59F820101B0121F4803149F86A
:103B0800201059F8201013544EF82040286B78B133
:103B1800406802684FF4002042F8040B206A296BC1
:103B2800431D204601F036FE0646002840F01C8161
:103B3800686BC0B1406802684FF0006042F8080B3B
:103B4800206A696BC31C204601F024FE58B1064662
:103B5800286B002800F0088181680068096A884796
:103B680002E1032600E10120EFF3108180F31088C1
:103B780044F204072A78C4F208074FF000433E686D
:103B880023FA02F226EA02023A603A6881F31088C0
:103B98000022216A8A70216A0A71216A4A72216A9E
:103BA8008A72216ACA72216A4A832978884040F257
:103BB800F931084202D0206A4021C174206A0621E6
:103BC80001772078C8B1E269116B00294FF0010133
:103BD80005D1126C431E12691A4062F30B21013899
:103BE80000F00F0041EA0030216A40F006028A82A4
:103BF800216A00BF8A8A9042FCD1D5E90112E8689F
:103C08004FEAC00040EA021029B1032908BF40F07A
:103C18004000F22100E0E221226A00271070206AA9
:103C280002228171286C816902EA41020829216A0D
:103C380008BF0A224A73236AD0E901121F72036877
:103C4800C90123F00103C9B2022B62F345110AD15D
:103C5800226AFF23537000680228206A08BF41F0D7
:103C68001001C17117E0226AD171C068216A827897
:103C78004A7042780B7802F0030203F0FC031A44FE
:103C88000A70C2788A74CA79007802F0A30200F038
:103C98005C001044C8710026E169C4E90366C4E900
:103CA8000566286C4F69017859F8272007F01F032B
:103CB80022F4803249F8272059F82720012202FAF5
:103CC80003F508F5C0737F09BFF35F8F43F82750EA
:103CD80048F82750E769FF6A59F8275025F48035D6
:103CE80049F8275059F8275007F01F0502FA05F53B
:103CF8007F09BFF35F8F43F8275048F82750E769DB
:103D0800FF6959F8275025F4803549F8275059F8A4
:103D1800275007F01F0502FA05F57F09BFF35F8FEB
:103D280043F8275048F82750E7697F6A59F8275021
:103D380025F4803549F8275059F8275007F01F0512
:103D4800AA407F09BFF35F8F43F8272048F8272050
:103D58001C22236A62F39F019970406944F6551149
:103D6800C5F24331C4E90110304601B0BDE8F08323
:103D780070B50446C0691546006B0E4678B1A17847
:103D8800826801F00301013925FA01F10068D2F8CF
:103D980008C08BB200213246E04700B170BD002058
:103DA800C4E9056570BD70B50446006A0E4683789F
:103DB80003F07B038370207808B1314604E0A078D3
:103DC80000F00300121A3118E069C4E90312406BCD
:103DD80088B182B1A3784FF0000C03F00303013BD4
:103DE800DA40836800689D6893B20022C4F810C066
:103DF800A84700B170BD206A817841F080018170C8
:103E0800207868B9A07800F00300022805D130882E
:103E1800216A40F47E40C88102E03078216AC87087
:103E2800002070BD00F030F900F0F4FEFEE700005D
:103E38001EF0040F0CBFEFF30880EFF3098001496F
:103E4800084700005562000080B582B007288DED54
:103E5800010A0CD841F20062C2F20002136833B1C1
:103E680041EAC01101AA18460423FCF7F5FA02B08A
:103E780080BD80B582B0072801920CD841F200625B
:103E8800C2F20002136833B141EAC01101AA184610
:103E98000423FCF7E1FA02B080BD70B54FF00004CE
:103EA80038B342F61C06C2F20006054630780128EF
:103EB8001FD801204FF48471FCF711FAC0B10446F1
:103EC80043F60170C0F20000E860112029692870EB
:103ED8002846C4F8041100F0B8F931782060481C6D
:103EE800307042F62400C2F2000040F8214000E0A1
:103EF8000024204670BD000070B52DED028B42F6FF
:103F08001C04C2F200042078A8B39FED1C8A42F674
:103F180024060025C2F2000656F8251039B30868B1
:103F280028B3D1F8042112B30178AA2916D141780F
:103F3800552913D1C17B0D2910D1017C0A290DD136
:103F4800C11C0B68D1F804C08968807800EE103A6B
:103F580000EE90CA01EE101A002107E00020B0EE32
:103F6800480AF0EE480AB0EE481A01219047207836
:103F780001358542D0D3BDEC028B70BD0000000036
:103F880048B341B32DE9F041076804460FB315461D
:103F9800122A28BF12254FEA8508261D30464246B8
:103FA800FCF757F94FF0FF4046F8250097F8100145
:103FB80078B9012087F8100108F10401D7F8040145
:103FC800CAB23146FFF7EFFE18B12068002180F829
:103FD8001011BDE8F0417047B0B50546007A0024DD
:103FE80060B1A879AA8855F8203008461946FCF728
:103FF80030F9287AAC710138012428722046B0BD06
:1040080070B50E46FFF738F8054601201021FCF779
:1040180066F904468680304603F028FE206055F88D
:10402800240F28B10146C0680028FBD101F10C0516
:1040380020462C6070BD10B51020EFF3118480F37A
:10404800118802F0E1FF30B14EF60450CEF20000C4
:104058004FF08051016084F3118810BD4EF22000AA
:10406800C4F201008179006841F2C052C2F2000234
:10407800C0F3026052F8211021FA00F041F22061E9
:10408800C2F200010860704710B54EF60850CEF233
:1040980000004FF47001C0F8801040F20001C0F237
:1040A8000001016000200024FFF7E4F800F060F947
:1040B8000120FFF7DFF841F2C010C2F2000080F3E0
:1040C8000A88002000F032F8FFF7C8FFFFF702F86F
:1040D8000320FFF73CF840F61050C4F208004FF6F2
:1040E800FF7100BF20F8141001340C2CFAD1032002
:1040F800FFF754F80320FFF72AF80420C4F20E0053
:104108000021016041608160C1600320FFF746F82B
:104118000220FFF7AFF8012000F008F800F008FAD5
:104128000020BDE8104000F001BA0000F0B581B0F1
:1041380048F23C15C0F200052E68044676B168685E
:10414800071D00BF7879844204D157E90101091A93
:10415800FCF798F8013E07F10C07F3D1AE6886B179
:10416800E86800F1080500BF6879844205D155E97F
:1041780002022968121AFCF76CF8013E05F11005D5
:10418800F2D101B0F0BD0000B0B542F22431C2F264
:104198000001097881B10546006842F62C42C2F256
:1041A800000200BF1468D4F808311B78984204D084
:1041B800013902F10402F5D1B0BD68680F2806DDA7
:1041C800102818BF402806D0202804D01DE0012858
:1041D8000FD0082819D1D4F804010121FFF7B2FB48
:1041E800D4F8040194F800212146BDE8B040FFF757
:1041F800BFBDD4F80C0100B18047D4F8040194F88D
:1042080000212146FFF7B4FD6868022819D0042868
:10421800D2D1A868B4F81213B4F8142301316FF39B
:104228005F21914204D0B4F81223224482F811018C
:10423800A4F81213D4F80C010028BDD0BDE8B04092
:104248000047002084F81001B0BDF0B581B042F2FB
:104258002436C2F200063778032F21D805460120FC
:104268004FF44671FCF73BF8D0B12A1D044607CA43
:10427800C4F80C217A1C2B78327042F62C42C2F218
:104288000002C4E9410184F8003142F82740FFF7F1
:1042980095FB48B1204603F017F9307801383070A3
:1042A8000024204601B0F0BDD4F8040194F80021A0
:1042B8002146FFF75DFDF4E778B110B50446D0F864
:1042C80004010121FFF73EFBD4F8040194F8002112
:1042D8002146BDE81040FFF74BBD704780B588B058
:1042E800CDE9050141F29940C0F200001B22079078
:1042F80004A88DF81020FFF7A8FF0EA2D2E901212B
:1043080042F22033DFF82CC0C2F20003186001A883
:10431800CDE901C20391FCF7ACF942F2F81201466B
:1043280042F20430C2F20002C2F20000116008B08A
:1043380080BD00BF320000007D14000000000000B6
:1043480042F22032C2F20002136823B10A46014643
:1043580093F8100100B17047012083F81001D3F8D9
:104368000401FFF720BD000000BE00BFFEE700000B
:104378002DE9F0414EF2FE34C4F201044AF2035032
:104388004CF200162080C4F201060120B08000BF64
:10439800B0880028FCD147F200010120C4F20001D6
:1043A80030808860086041F2C05742F6005041F200
:1043B8000022C2F20007C0F23110C0F27A02C7E947
:1043C800000243F200604FF40041C0F26E10C7E9EA
:1043D80002104CF20020396141F60041C0F6EB3082
:1043E800C0F64E614EF220057861C4F20105B9614C
:1043F800A879296857F82000C1F3026141F22068C2
:10440800C840C2F20008C8F8000000206075092002
:1044180085F8820094F8820020B994F88300800718
:1044280000F07F8094F8820050B9012084F882005F
:10443800C8200121FEF7DBFE94F882000128FBD199
:10444800002084F8830084F882000020A87400BF4C
:10445800287F0007FCD542F201702885002043F22E
:10446800021185F82A002981A87200BF287F8006DA
:10447800FCD50320307741F22120C2F201002860E8
:104488000520A871A879296857F82000C1F30261AE
:10449800F022C840C8F8000042F20800C4F2000048
:1044A800F1210171012101700271297485F832101E
:1044B80095F8540040F0400085F8540095F95400F0
:1044C800B0F1FF3FFADC0620462185F84C0085F85C
:1044D800541085F8540000BF95F954000028FBD407
:1044E80095F8560040F0400085F8560095F95600BA
:1044F800B0F1FF3FFADC032085F84E00C62085F8AE
:10450800560095F8560000F0BF0085F8560000BF29
:1045180095F956000028FBD44FF425402080BDE8CB
:10452800F0814FF47A70FEF7A4FE8EE77047000022
:1045380070B584B048F248060320C4F20006FEF7BE
:1045480006FE6FF0FF0048F2541430604FF0FF3061
:104558000021C0F200040122CDE9020054F8213004
:1045680002FA01F5002B18BFA84301311929F5D12A
:104578004EF280320190002001A9CEF2000200BF65
:1045880051F8203006EB8005AB6242F8203001304C
:104598000328F5D10320FEF701FE46F20031002082
:1045A800C4F2000154F820200AB141F8202001305B
:1045B800192804BF04B070BDF4E701380028FCD105
:1045C800704700002DE9F04F81B0044600880028AC
:1045D8005AD043F240084EF2BB4B0025C4F20808FB
:1045E8000FF2AC0AC4F2010B4FF00109002700BF1B
:1045F80060685AF8272000EBC500416891423CD119
:1046080000689BF8001000F0B85009FA07F6B0F1FE
:10461800807F06EA010015D150B90120FEF797FD09
:104628009BF8000030438BF800000120FEF7B6FD30
:1046380018F91700002820D418F8170040F0800057
:1046480015E000BF50B10120FEF781FD9BF8000086
:10465800B0438BF800000120FEF7A0FD18F9170001
:10466800B0F1FF3F09DC18F8170000F07F0008F8E8
:104678001700C8200121FEF7BAFD0137032FB7D173
:10468800208801358542B1D301B0BDE8F08F00BF65
:1046980002040000030400000404000010B541688F
:1046A800B1F5806F18BF10BD41F26461C2F200011C
:1046B8000C68416990F8202004F10803616100F159
:1046C800280118462274082A28BF0822FBF7C1FDD2
:1046D800616F19B12046BDE81040084710BD0000C1
:1046E8002DE9F04FB7B0EFF303806FF35F20A0F12F
:1046F800100142F25C10C2F2000050F821700091E3
:10470800786839680468006901F59855CDE90204AC
:10471800F8690790285D002878D024F0004808EB55
:104728004800072101FA00F001904FEA841A0DF1C0
:104738000C090DF1740B20462A5DD1074FEA4001A0
:1047480008D13868120727D400F56B624FF400735C
:1047580005E000BF38684FF4006300F56162049318
:1047680052F8213093FAA3F3B3FA83F3082B08D352
:1047780002EB8101496891FAA1F1B1FA81F101F1E5
:10478800200303EB0A01084490F8D01701F0F9015F
:1047980080F8D0171EE000BF029AD26902EB8101AF
:1047A800096BC9044FF4006158BF4FF400510491DC
:1047B800D0F8B412019A114091FAA1F1B1FA81F13D
:1047C80000EB810001F12803D0F8E02122F010026B
:1047D800C0F8E021BE69069356B1584631466822B2
:1047E800FBF737FD304649466822FBF732FD00E00B
:1047F8004E46796930468847B86918B159466822E3
:10480800FBF727FD285D0028404695D146F2003089
:10481800009AC4F2000050F8221021F4803140F8C8
:10482800221050F8220037B0BDE8F08F2DE9F04F84
:10483800B7B0EFF303804FF480636FF35F20A0F10C
:10484800100142F25C10C2F2000050F82170019190
:10485800D7E900010968D0F8B022CDE9031302F0C6
:104868003F0292FAA2F2B2FA82F202F01F06032E77
:1048780088BF02F0030242F0280106914FF48071CC
:10488800D0F8A02201FA06F912EA090F029633D1EC
:104898000DF10C0806F1280408F114060DF1740A4C
:1048A8002146324600F0EEFD039842F25411C2F25E
:1048B800000151F820B0DBE90650079055B1504689
:1048C80029466822FBF7C5FC284641466822FBF7C3
:1048D800C0FC00E04546DBF8141028468847DBF8A2
:1048E800180018B151466822FBF7B3FC3868D0F8B5
:1048F800A01211EA090FD3D0029900EB8100D0F879
:10490800E01121F00801C0F8E0113868D0F8B002D1
:1049180060B946F20030019AC4F2000050F8221043
:1049280021F4803140F8221050F8220037B0BDE859
:10493800F08FF0B5B5B0EFF303806FF35F20A0F10F
:104948001005032D33D142F25410C2F2000006685C
:1049580001A80C305C21FBF795FC4FF480500290C5
:1049680031684FF07040D1F8902000EA023000EB37
:104978000240920703904FF00000C1F890000FD555
:104988003168D1F8A82292FAA2F2B2FA82F201EBC7
:1049980082010492D1F8E02022F00402C1F8E0205C
:1049A800D6E906410190059104BB01AC2AE042F228
:1049B8005C10C2F2000001AF50F8256007F1140046
:1049C8005421FBF75FFC4FF480700290D6E9000198
:1049D800096800EB0110C26892B203920022C2601B
:1049E800D6E9064001910492059054B11BA82146CE
:1049F8006822FBF72EFC01A920466822FBF729FC58
:104A080000E03C46716920468847B06918B11BA987
:104A18006822FBF71EFC46F20030C4F2000050F892
:104A2800251021F4803140F8251050F8250035B0C4
:104A3800F0BD00002DE9F04FB5B040F2000BC4F214
:104A48000B0BDBF8AC0290FAA0F0B0FA80F2072A60
:104A580053D84FF4806042F020050290049501205D
:104A6800DBF8A01200FA02F4214200923CD100982F
:104A780046F208010BEBC0100DF16C0900EB010ABE
:104A880001A800F1140700BFDAF800002946C0F3B6
:104A980001203A460190584600F0F4FC019842F291
:104AA8005411C2F2000151F82080D8E9066005903F
:104AB80056B1484631466822FBF7CBFB304601A980
:104AC8006822FBF7C6FB00E001AED8F814103046A8
:104AD8008847D8F8180018B149466822FBF7B9FB8F
:104AE800DBF8A0022042CFD000980BEB8000D0F872
:104AF800E01021F00801C0F8E010DBF8AC0240B982
:104B080046F21030C4F20000016821F480310160DF
:104B1800006835B0BDE8F08F80B584B041F6E0603C
:104B2800C2F20000016848F2B4030131016043F2A7
:104B380048210420C2F20001CDE9000144F69D306D
:104B480041F2C87CC0F200000CA1C0F200034FF48F
:104B58008072C2F2000CCDF808C002F0CDF941F223
:104B6800C471C2F20001086008B104B080BD002021
:104B7800002104B0BDE8804000F0F3BE4461656DDB
:104B88006F6E5461736B0000FBF794FD0A2001F00F
:104B98004BFCF9E710B5044600F0B2FE2046BDE82C
:104BA8001040FFF7F1BF7047FFF7FDBF4021C4F287
:104BB800090101F50121002804BF4021C4F20901BF
:104BC8004BF6FF70088070474021C4F2090101F5D7
:104BD8000121002804BF4021C4F209014FF6F770F3
:104BE800088070474021C4F2090101F5012100281D
:104BF80004BF4021C4F2090108887047012818BF82
:104C0800704741F20210C4F21100018841F480415A
:104C18000180704780B541F6E060C2F200000021D3
:104C2800016041F69060C2F2000041F6986201709E
:104C38004FF48070C2F20002012101F059FD41F6E3
:104C48009461C2F20001086018B90020002100F048
:104C580088FE00F009F8FFF75FFF00F007FE01F09B
:104C680075FC002080BD000080B584B041F6E0608E
:104C7800C2F20000016848F2AC230131016043F23E
:104C880048610120C2F20001CDE9000144F6F54077
:104C980042F2D84CC0F200000CA1C0F200034FF45D
:104CA8008062C2F2000CCDF808C002F025F942F289
:104CB800D441C2F20001086008B104B080BD0020F0
:104CC800002104B0BDE8804000F04BBE4D6F746F0A
:104CD800724374726C5461736B000000FCF7AAF89D
:104CE800FCF776F9052001F09FFBF9E710B50446BB
:104CF80000F006FE2046BDE81040FFF7EFBF2DE9A3
:104D0800F04381B00E4643F23421C2F200010D682F
:104D180042F24461C2F20001D1F8008042F24C61D3
:104D280042F23C64C2F20001C2F20004D1F80090E1
:104D380021680746081D01F038F9781C16D1AEB174
:104D480043F20C20C2F20000D0E9001223680131BE
:104D58009A6093682768FB60276804375F60236858
:104D68000433936022680160506117E02068ED19F0
:104D78004560206800F1040105D3484601B0BDE84C
:104D8800F04301F05DB9404601F05AF943F28C1046
:104D9800C2F2000001688D4238BF056001B0BDE86D
:104DA800F08300002DE9F047044601F066F942F669
:104DB8004040C2F20000016842F23C6701310160E4
:104DC800C2F20007396843F2002A42F25466C2F27E
:104DD800000AC2F2000651B1DAF8000000283DD1FD
:104DE8003868E16AC06A884298BF3C6036E03C6037
:104DF8000068012832D10025701901F012F9143524
:104E0800642DF9D143F25C18C2F20008404601F063
:104E180008F943F27019C2F20009484601F001F995
:104E280043F29C10C2F2000001F0FBF843F220208C
:104E3800C2F2000001F0F5F843F20C20C2F20000C3
:104E480001F0EFF842F24460C2F20000C0F80080BE
:104E580042F24C60C2F20000C0F8009042F64C40AA
:104E6800C2F200000168231D0131016042F6504181
:104E7800C2F20001E06A0A68904288BF086000EB4D
:104E8800800006EB80014A6861619568C4E90225E3
:104E9800936056F820206B60511C46F8201001F0F2
:104EA80013F9DAF8000078B13868E16AC06A884214
:104EB8000AD24EF60450CEF200004FF08051016045
:104EC800BFF34F8FBFF36F8FBDE8F08770B582B027
:104ED80001F0D3F843F23826C2F20006306850BB1E
:104EE80043F23414C2F20004204601F09AF843F267
:104EF8004815C2F20005284601F093F842F24060D6
:104F0800C2F20000046042F25060C2F2000042F2B5
:104F1800785242F2F053056000250A20C2F20002DE
:104F28000C21C2F20003009501F002FC306010B1C0
:104F380003A101F027FA02B0BDE8704001F0C4B83F
:104F4800546D725100000000F0B581B042F644453E
:104F5800C2F200052868E0B143F2202642F6404735
:104F6800C2F20006C2F2000701F087F8F068C468D0
:104F7800201D01F01AF838680138386028680138AF
:104F8800286001F0A1F8204600F036F828680028CB
:104F9800EAD101B0F0BD70B5866B036C044643B32B
:104FA8001546CAB1E0681A46FBF753F9E168206C68
:104FB8002268091A9142E16003D2A168404208447C
:104FC800E060A81EB0FA80F040093146002E18BFF4
:104FD80001210840361A0CE060681A46FBF739F9D7
:104FE800D4E90101226C10448842606001D3206832
:104FF8006060701CA06370BD10B5044690F85D0039
:10500800022808BF10BD012803D038B9206B01F071
:1050180081F82046BDE8104001F07CB848F6C5216B
:1050280003A0C0F2000141F62E12FFF79DF900BF60
:1050380070785443422D3E7563537461746963619B
:105048006C6C79416C6C6F6361746564203D3D20C4
:105058002820282075696E74385F74202920322032
:105068002900000042F254644EF60455C2F20004CE
:10507800CEF200054FF08056FFF766FF2068022841
:1050880004D32E60BFF34F8FBFF36F8F00F0BDFFC7
:10509800F2E700002DE9F0470A9F8246089C386B2A
:1050A800984669B107F13403002600BF8D5D9D5510
:1050B8001DB10F2E06F10106F8D1002187F8431023
:1050C800052C21D200EB8200DDF82490043820F072
:1050D8000706381DFC6200F0AFFF07F1180000F06A
:1050E800ABFFC4F10500396BB86130465246434600
:1050F8003F617F6200F0B1F9B9F1000F386018BF65
:10510800C9F80070BDE8F08748F6C52103A0C0F2D1
:10511800000140F26472FFF727F900BF75785072FA
:10512800696F72697479203C2028352900000000D5
:105138008C46014641F804CF9445006108D942F2F3
:1051480040609A42C2F200000AD29C450ED207E0A3
:105158008069D21A824209D242F25060C2F200003B
:1051680080B5006800F06CFF002080BD012070470A
:1051780070B542F24062C2F2000212680646D26876
:105188000D46D468201D00F010FF94F82400410754
:1051980004D400F0FA0084F8240004E020463146E4
:1051A8002A4600F005F8216A2046BDE87040084705
:1051B80070B50546806914460E460144284600BF6E
:1051C8003346FFF7B5FF48B1A869296A064428465F
:1051D8008847A869224681192846F1E770BD000072
:1051E800F0B581B0044601F009FF42F23866C2F218
:1051F80000063168054688420ED242F24067C2F284
:10520800000700BF3868016841B1C0684FF0FF313E
:105218000068FFF7ADFFF5E7002007E042F25061B4
:10522800C2F200010A68086001203A60206028463E
:10523800356001B0F0BD000000BE00BFFEE7000011
:1052480084B042F2406843F23825C2F2000801AC4B
:10525800C2F200054FF00009EB4600BFD8F8000085
:10526800D0F800A0BAF1000F1ABFC068066800267F
:1052780001F0CAF92046FFF7B3FF019911B102F016
:1052880005F82DE00746BAF1000F08D0BE4206D84F
:1052980001F0FCFF30463946FFF76AFF20E0BAF11B
:1052A800000F01D0002208E042F25060C2F2000074
:1052B80000680068B0FA80F042092868F11B01F024
:1052C80090F801F0E3FF58B94EF604514FF08050C2
:1052D800CEF200010860BFF34F8FBFF36F8F00BF9E
:1052E8002868CDE90299CDF8049000BF2146002234
:1052F80001F02CFC0028B1D0019800284CD4039E62
:10530800706910B1301D00F050FE5846FFF768FF75
:105318000199013908293FD80746DFE801F005055A
:105328002C1C3F05052C1C0096F82400029BB16933
:1053380040F0010086F82400194430463A46FFF749
:10534800F7FE48B396F8240041071BD400F0FA0092
:1053580086F824001DE096F8240040F00101029828
:1053680086F82410B06108B3C11930463A463B4666
:10537800FFF7DEFE10E096F8240000F0FE0086F845
:10538800240009E00298B1693A4601443046FFF723
:105398000FFF316A304688472868A7E796F8240047
:1053A8008107EAD4304600F0B5FEF5E748F6483103
:1053B80003A0C0F200014FF48262FEF7D5FF00BFE0
:1053C8002820707854696D65722D3E7854696D6532
:1053D80072506572696F64496E5469636B73203EDD
:1053E8002030202900000000F0B581B0044600F00C
:1053F80044FE94F94560012E0EDB04F1240500BF3C
:10540800286848B1284601F0C8FE08B101F044F800
:1054180070B2013E0128F3DCFF2684F8456000F0F5
:1054280053FE00F02AFE94F94470012F0EDB04F1BC
:10543800100500BF286848B1284601F0AEFE08B143
:1054480001F02AF878B2013F0128F3DC84F84460BF
:1054580001B0BDE8F04000F037BE283140F8481DE3
:1054680045F24121C0F200014FF0807C22F0010298
:10547800C1636FF002010264C0F844C0C0E90913B7
:10548800704700001F2904D800EBC11303F5005C26
:1054980004E000EBC113282903F5A04C80B5DCF823
:1054A80000E0CEF380739360DCF8083003F0070364
:1054B80013612EF0604313604FEADE735360DCF82B
:1054C80004305FEA137E13A313F80EE082F80CE0B1
:1054D80009D00CF10C03143213F801CBBEF1010E04
:1054E80002F801CBF8D11F29BDE8804006D8012277
:1054F80002FA01F1C943C0F8B010704700EB81000F
:1055080028294FF0FF012CBFC0F8A011C0F8801067
:10551800704700BF0001020304050607080C1014B9
:105528001820304070B5D0E90042802901F00F03FF
:10553800D2F800C043D204EB0C14C90754F804EFA6
:1055480002D11EF0040504D1052B08BF1EF0010589
:1055580009D12568012666F302052560656805F00E
:105568000705012DFAD1256825F007051D4325609B
:10557800656805F007059D42FAD1002960D11EF043
:1055880003015DD011690CEB4C02C9694FF49073AB
:1055980001EB820603EB820106F13002002300BF13
:1055A800066852F823500E4456F8234005F00105CA
:1055B800254346F823500133032BF1D140E0D4F8BA
:1055C80088205FEAC17E02F0010118D0B9B9302401
:1055D800026852F8245025F0010542F8245001349D
:1055E800382CF5D1482400BF026852F8245025F021
:1055F800010542F8245001344E2CF5D10468D4F842
:10560800882022F007021A43C4F88820D4F88C2096
:1056180002F007029A42F9D1BEF1000F10D179B118
:10562800416800220969C969083100BF036851F857
:10563800225003EB82030132082AC3F8C050F5D187
:10564800016801EB0C11496801F00701C16070BDE8
:1056580001F10E0212F80B3C402B06D3B2F800C041
:105668005FFA8CF343EA0C23138012F80C3C1032D7
:105678003F2BEFD845F21042C4F200020823137002
:10568800406840F20003C2F2000343F820101820DB
:105698001070704770B50446FEF794FF41F6247CFD
:1056A800EFF31080012181F31088C2F2000CDCF8BE
:1056B800001039B940F60351C4F2080100220A70FB
:1056C80040220A70DCF800100131CCF8001080F399
:1056D8001088208818B340F6000E0021C4F2080E86
:1056E800606800EBC10250F831305268DD034FEAC0
:1056F8001220D2B20BD50EEB801555F8226026F495
:10570800803645F8226023F4803645F822600EEB97
:105718008010013140F8223020888142E0D30120F6
:10572800EFF3108180F31088DCF8000020B1DCF87A
:1057380000000138CCF80000DCF8000038B940F669
:105748000350C4F20800002202708022027081F324
:10575800108870BDB0B584B00446806A40B1D0E905
:1057680000CED0E90253CDE900CECDE9025300E0E6
:105778006846E369D4F824C01B78E56AC0E90032BA
:10578800C0E90215E047A06A10B19DE82E002EC0BE
:1057980004B0B0BD10B5D1F804C00478DCF800E05E
:1057A800136014B103F10C041460C069406858B95F
:1057B8009EF8030000F0CF0010308EF80300D1F8F7
:1057C80004C003F10B0010608A680868126861461B
:1057D800BDE8104010470000074801680A6802CA7F
:1057E80081F30B88B2E8F04F1EF0100F08BFB2EC3F
:1057F800108A82F3098870473C26002088B14EF24F
:105808000C00C4F20100B0F90010B1F1FF3F09DD4E
:10581800BFF34F8F30BFBFF36F8F62B6BFF36F8F89
:1058280072B6704780B54EF2FE32C4F20102B2F889
:1058380000E04AF2025CCFF6FF7C0023A2F800C029
:1058480003804EF425431380BFF34F8F30BFBFF35F
:105858006F8F62B6BFF36F8F72B61388A2F800C05D
:10586800018043F42540108080BD000080B584B0DD
:1058780041F6E060C2F20000016848F2603301318D
:10588800016044F248610120C2F20001CDE9000143
:1058980045F6F50042F2007CC0F200000CA1C0F20F
:1058A80000034FF48062C2F2000CCDF808C001F08A
:1058B80023FB42F2FC61C2F20001086008B104B0A7
:1058C80080BD0020002104B0BDE8804000F049B848
:1058D800526F626F745461736B000000FAF70AFF2D
:1058E800FAF768FF052000F09FFDF9E710B50446B8
:1058F80000F006F82046BDE81040FFF7EFBF0000B3
:10590800B0B541F69464C2F2000420684FF0FF314C
:1059180001F0EAF9012803D02068002100F021F8FD
:1059280041F69060C2F20000017801B1B0BD0121DA
:105938000170FFF739F941F6E065C2F2000500BFD2
:10594800286801382860F1D020680021002200234F
:1059580000F0A8FF0128F3D02068002100F001F82A
:10596800EEE700BE7047B0B5EFF303806FF35F203A
:10597800A0F1100542F25C10C2F2000050F82500B8
:10598800017821B9817801F00301022921D1036A44
:10599800198A6FF35F211A79D40602F0380203D509
:1059A8001C7FE40708BF40321C7904F0C7041C714F
:1059B800436A0BB1FFF7CEFE46F20030C4F2000096
:1059C80050F8251021F4803140F8251050F82500B2
:1059D800B0BD036A5979DEE710B582B0EFF30380F2
:1059E80040F2FC7101EA800046F2C021C4F20001D5
:1059F800425822F48032425042F25C12C2F2000253
:105A08004158104450F8404CE069006B78B1A069E7
:105A180068B1616A002000296061A06140D0204619
:105A28000021012202B0BDE81040FFF793BE2078A4
:105A380038B9A07800F00301206A022905D041791D
:105A480006E0206AC18AC90628D0018A6FF35F215F
:105A5800A0690191B0B1A178606901F0030201A9C0
:105A6800FAF7F7FBA0786169A26900F00300014426
:105A7800101A6161A0610BD1606A48B1204600210B
:105A8800012203E0606A18B120460422FFF762FE93
:105A9800207828B1206AC18AC906D2D1BE210171F5
:105AA80002B010BD10B5EFF303806FF35F20A0F1D3
:105AB800100442F25C10C2F2000050F82400016A9F
:105AC8008A7802F07B028A70416A19B100210222A9
